{
  "_format": "hh-sol-artifact-1",
  "contractName": "EdaQuestSubscription",
  "sourceName": "contracts/EdaQuestSubscription.sol",
  "abi": [
    {
      "inputs": [
        {
          "internalType": "address",
          "name": "_paymentToken",
          "type": "address"
        }
      ],
      "stateMutability": "nonpayable",
      "type": "constructor"
    },
    {
      "inputs": [
        {
          "internalType": "address",
          "name": "owner",
          "type": "address"
        }
      ],
      "name": "OwnableInvalidOwner",
      "type": "error"
    },
    {
      "inputs": [
        {
          "internalType": "address",
          "name": "account",
          "type": "address"
        }
      ],
      "name": "OwnableUnauthorizedAccount",
      "type": "error"
    },
    {
      "anonymous": false,
      "inputs": [
        {
          "indexed": false,
          "internalType": "uint256",
          "name": "moduleId",
          "type": "uint256"
        },
        {
          "indexed": false,
          "internalType": "uint256",
          "name": "price",
          "type": "uint256"
        },
        {
          "indexed": false,
          "internalType": "uint256",
          "name": "duration",
          "type": "uint256"
        }
      ],
      "name": "ModuleCreated",
      "type": "event"
    },
    {
      "anonymous": false,
      "inputs": [
        {
          "indexed": true,
          "internalType": "address",
          "name": "previousOwner",
          "type": "address"
        },
        {
          "indexed": true,
          "internalType": "address",
          "name": "newOwner",
          "type": "address"
        }
      ],
      "name": "OwnershipTransferred",
      "type": "event"
    },
    {
      "anonymous": false,
      "inputs": [
        {
          "indexed": false,
          "internalType": "address",
          "name": "user",
          "type": "address"
        },
        {
          "indexed": false,
          "internalType": "uint256",
          "name": "moduleId",
          "type": "uint256"
        }
      ],
      "name": "SubscriptionCancelled",
      "type": "event"
    },
    {
      "anonymous": false,
      "inputs": [
        {
          "indexed": false,
          "internalType": "address",
          "name": "user",
          "type": "address"
        },
        {
          "indexed": false,
          "internalType": "uint256",
          "name": "moduleId",
          "type": "uint256"
        },
        {
          "indexed": false,
          "internalType": "uint256",
          "name": "expiryTime",
          "type": "uint256"
        }
      ],
      "name": "SubscriptionPurchased",
      "type": "event"
    },
    {
      "inputs": [
        {
          "internalType": "uint256",
          "name": "_moduleId",
          "type": "uint256"
        }
      ],
      "name": "cancelSubscription",
      "outputs": [],
      "stateMutability": "nonpayable",
      "type": "function"
    },
    {
      "inputs": [
        {
          "internalType": "uint256",
          "name": "_price",
          "type": "uint256"
        },
        {
          "internalType": "uint256",
          "name": "_duration",
          "type": "uint256"
        }
      ],
      "name": "createModule",
      "outputs": [],
      "stateMutability": "nonpayable",
      "type": "function"
    },
    {
      "inputs": [
        {
          "internalType": "address",
          "name": "_user",
          "type": "address"
        },
        {
          "internalType": "uint256",
          "name": "_moduleId",
          "type": "uint256"
        }
      ],
      "name": "hasAccess",
      "outputs": [
        {
          "internalType": "bool",
          "name": "",
          "type": "bool"
        }
      ],
      "stateMutability": "view",
      "type": "function"
    },
    {
      "inputs": [],
      "name": "moduleCount",
      "outputs": [
        {
          "internalType": "uint256",
          "name": "",
          "type": "uint256"
        }
      ],
      "stateMutability": "view",
      "type": "function"
    },
    {
      "inputs": [
        {
          "internalType": "uint256",
          "name": "",
          "type": "uint256"
        }
      ],
      "name": "modules",
      "outputs": [
        {
          "internalType": "uint256",
          "name": "price",
          "type": "uint256"
        },
        {
          "internalType": "uint256",
          "name": "duration",
          "type": "uint256"
        },
        {
          "internalType": "bool",
          "name": "isActive",
          "type": "bool"
        }
      ],
      "stateMutability": "view",
      "type": "function"
    },
    {
      "inputs": [],
      "name": "owner",
      "outputs": [
        {
          "internalType": "address",
          "name": "",
          "type": "address"
        }
      ],
      "stateMutability": "view",
      "type": "function"
    },
    {
      "inputs": [],
      "name": "paymentToken",
      "outputs": [
        {
          "internalType": "contract IERC20",
          "name": "",
          "type": "address"
        }
      ],
      "stateMutability": "view",
      "type": "function"
    },
    {
      "inputs": [],
      "name": "renounceOwnership",
      "outputs": [],
      "stateMutability": "nonpayable",
      "type": "function"
    },
    {
      "inputs": [
        {
          "internalType": "uint256",
          "name": "_moduleId",
          "type": "uint256"
        }
      ],
      "name": "subscribe",
      "outputs": [],
      "stateMutability": "nonpayable",
      "type": "function"
    },
    {
      "inputs": [
        {
          "internalType": "address",
          "name": "newOwner",
          "type": "address"
        }
      ],
      "name": "transferOwnership",
      "outputs": [],
      "stateMutability": "nonpayable",
      "type": "function"
    },
    {
      "inputs": [
        {
          "internalType": "address",
          "name": "",
          "type": "address"
        },
        {
          "internalType": "uint256",
          "name": "",
          "type": "uint256"
        }
      ],
      "name": "userSubscriptions",
      "outputs": [
        {
          "internalType": "uint256",
          "name": "startTime",
          "type": "uint256"
        },
        {
          "internalType": "uint256",
          "name": "expiryTime",
          "type": "uint256"
        },
        {
          "internalType": "bool",
          "name": "isActive",
          "type": "bool"
        }
      ],
      "stateMutability": "view",
      "type": "function"
    },
    {
      "inputs": [],
      "name": "withdrawFunds",
      "outputs": [],
      "stateMutability": "nonpayable",
      "type": "function"
    }
  ],
  "bytecode": "0x60806040523480156200001157600080fd5b50604051620016ec380380620016ec833981810160405281019062000037919062000235565b33600073ffffffffffffffffffffffffffffffffffffffff168173ffffffffffffffffffffffffffffffffffffffff1603620000ad5760006040517f1e4fbdf7000000000000000000000000000000000000000000000000000000008152600401620000a4919062000278565b60405180910390fd5b620000be816200010760201b60201c565b5080600460006101000a81548173ffffffffffffffffffffffffffffffffffffffff021916908373ffffffffffffffffffffffffffffffffffffffff1602179055505062000295565b60008060009054906101000a900473ffffffffffffffffffffffffffffffffffffffff169050816000806101000a81548173ffffffffffffffffffffffffffffffffffffffff021916908373ffffffffffffffffffffffffffffffffffffffff1602179055508173ffffffffffffffffffffffffffffffffffffffff168173ffffffffffffffffffffffffffffffffffffffff167f8be0079c531659141344cd1fd0a4f28419497f9722a3daafe3b4186f6b6457e060405160405180910390a35050565b600080fd5b600073ffffffffffffffffffffffffffffffffffffffff82169050919050565b6000620001fd82620001d0565b9050919050565b6200020f81620001f0565b81146200021b57600080fd5b50565b6000815190506200022f8162000204565b92915050565b6000602082840312156200024e576200024d620001cb565b5b60006200025e848285016200021e565b91505092915050565b6200027281620001f0565b82525050565b60006020820190506200028f600083018462000267565b92915050565b61144780620002a56000396000f3fe608060405234801561001057600080fd5b50600436106100b45760003560e01c806381b2248a1161007157806381b2248a146101415780638da5cb5b14610173578063c272be5114610191578063c6530e41146101ad578063c95d6edc146101dd578063f2fde38b1461020f576100b4565b80630f574ba7146100b957806321235083146100d557806324600fc3146100f15780633013ce29146100fb578063334f7ac514610119578063715018a614610137575b600080fd5b6100d360048036038101906100ce9190610d34565b61022b565b005b6100ef60048036038101906100ea9190610d34565b61062c565b005b6100f961072b565b005b6101036108c1565b6040516101109190610de0565b60405180910390f35b6101216108e7565b60405161012e9190610e0a565b60405180910390f35b61013f6108ed565b005b61015b60048036038101906101569190610d34565b610901565b60405161016a93929190610e40565b60405180910390f35b61017b610938565b6040516101889190610e98565b60405180910390f35b6101ab60048036038101906101a69190610eb3565b610961565b005b6101c760048036038101906101c29190610f1f565b610a30565b6040516101d49190610f5f565b60405180910390f35b6101f760048036038101906101f29190610f1f565b610adc565b60405161020693929190610e40565b60405180910390f35b61022960048036038101906102249190610f7a565b610b20565b005b60006001600083815260200190815260200160002060405180606001604052908160008201548152602001600182015481526020016002820160009054906101000a900460ff161515151581525050905080604001516102c0576040517f08c379a00000000000000000000000000000000000000000000000000000000081526004016102b790611004565b60405180910390fd5b8060000151600460009054906101000a900473ffffffffffffffffffffffffffffffffffffffff1673ffffffffffffffffffffffffffffffffffffffff166370a08231336040518263ffffffff1660e01b81526004016103209190610e98565b602060405180830381865afa15801561033d573d6000803e3d6000fd5b505050506040513d601f19601f820116820180604052508101906103619190611039565b10156103a2576040517f08c379a0000000000000000000000000000000000000000000000000000000008152600401610399906110b2565b60405180910390fd5b8060000151600460009054906101000a900473ffffffffffffffffffffffffffffffffffffffff1673ffffffffffffffffffffffffffffffffffffffff1663dd62ed3e33306040518363ffffffff1660e01b81526004016104049291906110d2565b602060405180830381865afa158015610421573d6000803e3d6000fd5b505050506040513d601f19601f820116820180604052508101906104459190611039565b1015610486576040517f08c379a000000000000000000000000000000000000000000000000000000000815260040161047d90611147565b60405180910390fd5b600460009054906101000a900473ffffffffffffffffffffffffffffffffffffffff1673ffffffffffffffffffffffffffffffffffffffff166323b872dd333084600001516040518463ffffffff1660e01b81526004016104e993929190611167565b6020604051808303816000875af1158015610508573d6000803e3d6000fd5b505050506040513d601f19601f8201168201806040525081019061052c91906111ca565b50600042905060008260200151826105449190611226565b9050604051806060016040528083815260200182815260200160011515815250600260003373ffffffffffffffffffffffffffffffffffffffff1673ffffffffffffffffffffffffffffffffffffffff1681526020019081526020016000206000868152602001908152602001600020600082015181600001556020820151816001015560408201518160020160006101000a81548160ff0219169083151502179055509050507f6d458fa94cc5b30d7877bed127c2029f98bc0cbc4634dc7789b6bc804fbdae0333858360405161061e9392919061125a565b60405180910390a150505050565b6000600260003373ffffffffffffffffffffffffffffffffffffffff1673ffffffffffffffffffffffffffffffffffffffff168152602001908152602001600020600083815260200190815260200160002090508060020160009054906101000a900460ff166106d1576040517f08c379a00000000000000000000000000000000000000000000000000000000081526004016106c8906112dd565b60405180910390fd5b60008160020160006101000a81548160ff0219169083151502179055507f06aa12c0ad65927b4a753d119c26e490d3c4a4e11cb631b43131a709dc1e5917338360405161071f9291906112fd565b60405180910390a15050565b610733610ba6565b6000600460009054906101000a900473ffffffffffffffffffffffffffffffffffffffff1673ffffffffffffffffffffffffffffffffffffffff166370a08231306040518263ffffffff1660e01b81526004016107909190610e98565b602060405180830381865afa1580156107ad573d6000803e3d6000fd5b505050506040513d601f19601f820116820180604052508101906107d19190611039565b905060008111610816576040517f08c379a000000000000000000000000000000000000000000000000000000000815260040161080d90611372565b60405180910390fd5b600460009054906101000a900473ffffffffffffffffffffffffffffffffffffffff1673ffffffffffffffffffffffffffffffffffffffff1663a9059cbb61085c610938565b836040518363ffffffff1660e01b815260040161087a9291906112fd565b6020604051808303816000875af1158015610899573d6000803e3d6000fd5b505050506040513d601f19601f820116820180604052508101906108bd91906111ca565b5050565b600460009054906101000a900473ffffffffffffffffffffffffffffffffffffffff1681565b60035481565b6108f5610ba6565b6108ff6000610c2d565b565b60016020528060005260406000206000915090508060000154908060010154908060020160009054906101000a900460ff16905083565b60008060009054906101000a900473ffffffffffffffffffffffffffffffffffffffff16905090565b610969610ba6565b600060035490506003600081548092919061098390611392565b919050555060405180606001604052808481526020018381526020016001151581525060016000838152602001908152602001600020600082015181600001556020820151816001015560408201518160020160006101000a81548160ff0219169083151502179055509050507f7d2613ea323509dbe8fb90d2cae91616710bb571fda907a10ba2964eb7edfe05818484604051610a23939291906113da565b60405180910390a1505050565b600080600260008573ffffffffffffffffffffffffffffffffffffffff1673ffffffffffffffffffffffffffffffffffffffff168152602001908152602001600020600084815260200190815260200160002060405180606001604052908160008201548152602001600182015481526020016002820160009054906101000a900460ff161515151581525050905080604001518015610ad35750806020015142105b91505092915050565b6002602052816000526040600020602052806000526040600020600091509150508060000154908060010154908060020160009054906101000a900460ff16905083565b610b28610ba6565b600073ffffffffffffffffffffffffffffffffffffffff168173ffffffffffffffffffffffffffffffffffffffff1603610b9a5760006040517f1e4fbdf7000000000000000000000000000000000000000000000000000000008152600401610b919190610e98565b60405180910390fd5b610ba381610c2d565b50565b610bae610cf1565b73ffffffffffffffffffffffffffffffffffffffff16610bcc610938565b73ffffffffffffffffffffffffffffffffffffffff1614610c2b57610bef610cf1565b6040517f118cdaa7000000000000000000000000000000000000000000000000000000008152600401610c229190610e98565b60405180910390fd5b565b60008060009054906101000a900473ffffffffffffffffffffffffffffffffffffffff169050816000806101000a81548173ffffffffffffffffffffffffffffffffffffffff021916908373ffffffffffffffffffffffffffffffffffffffff1602179055508173ffffffffffffffffffffffffffffffffffffffff168173ffffffffffffffffffffffffffffffffffffffff167f8be0079c531659141344cd1fd0a4f28419497f9722a3daafe3b4186f6b6457e060405160405180910390a35050565b600033905090565b600080fd5b6000819050919050565b610d1181610cfe565b8114610d1c57600080fd5b50565b600081359050610d2e81610d08565b92915050565b600060208284031215610d4a57610d49610cf9565b5b6000610d5884828501610d1f565b91505092915050565b600073ffffffffffffffffffffffffffffffffffffffff82169050919050565b6000819050919050565b6000610da6610da1610d9c84610d61565b610d81565b610d61565b9050919050565b6000610db882610d8b565b9050919050565b6000610dca82610dad565b9050919050565b610dda81610dbf565b82525050565b6000602082019050610df56000830184610dd1565b92915050565b610e0481610cfe565b82525050565b6000602082019050610e1f6000830184610dfb565b92915050565b60008115159050919050565b610e3a81610e25565b82525050565b6000606082019050610e556000830186610dfb565b610e626020830185610dfb565b610e6f6040830184610e31565b949350505050565b6000610e8282610d61565b9050919050565b610e9281610e77565b82525050565b6000602082019050610ead6000830184610e89565b92915050565b60008060408385031215610eca57610ec9610cf9565b5b6000610ed885828601610d1f565b9250506020610ee985828601610d1f565b9150509250929050565b610efc81610e77565b8114610f0757600080fd5b50565b600081359050610f1981610ef3565b92915050565b60008060408385031215610f3657610f35610cf9565b5b6000610f4485828601610f0a565b9250506020610f5585828601610d1f565b9150509250929050565b6000602082019050610f746000830184610e31565b92915050565b600060208284031215610f9057610f8f610cf9565b5b6000610f9e84828501610f0a565b91505092915050565b600082825260208201905092915050565b7f4d6f64756c65206973206e6f7420616374697665000000000000000000000000600082015250565b6000610fee601483610fa7565b9150610ff982610fb8565b602082019050919050565b6000602082019050818103600083015261101d81610fe1565b9050919050565b60008151905061103381610d08565b92915050565b60006020828403121561104f5761104e610cf9565b5b600061105d84828501611024565b91505092915050565b7f496e73756666696369656e742062616c616e6365000000000000000000000000600082015250565b600061109c601483610fa7565b91506110a782611066565b602082019050919050565b600060208201905081810360008301526110cb8161108f565b9050919050565b60006040820190506110e76000830185610e89565b6110f46020830184610e89565b9392505050565b7f496e73756666696369656e7420616c6c6f77616e636500000000000000000000600082015250565b6000611131601683610fa7565b915061113c826110fb565b602082019050919050565b6000602082019050818103600083015261116081611124565b9050919050565b600060608201905061117c6000830186610e89565b6111896020830185610e89565b6111966040830184610dfb565b949350505050565b6111a781610e25565b81146111b257600080fd5b50565b6000815190506111c48161119e565b92915050565b6000602082840312156111e0576111df610cf9565b5b60006111ee848285016111b5565b91505092915050565b7f4e487b7100000000000000000000000000000000000000000000000000000000600052601160045260246000fd5b600061123182610cfe565b915061123c83610cfe565b9250828201905080821115611254576112536111f7565b5b92915050565b600060608201905061126f6000830186610e89565b61127c6020830185610dfb565b6112896040830184610dfb565b949350505050565b7f4e6f2061637469766520737562736372697074696f6e00000000000000000000600082015250565b60006112c7601683610fa7565b91506112d282611291565b602082019050919050565b600060208201905081810360008301526112f6816112ba565b9050919050565b60006040820190506113126000830185610e89565b61131f6020830184610dfb565b9392505050565b7f4e6f2066756e647320746f207769746864726177000000000000000000000000600082015250565b600061135c601483610fa7565b915061136782611326565b602082019050919050565b6000602082019050818103600083015261138b8161134f565b9050919050565b600061139d82610cfe565b91507fffffffffffffffffffffffffffffffffffffffffffffffffffffffffffffffff82036113cf576113ce6111f7565b5b600182019050919050565b60006060820190506113ef6000830186610dfb565b6113fc6020830185610dfb565b6114096040830184610dfb565b94935050505056fea2646970667358221220bd64cefabe70d0249309b1e0b5ceb8abbc1a9718eeb4fd5cbb533816288b198664736f6c63430008140033",
  "linkReferences": {},
  "deployedLinkReferences": {}
}