{"contracts/EdaQuestSubscription.sol":{"edaQuest":{"abi":[{"inputs":[{"internalType":"address","name":"initialOwner","type":"address"}],"stateMutability":"nonpayable","type":"constructor"},{"inputs":[{"internalType":"address","name":"sender","type":"address"},{"internalType":"uint256","name":"balance","type":"uint256"},{"internalType":"uint256","name":"needed","type":"uint256"},{"internalType":"uint256","name":"tokenId","type":"uint256"}],"name":"ERC1155InsufficientBalance","type":"error"},{"inputs":[{"internalType":"address","name":"approver","type":"address"}],"name":"ERC1155InvalidApprover","type":"error"},{"inputs":[{"internalType":"uint256","name":"idsLength","type":"uint256"},{"internalType":"uint256","name":"valuesLength","type":"uint256"}],"name":"ERC1155InvalidArrayLength","type":"error"},{"inputs":[{"internalType":"address","name":"operator","type":"address"}],"name":"ERC1155InvalidOperator","type":"error"},{"inputs":[{"internalType":"address","name":"receiver","type":"address"}],"name":"ERC1155InvalidReceiver","type":"error"},{"inputs":[{"internalType":"address","name":"sender","type":"address"}],"name":"ERC1155InvalidSender","type":"error"},{"inputs":[{"internalType":"address","name":"operator","type":"address"},{"internalType":"address","name":"owner","type":"address"}],"name":"ERC1155MissingApprovalForAll","type":"error"},{"inputs":[{"internalType":"address","name":"owner","type":"address"}],"name":"OwnableInvalidOwner","type":"error"},{"inputs":[{"internalType":"address","name":"account","type":"address"}],"name":"OwnableUnauthorizedAccount","type":"error"},{"anonymous":false,"inputs":[{"indexed":true,"internalType":"address","name":"account","type":"address"},{"indexed":true,"internalType":"address","name":"operator","type":"address"},{"indexed":false,"internalType":"bool","name":"approved","type":"bool"}],"name":"ApprovalForAll","type":"event"},{"anonymous":false,"inputs":[{"indexed":true,"internalType":"address","name":"previousOwner","type":"address"},{"indexed":true,"internalType":"address","name":"newOwner","type":"address"}],"name":"OwnershipTransferred","type":"event"},{"anonymous":false,"inputs":[{"indexed":true,"internalType":"address","name":"operator","type":"address"},{"indexed":true,"internalType":"address","name":"from","type":"address"},{"indexed":true,"internalType":"address","name":"to","type":"address"},{"indexed":false,"internalType":"uint256[]","name":"ids","type":"uint256[]"},{"indexed":false,"internalType":"uint256[]","name":"values","type":"uint256[]"}],"name":"TransferBatch","type":"event"},{"anonymous":false,"inputs":[{"indexed":true,"internalType":"address","name":"operator","type":"address"},{"indexed":true,"internalType":"address","name":"from","type":"address"},{"indexed":true,"internalType":"address","name":"to","type":"address"},{"indexed":false,"internalType":"uint256","name":"id","type":"uint256"},{"indexed":false,"internalType":"uint256","name":"value","type":"uint256"}],"name":"TransferSingle","type":"event"},{"anonymous":false,"inputs":[{"indexed":false,"internalType":"string","name":"value","type":"string"},{"indexed":true,"internalType":"uint256","name":"id","type":"uint256"}],"name":"URI","type":"event"},{"inputs":[{"internalType":"address","name":"","type":"address"}],"name":"Users","outputs":[{"internalType":"address","name":"userAddress","type":"address"},{"internalType":"string","name":"subscriptionType","type":"string"},{"internalType":"bool","name":"hasSubscription","type":"bool"},{"internalType":"uint256","name":"totalXP","type":"uint256"},{"internalType":"uint256","name":"level","type":"uint256"},{"internalType":"uint256","name":"questsCompleted","type":"uint256"},{"internalType":"uint256","name":"currentStreak","type":"uint256"},{"internalType":"uint256","name":"subscriptionTakenAt","type":"uint256"},{"internalType":"uint256","name":"amountPaid","type":"uint256"}],"stateMutability":"view","type":"function"},{"inputs":[{"internalType":"address","name":"account","type":"address"},{"internalType":"uint256","name":"id","type":"uint256"}],"name":"balanceOf","outputs":[{"internalType":"uint256","name":"","type":"uint256"}],"stateMutability":"view","type":"function"},{"inputs":[{"internalType":"address[]","name":"accounts","type":"address[]"},{"internalType":"uint256[]","name":"ids","type":"uint256[]"}],"name":"balanceOfBatch","outputs":[{"internalType":"uint256[]","name":"","type":"uint256[]"}],"stateMutability":"view","type":"function"},{"inputs":[{"internalType":"address","name":"account","type":"address"},{"internalType":"uint256","name":"id","type":"uint256"},{"internalType":"uint256","name":"value","type":"uint256"}],"name":"burn","outputs":[],"stateMutability":"nonpayable","type":"function"},{"inputs":[{"internalType":"address","name":"account","type":"address"},{"internalType":"uint256[]","name":"ids","type":"uint256[]"},{"internalType":"uint256[]","name":"values","type":"uint256[]"}],"name":"burnBatch","outputs":[],"stateMutability":"nonpayable","type":"function"},{"inputs":[{"internalType":"address","name":"account","type":"address"}],"name":"checkAndUpdateSubscriptionStatus","outputs":[{"internalType":"bool","name":"","type":"bool"}],"stateMutability":"nonpayable","type":"function"},{"inputs":[{"internalType":"address","name":"account","type":"address"}],"name":"getUserData","outputs":[{"components":[{"internalType":"address","name":"userAddress","type":"address"},{"internalType":"string","name":"subscriptionType","type":"string"},{"internalType":"bool","name":"hasSubscription","type":"bool"},{"internalType":"uint256","name":"totalXP","type":"uint256"},{"internalType":"uint256","name":"level","type":"uint256"},{"internalType":"uint256","name":"questsCompleted","type":"uint256"},{"internalType":"uint256","name":"currentStreak","type":"uint256"},{"internalType":"uint256","name":"subscriptionTakenAt","type":"uint256"},{"internalType":"uint256","name":"amountPaid","type":"uint256"}],"internalType":"struct edaQuest.UserSchema","name":"","type":"tuple"}],"stateMutability":"view","type":"function"},{"inputs":[{"internalType":"address","name":"account","type":"address"},{"internalType":"address","name":"operator","type":"address"}],"name":"isApprovedForAll","outputs":[{"internalType":"bool","name":"","type":"bool"}],"stateMutability":"view","type":"function"},{"inputs":[{"internalType":"address","name":"to","type":"address"},{"internalType":"uint256[]","name":"ids","type":"uint256[]"},{"internalType":"uint256[]","name":"amounts","type":"uint256[]"},{"internalType":"bytes","name":"data","type":"bytes"}],"name":"mintBatch","outputs":[],"stateMutability":"nonpayable","type":"function"},{"inputs":[],"name":"owner","outputs":[{"internalType":"address","name":"","type":"address"}],"stateMutability":"view","type":"function"},{"inputs":[{"internalType":"address","name":"account","type":"address"},{"internalType":"string","name":"subscription_type","type":"string"}],"name":"purchasedSubscription","outputs":[],"stateMutability":"payable","type":"function"},{"inputs":[],"name":"renounceOwnership","outputs":[],"stateMutability":"nonpayable","type":"function"},{"inputs":[{"internalType":"address","name":"from","type":"address"},{"internalType":"address","name":"to","type":"address"},{"internalType":"uint256[]","name":"ids","type":"uint256[]"},{"internalType":"uint256[]","name":"values","type":"uint256[]"},{"internalType":"bytes","name":"data","type":"bytes"}],"name":"safeBatchTransferFrom","outputs":[],"stateMutability":"nonpayable","type":"function"},{"inputs":[{"internalType":"address","name":"from","type":"address"},{"internalType":"address","name":"to","type":"address"},{"internalType":"uint256","name":"id","type":"uint256"},{"internalType":"uint256","name":"value","type":"uint256"},{"internalType":"bytes","name":"data","type":"bytes"}],"name":"safeTransferFrom","outputs":[],"stateMutability":"nonpayable","type":"function"},{"inputs":[{"internalType":"address","name":"operator","type":"address"},{"internalType":"bool","name":"approved","type":"bool"}],"name":"setApprovalForAll","outputs":[],"stateMutability":"nonpayable","type":"function"},{"inputs":[{"internalType":"uint256","name":"tokenId","type":"uint256"},{"internalType":"string","name":"newuri","type":"string"}],"name":"setURI","outputs":[],"stateMutability":"nonpayable","type":"function"},{"inputs":[{"internalType":"bytes4","name":"interfaceId","type":"bytes4"}],"name":"supportsInterface","outputs":[{"internalType":"bool","name":"","type":"bool"}],"stateMutability":"view","type":"function"},{"inputs":[{"internalType":"address","name":"newOwner","type":"address"}],"name":"transferOwnership","outputs":[],"stateMutability":"nonpayable","type":"function"},{"inputs":[{"internalType":"address","name":"account","type":"address"}],"name":"updateUsersStatus","outputs":[],"stateMutability":"nonpayable","type":"function"},{"inputs":[{"internalType":"uint256","name":"id","type":"uint256"}],"name":"uri","outputs":[{"internalType":"string","name":"","type":"string"}],"stateMutability":"view","type":"function"}],"evm":{"bytecode":{"linkReferences":{},"object":"60806040523480156200001157600080fd5b5060405162004b3938038062004b398339818101604052810190620000379190620002a7565b806040518060200160405280600081525062000059816200016260201b60201c565b50600073ffffffffffffffffffffffffffffffffffffffff168173ffffffffffffffffffffffffffffffffffffffff1603620000cf5760006040517f1e4fbdf7000000000000000000000000000000000000000000000000000000008152600401620000c69190620002ea565b60405180910390fd5b620000e0816200017760201b60201c565b5060405180608001604052806042815260200162004ab560429139600560006001815260200190815260200160002090816200011d919062000581565b5060405180608001604052806042815260200162004af760429139600560006002815260200190815260200160002090816200015a919062000581565b505062000668565b806002908162000173919062000581565b5050565b6000600360009054906101000a900473ffffffffffffffffffffffffffffffffffffffff16905081600360006101000a81548173ffffffffffffffffffffffffffffffffffffffff021916908373ffffffffffffffffffffffffffffffffffffffff1602179055508173ffffffffffffffffffffffffffffffffffffffff168173ffffffffffffffffffffffffffffffffffffffff167f8be0079c531659141344cd1fd0a4f28419497f9722a3daafe3b4186f6b6457e060405160405180910390a35050565b600080fd5b600073ffffffffffffffffffffffffffffffffffffffff82169050919050565b60006200026f8262000242565b9050919050565b620002818162000262565b81146200028d57600080fd5b50565b600081519050620002a18162000276565b92915050565b600060208284031215620002c057620002bf6200023d565b5b6000620002d08482850162000290565b91505092915050565b620002e48162000262565b82525050565b6000602082019050620003016000830184620002d9565b92915050565b600081519050919050565b7f4e487b7100000000000000000000000000000000000000000000000000000000600052604160045260246000fd5b7f4e487b7100000000000000000000000000000000000000000000000000000000600052602260045260246000fd5b600060028204905060018216806200038957607f821691505b6020821081036200039f576200039e62000341565b5b50919050565b60008190508160005260206000209050919050565b60006020601f8301049050919050565b600082821b905092915050565b600060088302620004097fffffffffffffffffffffffffffffffffffffffffffffffffffffffffffffffff82620003ca565b620004158683620003ca565b95508019841693508086168417925050509392505050565b6000819050919050565b6000819050919050565b6000620004626200045c62000456846200042d565b62000437565b6200042d565b9050919050565b6000819050919050565b6200047e8362000441565b620004966200048d8262000469565b848454620003d7565b825550505050565b600090565b620004ad6200049e565b620004ba81848462000473565b505050565b5b81811015620004e257620004d6600082620004a3565b600181019050620004c0565b5050565b601f8211156200053157620004fb81620003a5565b6200050684620003ba565b8101602085101562000516578190505b6200052e6200052585620003ba565b830182620004bf565b50505b505050565b600082821c905092915050565b6000620005566000198460080262000536565b1980831691505092915050565b600062000571838362000543565b9150826002028217905092915050565b6200058c8262000307565b67ffffffffffffffff811115620005a857620005a762000312565b5b620005b4825462000370565b620005c1828285620004e6565b600060209050601f831160018114620005f95760008415620005e4578287015190505b620005f0858262000563565b86555062000660565b601f1984166200060986620003a5565b60005b8281101562000633578489015182556001820191506020850194506020810190506200060c565b868310156200065357848901516200064f601f89168262000543565b8355505b6001600288020188555050505b505050505050565b61443d80620006786000396000f3fe60806040526004361061011e5760003560e01c806399b956a0116100a0578063e985e9c511610064578063e985e9c5146103ed578063f242432a1461042a578063f2fde38b14610453578063f5298aca1461047c578063ffc9896b146104a55761011e565b806399b956a0146102fd578063a22cb46514610342578063d44f90841461036b578063d4555a6c14610394578063e231a224146103b05761011e565b80634e1273f4116100e75780634e1273f41461022c5780636b20c45414610269578063715018a614610292578063862440e2146102a95780638da5cb5b146102d25761011e565b8062fdd58e1461012357806301ffc9a7146101605780630e89341c1461019d5780631f7fdffa146101da5780632eb2c2d614610203575b600080fd5b34801561012f57600080fd5b5061014a60048036038101906101459190612c8d565b6104e2565b6040516101579190612cdc565b60405180910390f35b34801561016c57600080fd5b5061018760048036038101906101829190612d4f565b61053c565b6040516101949190612d97565b60405180910390f35b3480156101a957600080fd5b506101c460048036038101906101bf9190612db2565b61061e565b6040516101d19190612e6f565b60405180910390f35b3480156101e657600080fd5b5061020160048036038101906101fc919061308e565b61070e565b005b34801561020f57600080fd5b5061022a60048036038101906102259190613149565b610728565b005b34801561023857600080fd5b50610253600480360381019061024e91906132db565b6107d0565b6040516102609190613411565b60405180910390f35b34801561027557600080fd5b50610290600480360381019061028b9190613433565b6108d9565b005b34801561029e57600080fd5b506102a7610985565b005b3480156102b557600080fd5b506102d060048036038101906102cb919061355f565b610999565b005b3480156102de57600080fd5b506102e76109c6565b6040516102f491906135ca565b60405180910390f35b34801561030957600080fd5b50610324600480360381019061031f91906135e5565b6109f0565b60405161033999989796959493929190613612565b60405180910390f35b34801561034e57600080fd5b50610369600480360381019061036491906136d2565b610af3565b005b34801561037757600080fd5b50610392600480360381019061038d91906135e5565b610b09565b005b6103ae60048036038101906103a99190613712565b610d9b565b005b3480156103bc57600080fd5b506103d760048036038101906103d291906135e5565b6111ae565b6040516103e49190612d97565b60405180910390f35b3480156103f957600080fd5b50610414600480360381019061040f919061376e565b61151f565b6040516104219190612d97565b60405180910390f35b34801561043657600080fd5b50610451600480360381019061044c91906137ae565b6115b3565b005b34801561045f57600080fd5b5061047a600480360381019061047591906135e5565b61165b565b005b34801561048857600080fd5b506104a3600480360381019061049e9190613845565b6116e1565b005b3480156104b157600080fd5b506104cc60048036038101906104c791906135e5565b61178d565b6040516104d991906139c5565b60405180910390f35b600080600083815260200190815260200160002060008473ffffffffffffffffffffffffffffffffffffffff1673ffffffffffffffffffffffffffffffffffffffff16815260200190815260200160002054905092915050565b60007fd9b67a26000000000000000000000000000000000000000000000000000000007bffffffffffffffffffffffffffffffffffffffffffffffffffffffff1916827bffffffffffffffffffffffffffffffffffffffffffffffffffffffff1916148061060757507f0e89341c000000000000000000000000000000000000000000000000000000007bffffffffffffffffffffffffffffffffffffffffffffffffffffffff1916827bffffffffffffffffffffffffffffffffffffffffffffffffffffffff1916145b80610617575061061682611926565b5b9050919050565b6060600060056000848152602001908152602001600020805461064090613a16565b80601f016020809104026020016040519081016040528092919081815260200182805461066c90613a16565b80156106b95780601f1061068e576101008083540402835291602001916106b9565b820191906000526020600020905b81548152906001019060200180831161069c57829003601f168201915b505050505090506000815111156106d35780915050610709565b6106dc83611990565b6106e584611a24565b6040516020016106f6929190613acf565b6040516020818303038152906040529150505b919050565b610716611af2565b61072284848484611b79565b50505050565b6000610732611bff565b90508073ffffffffffffffffffffffffffffffffffffffff168673ffffffffffffffffffffffffffffffffffffffff16141580156107775750610775868261151f565b155b156107bb5780866040517fe237d9220000000000000000000000000000000000000000000000000000000081526004016107b2929190613afe565b60405180910390fd5b6107c88686868686611c07565b505050505050565b6060815183511461081c57815183516040517f5b059991000000000000000000000000000000000000000000000000000000008152600401610813929190613b27565b60405180910390fd5b6000835167ffffffffffffffff81111561083957610838612e96565b5b6040519080825280602002602001820160405280156108675781602001602082028036833780820191505090505b50905060005b84518110156108ce576108a461088c8287611cff90919063ffffffff16565b61089f8387611d1390919063ffffffff16565b6104e2565b8282815181106108b7576108b6613b50565b5b60200260200101818152505080600101905061086d565b508091505092915050565b6108e1611bff565b73ffffffffffffffffffffffffffffffffffffffff168373ffffffffffffffffffffffffffffffffffffffff161415801561092a575061092883610923611bff565b61151f565b155b1561097557610937611bff565b836040517fe237d92200000000000000000000000000000000000000000000000000000000815260040161096c929190613afe565b60405180910390fd5b610980838383611d27565b505050565b61098d611af2565b6109976000611dbb565b565b6109a1611af2565b806005600084815260200190815260200160002090816109c19190613d2b565b505050565b6000600360009054906101000a900473ffffffffffffffffffffffffffffffffffffffff16905090565b60046020528060005260406000206000915090508060000160009054906101000a900473ffffffffffffffffffffffffffffffffffffffff1690806001018054610a3990613a16565b80601f0160208091040260200160405190810160405280929190818152602001828054610a6590613a16565b8015610ab25780601f10610a8757610100808354040283529160200191610ab2565b820191906000526020600020905b815481529060010190602001808311610a9557829003601f168201915b5050505050908060020160009054906101000a900460ff16908060030154908060040154908060050154908060060154908060070154908060080154905089565b610b05610afe611bff565b8383611e81565b5050565b610b11611af2565b600073ffffffffffffffffffffffffffffffffffffffff16600460008373ffffffffffffffffffffffffffffffffffffffff1673ffffffffffffffffffffffffffffffffffffffff16815260200190815260200160002060000160009054906101000a900473ffffffffffffffffffffffffffffffffffffffff1673ffffffffffffffffffffffffffffffffffffffff1603610be2576040517f08c379a0000000000000000000000000000000000000000000000000000000008152600401610bd990613e49565b60405180910390fd5b6000610bed826111ae565b905080610c2f576040517f08c379a0000000000000000000000000000000000000000000000000000000008152600401610c2690613edb565b60405180910390fd5b6064600460008473ffffffffffffffffffffffffffffffffffffffff1673ffffffffffffffffffffffffffffffffffffffff1681526020019081526020016000206003016000828254610c829190613f2a565b925050819055506001600460008473ffffffffffffffffffffffffffffffffffffffff1673ffffffffffffffffffffffffffffffffffffffff1681526020019081526020016000206004016000828254610cdc9190613f2a565b925050819055506001600460008473ffffffffffffffffffffffffffffffffffffffff1673ffffffffffffffffffffffffffffffffffffffff1681526020019081526020016000206005016000828254610d369190613f2a565b925050819055506001600460008473ffffffffffffffffffffffffffffffffffffffff1673ffffffffffffffffffffffffffffffffffffffff1681526020019081526020016000206006016000828254610d909190613f2a565b925050819055505050565b600080604051602001610dad90613faa565b6040516020818303038152906040528051906020012083604051602001610dd49190613fbf565b6040516020818303038152906040528051906020012003610e0357670de0b6b3a7640000915060019050610ea4565b604051602001610e1290614022565b6040516020818303038152906040528051906020012083604051602001610e399190613fbf565b6040516020818303038152906040528051906020012003610e6857678ac7230489e80000915060029050610ea3565b6040517f08c379a0000000000000000000000000000000000000000000000000000000008152600401610e9a90614083565b60405180910390fd5b5b81341015610ee7576040517f08c379a0000000000000000000000000000000000000000000000000000000008152600401610ede90614115565b60405180910390fd5b83600460008673ffffffffffffffffffffffffffffffffffffffff1673ffffffffffffffffffffffffffffffffffffffff16815260200190815260200160002060000160006101000a81548173ffffffffffffffffffffffffffffffffffffffff021916908373ffffffffffffffffffffffffffffffffffffffff16021790555082600460008673ffffffffffffffffffffffffffffffffffffffff1673ffffffffffffffffffffffffffffffffffffffff1681526020019081526020016000206001019081610fb79190613d2b565b506001600460008673ffffffffffffffffffffffffffffffffffffffff1673ffffffffffffffffffffffffffffffffffffffff16815260200190815260200160002060020160006101000a81548160ff021916908315150217905550600a600460008673ffffffffffffffffffffffffffffffffffffffff1673ffffffffffffffffffffffffffffffffffffffff168152602001908152602001600020600301819055506001600460008673ffffffffffffffffffffffffffffffffffffffff1673ffffffffffffffffffffffffffffffffffffffff1681526020019081526020016000206004018190555042600460008673ffffffffffffffffffffffffffffffffffffffff1673ffffffffffffffffffffffffffffffffffffffff1681526020019081526020016000206007018190555081600460008673ffffffffffffffffffffffffffffffffffffffff1673ffffffffffffffffffffffffffffffffffffffff1681526020019081526020016000206008018190555061114d8482600160405180602001604052806000815250611ff1565b813411156111a8573373ffffffffffffffffffffffffffffffffffffffff166108fc833461117b9190614135565b9081150290604051600060405180830381858888f193505050501580156111a6573d6000803e3d6000fd5b505b50505050565b60008073ffffffffffffffffffffffffffffffffffffffff16600460008473ffffffffffffffffffffffffffffffffffffffff1673ffffffffffffffffffffffffffffffffffffffff16815260200190815260200160002060000160009054906101000a900473ffffffffffffffffffffffffffffffffffffffff1673ffffffffffffffffffffffffffffffffffffffff1614806112995750600460008373ffffffffffffffffffffffffffffffffffffffff1673ffffffffffffffffffffffffffffffffffffffff16815260200190815260200160002060020160009054906101000a900460ff16155b156112a7576000905061151a565b6000806040516020016112b990613faa565b60405160208183030381529060405280519060200120600460008673ffffffffffffffffffffffffffffffffffffffff1673ffffffffffffffffffffffffffffffffffffffff16815260200190815260200160002060010160405160200161132191906141ec565b604051602081830303815290604052805190602001200361139a5762278d00600460008673ffffffffffffffffffffffffffffffffffffffff1673ffffffffffffffffffffffffffffffffffffffff1681526020019081526020016000206007015461138d9190613f2a565b4211915060019050611488565b6040516020016113a990614022565b60405160208183030381529060405280519060200120600460008673ffffffffffffffffffffffffffffffffffffffff1673ffffffffffffffffffffffffffffffffffffffff16815260200190815260200160002060010160405160200161141191906141ec565b6040516020818303038152906040528051906020012003611487576301e13380600460008673ffffffffffffffffffffffffffffffffffffffff1673ffffffffffffffffffffffffffffffffffffffff1681526020019081526020016000206007015461147e9190613f2a565b42119150600290505b5b8115611513576000600460008673ffffffffffffffffffffffffffffffffffffffff1673ffffffffffffffffffffffffffffffffffffffff16815260200190815260200160002060020160006101000a81548160ff02191690831515021790555060006114f585836104e2565b1115611508576115078482600161208a565b5b60009250505061151a565b6001925050505b919050565b6000600160008473ffffffffffffffffffffffffffffffffffffffff1673ffffffffffffffffffffffffffffffffffffffff16815260200190815260200160002060008373ffffffffffffffffffffffffffffffffffffffff1673ffffffffffffffffffffffffffffffffffffffff16815260200190815260200160002060009054906101000a900460ff16905092915050565b60006115bd611bff565b90508073ffffffffffffffffffffffffffffffffffffffff168673ffffffffffffffffffffffffffffffffffffffff16141580156116025750611600868261151f565b155b156116465780866040517fe237d92200000000000000000000000000000000000000000000000000000000815260040161163d929190613afe565b60405180910390fd5b6116538686868686612131565b505050505050565b611663611af2565b600073ffffffffffffffffffffffffffffffffffffffff168173ffffffffffffffffffffffffffffffffffffffff16036116d55760006040517f1e4fbdf70000000000000000000000000000000000000000000000000000000081526004016116cc91906135ca565b60405180910390fd5b6116de81611dbb565b50565b6116e9611bff565b73ffffffffffffffffffffffffffffffffffffffff168373ffffffffffffffffffffffffffffffffffffffff161415801561173257506117308361172b611bff565b61151f565b155b1561177d5761173f611bff565b836040517fe237d922000000000000000000000000000000000000000000000000000000008152600401611774929190613afe565b60405180910390fd5b61178883838361208a565b505050565b611795612b81565b600460008373ffffffffffffffffffffffffffffffffffffffff1673ffffffffffffffffffffffffffffffffffffffff168152602001908152602001600020604051806101200160405290816000820160009054906101000a900473ffffffffffffffffffffffffffffffffffffffff1673ffffffffffffffffffffffffffffffffffffffff1673ffffffffffffffffffffffffffffffffffffffff16815260200160018201805461184690613a16565b80601f016020809104026020016040519081016040528092919081815260200182805461187290613a16565b80156118bf5780601f10611894576101008083540402835291602001916118bf565b820191906000526020600020905b8154815290600101906020018083116118a257829003601f168201915b505050505081526020016002820160009054906101000a900460ff1615151515815260200160038201548152602001600482015481526020016005820154815260200160068201548152602001600782015481526020016008820154815250509050919050565b60007f01ffc9a7000000000000000000000000000000000000000000000000000000007bffffffffffffffffffffffffffffffffffffffffffffffffffffffff1916827bffffffffffffffffffffffffffffffffffffffffffffffffffffffff1916149050919050565b60606002805461199f90613a16565b80601f01602080910402602001604051908101604052809291908181526020018280546119cb90613a16565b8015611a185780601f106119ed57610100808354040283529160200191611a18565b820191906000526020600020905b8154815290600101906020018083116119fb57829003601f168201915b50505050509050919050565b606060006001611a338461223c565b01905060008167ffffffffffffffff811115611a5257611a51612e96565b5b6040519080825280601f01601f191660200182016040528015611a845781602001600182028036833780820191505090505b509050600082602001820190505b600115611ae7578080600190039150507f3031323334353637383961626364656600000000000000000000000000000000600a86061a8153600a8581611adb57611ada614203565b5b04945060008503611a92575b819350505050919050565b611afa611bff565b73ffffffffffffffffffffffffffffffffffffffff16611b186109c6565b73ffffffffffffffffffffffffffffffffffffffff1614611b7757611b3b611bff565b6040517f118cdaa7000000000000000000000000000000000000000000000000000000008152600401611b6e91906135ca565b60405180910390fd5b565b600073ffffffffffffffffffffffffffffffffffffffff168473ffffffffffffffffffffffffffffffffffffffff1603611beb5760006040517f57f447ce000000000000000000000000000000000000000000000000000000008152600401611be291906135ca565b60405180910390fd5b611bf960008585858561238f565b50505050565b600033905090565b600073ffffffffffffffffffffffffffffffffffffffff168473ffffffffffffffffffffffffffffffffffffffff1603611c795760006040517f57f447ce000000000000000000000000000000000000000000000000000000008152600401611c7091906135ca565b60405180910390fd5b600073ffffffffffffffffffffffffffffffffffffffff168573ffffffffffffffffffffffffffffffffffffffff1603611ceb5760006040517f01a83514000000000000000000000000000000000000000000000000000000008152600401611ce291906135ca565b60405180910390fd5b611cf8858585858561238f565b5050505050565b600060208202602084010151905092915050565b600060208202602084010151905092915050565b600073ffffffffffffffffffffffffffffffffffffffff168373ffffffffffffffffffffffffffffffffffffffff1603611d995760006040517f01a83514000000000000000000000000000000000000000000000000000000008152600401611d9091906135ca565b60405180910390fd5b611db683600084846040518060200160405280600081525061238f565b505050565b6000600360009054906101000a900473ffffffffffffffffffffffffffffffffffffffff16905081600360006101000a81548173ffffffffffffffffffffffffffffffffffffffff021916908373ffffffffffffffffffffffffffffffffffffffff1602179055508173ffffffffffffffffffffffffffffffffffffffff168173ffffffffffffffffffffffffffffffffffffffff167f8be0079c531659141344cd1fd0a4f28419497f9722a3daafe3b4186f6b6457e060405160405180910390a35050565b600073ffffffffffffffffffffffffffffffffffffffff168273ffffffffffffffffffffffffffffffffffffffff1603611ef35760006040517fced3e100000000000000000000000000000000000000000000000000000000008152600401611eea91906135ca565b60405180910390fd5b80600160008573ffffffffffffffffffffffffffffffffffffffff1673ffffffffffffffffffffffffffffffffffffffff16815260200190815260200160002060008473ffffffffffffffffffffffffffffffffffffffff1673ffffffffffffffffffffffffffffffffffffffff16815260200190815260200160002060006101000a81548160ff0219169083151502179055508173ffffffffffffffffffffffffffffffffffffffff168373ffffffffffffffffffffffffffffffffffffffff167f17307eab39ab6107e8899845ad3d59bd9653f200f220920489ca2b5937696c3183604051611fe49190612d97565b60405180910390a3505050565b600073ffffffffffffffffffffffffffffffffffffffff168473ffffffffffffffffffffffffffffffffffffffff16036120635760006040517f57f447ce00000000000000000000000000000000000000000000000000000000815260040161205a91906135ca565b60405180910390fd5b6000806120708585612441565b9150915061208260008784848761238f565b505050505050565b600073ffffffffffffffffffffffffffffffffffffffff168373ffffffffffffffffffffffffffffffffffffffff16036120fc5760006040517f01a835140000000000000000000000000000000000000000000000000000000081526004016120f391906135ca565b60405180910390fd5b6000806121098484612441565b9150915061212a85600084846040518060200160405280600081525061238f565b5050505050565b600073ffffffffffffffffffffffffffffffffffffffff168473ffffffffffffffffffffffffffffffffffffffff16036121a35760006040517f57f447ce00000000000000000000000000000000000000000000000000000000815260040161219a91906135ca565b60405180910390fd5b600073ffffffffffffffffffffffffffffffffffffffff168573ffffffffffffffffffffffffffffffffffffffff16036122155760006040517f01a8351400000000000000000000000000000000000000000000000000000000815260040161220c91906135ca565b60405180910390fd5b6000806122228585612441565b91509150612233878784848761238f565b50505050505050565b600080600090507a184f03e93ff9f4daa797ed6e38ed64bf6a1f010000000000000000831061229a577a184f03e93ff9f4daa797ed6e38ed64bf6a1f01000000000000000083816122905761228f614203565b5b0492506040810190505b6d04ee2d6d415b85acef810000000083106122d7576d04ee2d6d415b85acef810000000083816122cd576122cc614203565b5b0492506020810190505b662386f26fc10000831061230657662386f26fc1000083816122fc576122fb614203565b5b0492506010810190505b6305f5e100831061232f576305f5e100838161232557612324614203565b5b0492506008810190505b612710831061235457612710838161234a57612349614203565b5b0492506004810190505b60648310612377576064838161236d5761236c614203565b5b0492506002810190505b600a8310612386576001810190505b80915050919050565b61239b85858585612471565b600073ffffffffffffffffffffffffffffffffffffffff168473ffffffffffffffffffffffffffffffffffffffff161461243a5760006123d9611bff565b905060018451036124295760006123fa600086611d1390919063ffffffff16565b90506000612412600086611d1390919063ffffffff16565b9050612422838989858589612819565b5050612438565b6124378187878787876129cd565b5b505b5050505050565b60608060405191506001825283602083015260408201905060018152826020820152604081016040529250929050565b80518251146124bb57815181516040517f5b0599910000000000000000000000000000000000000000000000000000000081526004016124b2929190613b27565b60405180910390fd5b60006124c5611bff565b905060005b83518110156126d45760006124e88286611d1390919063ffffffff16565b905060006124ff8386611d1390919063ffffffff16565b9050600073ffffffffffffffffffffffffffffffffffffffff168873ffffffffffffffffffffffffffffffffffffffff161461262c57600080600084815260200190815260200160002060008a73ffffffffffffffffffffffffffffffffffffffff1673ffffffffffffffffffffffffffffffffffffffff168152602001908152602001600020549050818110156125d457888183856040517f03dee4c50000000000000000000000000000000000000000000000000000000081526004016125cb9493929190614232565b60405180910390fd5b81810360008085815260200190815260200160002060008b73ffffffffffffffffffffffffffffffffffffffff1673ffffffffffffffffffffffffffffffffffffffff16815260200190815260200160002081905550505b600073ffffffffffffffffffffffffffffffffffffffff168773ffffffffffffffffffffffffffffffffffffffff16146126c7578060008084815260200190815260200160002060008973ffffffffffffffffffffffffffffffffffffffff1673ffffffffffffffffffffffffffffffffffffffff16815260200190815260200160002060008282546126bf9190613f2a565b925050819055505b50508060010190506124ca565b5060018351036127935760006126f4600085611d1390919063ffffffff16565b9050600061270c600085611d1390919063ffffffff16565b90508573ffffffffffffffffffffffffffffffffffffffff168773ffffffffffffffffffffffffffffffffffffffff168473ffffffffffffffffffffffffffffffffffffffff167fc3d58168c5ae7397731d063d5bbf3d657854427343f4c083240f7aacaa2d0f628585604051612784929190613b27565b60405180910390a45050612812565b8373ffffffffffffffffffffffffffffffffffffffff168573ffffffffffffffffffffffffffffffffffffffff168273ffffffffffffffffffffffffffffffffffffffff167f4a39dc06d4c0dbc64b70af90fd698a233a518aa5d07e595d983b8c0526c8f7fb8686604051612809929190614277565b60405180910390a45b5050505050565b60008473ffffffffffffffffffffffffffffffffffffffff163b11156129c5578373ffffffffffffffffffffffffffffffffffffffff1663f23a6e6187878686866040518663ffffffff1660e01b815260040161287a959493929190614303565b6020604051808303816000875af19250505080156128b657506040513d601f19601f820116820180604052508101906128b39190614372565b60015b61293a573d80600081146128e6576040519150601f19603f3d011682016040523d82523d6000602084013e6128eb565b606091505b50600081510361293257846040517f57f447ce00000000000000000000000000000000000000000000000000000000815260040161292991906135ca565b60405180910390fd5b805181602001fd5b63f23a6e6160e01b7bffffffffffffffffffffffffffffffffffffffffffffffffffffffff1916817bffffffffffffffffffffffffffffffffffffffffffffffffffffffff1916146129c357846040517f57f447ce0000000000000000000000000000000000000000000000000000000081526004016129ba91906135ca565b60405180910390fd5b505b505050505050565b60008473ffffffffffffffffffffffffffffffffffffffff163b1115612b79578373ffffffffffffffffffffffffffffffffffffffff1663bc197c8187878686866040518663ffffffff1660e01b8152600401612a2e95949392919061439f565b6020604051808303816000875af1925050508015612a6a57506040513d601f19601f82011682018060405250810190612a679190614372565b60015b612aee573d8060008114612a9a576040519150601f19603f3d011682016040523d82523d6000602084013e612a9f565b606091505b506000815103612ae657846040517f57f447ce000000000000000000000000000000000000000000000000000000008152600401612add91906135ca565b60405180910390fd5b805181602001fd5b63bc197c8160e01b7bffffffffffffffffffffffffffffffffffffffffffffffffffffffff1916817bffffffffffffffffffffffffffffffffffffffffffffffffffffffff191614612b7757846040517f57f447ce000000000000000000000000000000000000000000000000000000008152600401612b6e91906135ca565b60405180910390fd5b505b505050505050565b604051806101200160405280600073ffffffffffffffffffffffffffffffffffffffff168152602001606081526020016000151581526020016000815260200160008152602001600081526020016000815260200160008152602001600081525090565b6000604051905090565b600080fd5b600080fd5b600073ffffffffffffffffffffffffffffffffffffffff82169050919050565b6000612c2482612bf9565b9050919050565b612c3481612c19565b8114612c3f57600080fd5b50565b600081359050612c5181612c2b565b92915050565b6000819050919050565b612c6a81612c57565b8114612c7557600080fd5b50565b600081359050612c8781612c61565b92915050565b60008060408385031215612ca457612ca3612bef565b5b6000612cb285828601612c42565b9250506020612cc385828601612c78565b9150509250929050565b612cd681612c57565b82525050565b6000602082019050612cf16000830184612ccd565b92915050565b60007fffffffff0000000000000000000000000000000000000000000000000000000082169050919050565b612d2c81612cf7565b8114612d3757600080fd5b50565b600081359050612d4981612d23565b92915050565b600060208284031215612d6557612d64612bef565b5b6000612d7384828501612d3a565b91505092915050565b60008115159050919050565b612d9181612d7c565b82525050565b6000602082019050612dac6000830184612d88565b92915050565b600060208284031215612dc857612dc7612bef565b5b6000612dd684828501612c78565b91505092915050565b600081519050919050565b600082825260208201905092915050565b60005b83811015612e19578082015181840152602081019050612dfe565b60008484015250505050565b6000601f19601f8301169050919050565b6000612e4182612ddf565b612e4b8185612dea565b9350612e5b818560208601612dfb565b612e6481612e25565b840191505092915050565b60006020820190508181036000830152612e898184612e36565b905092915050565b600080fd5b7f4e487b7100000000000000000000000000000000000000000000000000000000600052604160045260246000fd5b612ece82612e25565b810181811067ffffffffffffffff82111715612eed57612eec612e96565b5b80604052505050565b6000612f00612be5565b9050612f0c8282612ec5565b919050565b600067ffffffffffffffff821115612f2c57612f2b612e96565b5b602082029050602081019050919050565b600080fd5b6000612f55612f5084612f11565b612ef6565b90508083825260208201905060208402830185811115612f7857612f77612f3d565b5b835b81811015612fa15780612f8d8882612c78565b845260208401935050602081019050612f7a565b5050509392505050565b600082601f830112612fc057612fbf612e91565b5b8135612fd0848260208601612f42565b91505092915050565b600080fd5b600067ffffffffffffffff821115612ff957612ff8612e96565b5b61300282612e25565b9050602081019050919050565b82818337600083830152505050565b600061303161302c84612fde565b612ef6565b90508281526020810184848401111561304d5761304c612fd9565b5b61305884828561300f565b509392505050565b600082601f83011261307557613074612e91565b5b813561308584826020860161301e565b91505092915050565b600080600080608085870312156130a8576130a7612bef565b5b60006130b687828801612c42565b945050602085013567ffffffffffffffff8111156130d7576130d6612bf4565b5b6130e387828801612fab565b935050604085013567ffffffffffffffff81111561310457613103612bf4565b5b61311087828801612fab565b925050606085013567ffffffffffffffff81111561313157613130612bf4565b5b61313d87828801613060565b91505092959194509250565b600080600080600060a0868803121561316557613164612bef565b5b600061317388828901612c42565b955050602061318488828901612c42565b945050604086013567ffffffffffffffff8111156131a5576131a4612bf4565b5b6131b188828901612fab565b935050606086013567ffffffffffffffff8111156131d2576131d1612bf4565b5b6131de88828901612fab565b925050608086013567ffffffffffffffff8111156131ff576131fe612bf4565b5b61320b88828901613060565b9150509295509295909350565b600067ffffffffffffffff82111561323357613232612e96565b5b602082029050602081019050919050565b600061325761325284613218565b612ef6565b9050808382526020820190506020840283018581111561327a57613279612f3d565b5b835b818110156132a3578061328f8882612c42565b84526020840193505060208101905061327c565b5050509392505050565b600082601f8301126132c2576132c1612e91565b5b81356132d2848260208601613244565b91505092915050565b600080604083850312156132f2576132f1612bef565b5b600083013567ffffffffffffffff8111156133105761330f612bf4565b5b61331c858286016132ad565b925050602083013567ffffffffffffffff81111561333d5761333c612bf4565b5b61334985828601612fab565b9150509250929050565b600081519050919050565b600082825260208201905092915050565b6000819050602082019050919050565b61338881612c57565b82525050565b600061339a838361337f565b60208301905092915050565b6000602082019050919050565b60006133be82613353565b6133c8818561335e565b93506133d38361336f565b8060005b838110156134045781516133eb888261338e565b97506133f6836133a6565b9250506001810190506133d7565b5085935050505092915050565b6000602082019050818103600083015261342b81846133b3565b905092915050565b60008060006060848603121561344c5761344b612bef565b5b600061345a86828701612c42565b935050602084013567ffffffffffffffff81111561347b5761347a612bf4565b5b61348786828701612fab565b925050604084013567ffffffffffffffff8111156134a8576134a7612bf4565b5b6134b486828701612fab565b9150509250925092565b600067ffffffffffffffff8211156134d9576134d8612e96565b5b6134e282612e25565b9050602081019050919050565b60006135026134fd846134be565b612ef6565b90508281526020810184848401111561351e5761351d612fd9565b5b61352984828561300f565b509392505050565b600082601f83011261354657613545612e91565b5b81356135568482602086016134ef565b91505092915050565b6000806040838503121561357657613575612bef565b5b600061358485828601612c78565b925050602083013567ffffffffffffffff8111156135a5576135a4612bf4565b5b6135b185828601613531565b9150509250929050565b6135c481612c19565b82525050565b60006020820190506135df60008301846135bb565b92915050565b6000602082840312156135fb576135fa612bef565b5b600061360984828501612c42565b91505092915050565b600061012082019050613628600083018c6135bb565b818103602083015261363a818b612e36565b9050613649604083018a612d88565b6136566060830189612ccd565b6136636080830188612ccd565b61367060a0830187612ccd565b61367d60c0830186612ccd565b61368a60e0830185612ccd565b613698610100830184612ccd565b9a9950505050505050505050565b6136af81612d7c565b81146136ba57600080fd5b50565b6000813590506136cc816136a6565b92915050565b600080604083850312156136e9576136e8612bef565b5b60006136f785828601612c42565b9250506020613708858286016136bd565b9150509250929050565b6000806040838503121561372957613728612bef565b5b600061373785828601612c42565b925050602083013567ffffffffffffffff81111561375857613757612bf4565b5b61376485828601613531565b9150509250929050565b6000806040838503121561378557613784612bef565b5b600061379385828601612c42565b92505060206137a485828601612c42565b9150509250929050565b600080600080600060a086880312156137ca576137c9612bef565b5b60006137d888828901612c42565b95505060206137e988828901612c42565b94505060406137fa88828901612c78565b935050606061380b88828901612c78565b925050608086013567ffffffffffffffff81111561382c5761382b612bf4565b5b61383888828901613060565b9150509295509295909350565b60008060006060848603121561385e5761385d612bef565b5b600061386c86828701612c42565b935050602061387d86828701612c78565b925050604061388e86828701612c78565b9150509250925092565b6138a181612c19565b82525050565b600082825260208201905092915050565b60006138c382612ddf565b6138cd81856138a7565b93506138dd818560208601612dfb565b6138e681612e25565b840191505092915050565b6138fa81612d7c565b82525050565b6000610120830160008301516139196000860182613898565b506020830151848203602086015261393182826138b8565b915050604083015161394660408601826138f1565b506060830151613959606086018261337f565b50608083015161396c608086018261337f565b5060a083015161397f60a086018261337f565b5060c083015161399260c086018261337f565b5060e08301516139a560e086018261337f565b506101008301516139ba61010086018261337f565b508091505092915050565b600060208201905081810360008301526139df8184613900565b905092915050565b7f4e487b7100000000000000000000000000000000000000000000000000000000600052602260045260246000fd5b60006002820490506001821680613a2e57607f821691505b602082108103613a4157613a406139e7565b5b50919050565b600081905092915050565b6000613a5d82612ddf565b613a678185613a47565b9350613a77818560208601612dfb565b80840191505092915050565b7f2e6a736f6e000000000000000000000000000000000000000000000000000000600082015250565b6000613ab9600583613a47565b9150613ac482613a83565b600582019050919050565b6000613adb8285613a52565b9150613ae78284613a52565b9150613af282613aac565b91508190509392505050565b6000604082019050613b1360008301856135bb565b613b2060208301846135bb565b9392505050565b6000604082019050613b3c6000830185612ccd565b613b496020830184612ccd565b9392505050565b7f4e487b7100000000000000000000000000000000000000000000000000000000600052603260045260246000fd5b60008190508160005260206000209050919050565b60006020601f8301049050919050565b600082821b905092915050565b600060088302613be17fffffffffffffffffffffffffffffffffffffffffffffffffffffffffffffffff82613ba4565b613beb8683613ba4565b95508019841693508086168417925050509392505050565b6000819050919050565b6000613c28613c23613c1e84612c57565b613c03565b612c57565b9050919050565b6000819050919050565b613c4283613c0d565b613c56613c4e82613c2f565b848454613bb1565b825550505050565b600090565b613c6b613c5e565b613c76818484613c39565b505050565b5b81811015613c9a57613c8f600082613c63565b600181019050613c7c565b5050565b601f821115613cdf57613cb081613b7f565b613cb984613b94565b81016020851015613cc8578190505b613cdc613cd485613b94565b830182613c7b565b50505b505050565b600082821c905092915050565b6000613d0260001984600802613ce4565b1980831691505092915050565b6000613d1b8383613cf1565b9150826002028217905092915050565b613d3482612ddf565b67ffffffffffffffff811115613d4d57613d4c612e96565b5b613d578254613a16565b613d62828285613c9e565b600060209050601f831160018114613d955760008415613d83578287015190505b613d8d8582613d0f565b865550613df5565b601f198416613da386613b7f565b60005b82811015613dcb57848901518255600182019150602085019450602081019050613da6565b86831015613de85784890151613de4601f891682613cf1565b8355505b6001600288020188555050505b505050505050565b7f5573657220646f6573206e6f7420657869737400000000000000000000000000600082015250565b6000613e33601383612dea565b9150613e3e82613dfd565b602082019050919050565b60006020820190508181036000830152613e6281613e26565b9050919050565b7f537562736372697074696f6e206973206e6f7420616374697665206f7220686160008201527f7320657870697265640000000000000000000000000000000000000000000000602082015250565b6000613ec5602983612dea565b9150613ed082613e69565b604082019050919050565b60006020820190508181036000830152613ef481613eb8565b9050919050565b7f4e487b7100000000000000000000000000000000000000000000000000000000600052601160045260246000fd5b6000613f3582612c57565b9150613f4083612c57565b9250828201905080821115613f5857613f57613efb565b5b92915050565b7f6d6f6e74686c7900000000000000000000000000000000000000000000000000600082015250565b6000613f94600783613a47565b9150613f9f82613f5e565b600782019050919050565b6000613fb582613f87565b9150819050919050565b6000613fcb8284613a52565b915081905092915050565b7f796561726c790000000000000000000000000000000000000000000000000000600082015250565b600061400c600683613a47565b915061401782613fd6565b600682019050919050565b600061402d82613fff565b9150819050919050565b7f496e76616c696420737562736372697074696f6e207479706500000000000000600082015250565b600061406d601983612dea565b915061407882614037565b602082019050919050565b6000602082019050818103600083015261409c81614060565b9050919050565b7f496e73756666696369656e74207061796d656e7420666f72207375627363726960008201527f7074696f6e000000000000000000000000000000000000000000000000000000602082015250565b60006140ff602583612dea565b915061410a826140a3565b604082019050919050565b6000602082019050818103600083015261412e816140f2565b9050919050565b600061414082612c57565b915061414b83612c57565b925082820390508181111561416357614162613efb565b5b92915050565b6000815461417681613a16565b6141808186613a47565b9450600182166000811461419b57600181146141b0576141e3565b60ff19831686528115158202860193506141e3565b6141b985613b7f565b60005b838110156141db578154818901526001820191506020810190506141bc565b838801955050505b50505092915050565b60006141f88284614169565b915081905092915050565b7f4e487b7100000000000000000000000000000000000000000000000000000000600052601260045260246000fd5b600060808201905061424760008301876135bb565b6142546020830186612ccd565b6142616040830185612ccd565b61426e6060830184612ccd565b95945050505050565b6000604082019050818103600083015261429181856133b3565b905081810360208301526142a581846133b3565b90509392505050565b600081519050919050565b600082825260208201905092915050565b60006142d5826142ae565b6142df81856142b9565b93506142ef818560208601612dfb565b6142f881612e25565b840191505092915050565b600060a08201905061431860008301886135bb565b61432560208301876135bb565b6143326040830186612ccd565b61433f6060830185612ccd565b818103608083015261435181846142ca565b90509695505050505050565b60008151905061436c81612d23565b92915050565b60006020828403121561438857614387612bef565b5b60006143968482850161435d565b91505092915050565b600060a0820190506143b460008301886135bb565b6143c160208301876135bb565b81810360408301526143d381866133b3565b905081810360608301526143e781856133b3565b905081810360808301526143fb81846142ca565b9050969550505050505056fea26469706673582212201e293f2dede7b25d3409c1ab7be14bdf08b67d2ce7f32e3d19e536b9fca976f864736f6c63430008160033697066733a2f2f6261666b7265696866747371766f34776736626766376e35637333363634776235626d3672337772737135333768367866347574346e7871646f69697066733a2f2f6261666b72656961766f617275376477356b6f70377965746f7a637032787073787a65367061716862776f63716872356c6f76366f687564686165","opcodes":"PUSH1 0x80 PUSH1 0x40 MSTORE CALLVALUE DUP1 ISZERO PUSH3 0x11 JUMPI PUSH1 0x0 DUP1 REVERT JUMPDEST POP PUSH1 0x40 MLOAD PUSH3 0x4B39 CODESIZE SUB DUP1 PUSH3 0x4B39 DUP4 CODECOPY DUP2 DUP2 ADD PUSH1 0x40 MSTORE DUP2 ADD SWAP1 PUSH3 0x37 SWAP2 SWAP1 PUSH3 0x2A7 JUMP JUMPDEST DUP1 PUSH1 0x40 MLOAD DUP1 PUSH1 0x20 ADD PUSH1 0x40 MSTORE DUP1 PUSH1 0x0 DUP2 MSTORE POP PUSH3 0x59 DUP2 PUSH3 0x162 PUSH1 0x20 SHL PUSH1 0x20 SHR JUMP JUMPDEST POP PUSH1 0x0 PUSH20 0xFFFFFFFFFFFFFFFFFFFFFFFFFFFFFFFFFFFFFFFF AND DUP2 PUSH20 0xFFFFFFFFFFFFFFFFFFFFFFFFFFFFFFFFFFFFFFFF AND SUB PUSH3 0xCF JUMPI PUSH1 0x0 PUSH1 0x40 MLOAD PUSH32 0x1E4FBDF700000000000000000000000000000000000000000000000000000000 DUP2 MSTORE PUSH1 0x4 ADD PUSH3 0xC6 SWAP2 SWAP1 PUSH3 0x2EA JUMP JUMPDEST PUSH1 0x40 MLOAD DUP1 SWAP2 SUB SWAP1 REVERT JUMPDEST PUSH3 0xE0 DUP2 PUSH3 0x177 PUSH1 0x20 SHL PUSH1 0x20 SHR JUMP JUMPDEST POP PUSH1 0x40 MLOAD DUP1 PUSH1 0x80 ADD PUSH1 0x40 MSTORE DUP1 PUSH1 0x42 DUP2 MSTORE PUSH1 0x20 ADD PUSH3 0x4AB5 PUSH1 0x42 SWAP2 CODECOPY PUSH1 0x5 PUSH1 0x0 PUSH1 0x1 DUP2 MSTORE PUSH1 0x20 ADD SWAP1 DUP2 MSTORE PUSH1 0x20 ADD PUSH1 0x0 KECCAK256 SWAP1 DUP2 PUSH3 0x11D SWAP2 SWAP1 PUSH3 0x581 JUMP JUMPDEST POP PUSH1 0x40 MLOAD DUP1 PUSH1 0x80 ADD PUSH1 0x40 MSTORE DUP1 PUSH1 0x42 DUP2 MSTORE PUSH1 0x20 ADD PUSH3 0x4AF7 PUSH1 0x42 SWAP2 CODECOPY PUSH1 0x5 PUSH1 0x0 PUSH1 0x2 DUP2 MSTORE PUSH1 0x20 ADD SWAP1 DUP2 MSTORE PUSH1 0x20 ADD PUSH1 0x0 KECCAK256 SWAP1 DUP2 PUSH3 0x15A SWAP2 SWAP1 PUSH3 0x581 JUMP JUMPDEST POP POP PUSH3 0x668 JUMP JUMPDEST DUP1 PUSH1 0x2 SWAP1 DUP2 PUSH3 0x173 SWAP2 SWAP1 PUSH3 0x581 JUMP JUMPDEST POP POP JUMP JUMPDEST PUSH1 0x0 PUSH1 0x3 PUSH1 0x0 SWAP1 SLOAD SWAP1 PUSH2 0x100 EXP SWAP1 DIV PUSH20 0xFFFFFFFFFFFFFFFFFFFFFFFFFFFFFFFFFFFFFFFF AND SWAP1 POP DUP2 PUSH1 0x3 PUSH1 0x0 PUSH2 0x100 EXP DUP2 SLOAD DUP2 PUSH20 0xFFFFFFFFFFFFFFFFFFFFFFFFFFFFFFFFFFFFFFFF MUL NOT AND SWAP1 DUP4 PUSH20 0xFFFFFFFFFFFFFFFFFFFFFFFFFFFFFFFFFFFFFFFF AND MUL OR SWAP1 SSTORE POP DUP2 PUSH20 0xFFFFFFFFFFFFFFFFFFFFFFFFFFFFFFFFFFFFFFFF AND DUP2 PUSH20 0xFFFFFFFFFFFFFFFFFFFFFFFFFFFFFFFFFFFFFFFF AND PUSH32 0x8BE0079C531659141344CD1FD0A4F28419497F9722A3DAAFE3B4186F6B6457E0 PUSH1 0x40 MLOAD PUSH1 0x40 MLOAD DUP1 SWAP2 SUB SWAP1 LOG3 POP POP JUMP JUMPDEST PUSH1 0x0 DUP1 REVERT JUMPDEST PUSH1 0x0 PUSH20 0xFFFFFFFFFFFFFFFFFFFFFFFFFFFFFFFFFFFFFFFF DUP3 AND SWAP1 POP SWAP2 SWAP1 POP JUMP JUMPDEST PUSH1 0x0 PUSH3 0x26F DUP3 PUSH3 0x242 JUMP JUMPDEST SWAP1 POP SWAP2 SWAP1 POP JUMP JUMPDEST PUSH3 0x281 DUP2 PUSH3 0x262 JUMP JUMPDEST DUP2 EQ PUSH3 0x28D JUMPI PUSH1 0x0 DUP1 REVERT JUMPDEST POP JUMP JUMPDEST PUSH1 0x0 DUP2 MLOAD SWAP1 POP PUSH3 0x2A1 DUP2 PUSH3 0x276 JUMP JUMPDEST SWAP3 SWAP2 POP POP JUMP JUMPDEST PUSH1 0x0 PUSH1 0x20 DUP3 DUP5 SUB SLT ISZERO PUSH3 0x2C0 JUMPI PUSH3 0x2BF PUSH3 0x23D JUMP JUMPDEST JUMPDEST PUSH1 0x0 PUSH3 0x2D0 DUP5 DUP3 DUP6 ADD PUSH3 0x290 JUMP JUMPDEST SWAP2 POP POP SWAP3 SWAP2 POP POP JUMP JUMPDEST PUSH3 0x2E4 DUP2 PUSH3 0x262 JUMP JUMPDEST DUP3 MSTORE POP POP JUMP JUMPDEST PUSH1 0x0 PUSH1 0x20 DUP3 ADD SWAP1 POP PUSH3 0x301 PUSH1 0x0 DUP4 ADD DUP5 PUSH3 0x2D9 JUMP JUMPDEST SWAP3 SWAP2 POP POP JUMP JUMPDEST PUSH1 0x0 DUP2 MLOAD SWAP1 POP SWAP2 SWAP1 POP JUMP JUMPDEST PUSH32 0x4E487B7100000000000000000000000000000000000000000000000000000000 PUSH1 0x0 MSTORE PUSH1 0x41 PUSH1 0x4 MSTORE PUSH1 0x24 PUSH1 0x0 REVERT JUMPDEST PUSH32 0x4E487B7100000000000000000000000000000000000000000000000000000000 PUSH1 0x0 MSTORE PUSH1 0x22 PUSH1 0x4 MSTORE PUSH1 0x24 PUSH1 0x0 REVERT JUMPDEST PUSH1 0x0 PUSH1 0x2 DUP3 DIV SWAP1 POP PUSH1 0x1 DUP3 AND DUP1 PUSH3 0x389 JUMPI PUSH1 0x7F DUP3 AND SWAP2 POP JUMPDEST PUSH1 0x20 DUP3 LT DUP2 SUB PUSH3 0x39F JUMPI PUSH3 0x39E PUSH3 0x341 JUMP JUMPDEST JUMPDEST POP SWAP2 SWAP1 POP JUMP JUMPDEST PUSH1 0x0 DUP2 SWAP1 POP DUP2 PUSH1 0x0 MSTORE PUSH1 0x20 PUSH1 0x0 KECCAK256 SWAP1 POP SWAP2 SWAP1 POP JUMP JUMPDEST PUSH1 0x0 PUSH1 0x20 PUSH1 0x1F DUP4 ADD DIV SWAP1 POP SWAP2 SWAP1 POP JUMP JUMPDEST PUSH1 0x0 DUP3 DUP3 SHL SWAP1 POP SWAP3 SWAP2 POP POP JUMP JUMPDEST PUSH1 0x0 PUSH1 0x8 DUP4 MUL PUSH3 0x409 PUSH32 0xFFFFFFFFFFFFFFFFFFFFFFFFFFFFFFFFFFFFFFFFFFFFFFFFFFFFFFFFFFFFFFFF DUP3 PUSH3 0x3CA JUMP JUMPDEST PUSH3 0x415 DUP7 DUP4 PUSH3 0x3CA JUMP JUMPDEST SWAP6 POP DUP1 NOT DUP5 AND SWAP4 POP DUP1 DUP7 AND DUP5 OR SWAP3 POP POP POP SWAP4 SWAP3 POP POP POP JUMP JUMPDEST PUSH1 0x0 DUP2 SWAP1 POP SWAP2 SWAP1 POP JUMP JUMPDEST PUSH1 0x0 DUP2 SWAP1 POP SWAP2 SWAP1 POP JUMP JUMPDEST PUSH1 0x0 PUSH3 0x462 PUSH3 0x45C PUSH3 0x456 DUP5 PUSH3 0x42D JUMP JUMPDEST PUSH3 0x437 JUMP JUMPDEST PUSH3 0x42D JUMP JUMPDEST SWAP1 POP SWAP2 SWAP1 POP JUMP JUMPDEST PUSH1 0x0 DUP2 SWAP1 POP SWAP2 SWAP1 POP JUMP JUMPDEST PUSH3 0x47E DUP4 PUSH3 0x441 JUMP JUMPDEST PUSH3 0x496 PUSH3 0x48D DUP3 PUSH3 0x469 JUMP JUMPDEST DUP5 DUP5 SLOAD PUSH3 0x3D7 JUMP JUMPDEST DUP3 SSTORE POP POP POP POP JUMP JUMPDEST PUSH1 0x0 SWAP1 JUMP JUMPDEST PUSH3 0x4AD PUSH3 0x49E JUMP JUMPDEST PUSH3 0x4BA DUP2 DUP5 DUP5 PUSH3 0x473 JUMP JUMPDEST POP POP POP JUMP JUMPDEST JUMPDEST DUP2 DUP2 LT ISZERO PUSH3 0x4E2 JUMPI PUSH3 0x4D6 PUSH1 0x0 DUP3 PUSH3 0x4A3 JUMP JUMPDEST PUSH1 0x1 DUP2 ADD SWAP1 POP PUSH3 0x4C0 JUMP JUMPDEST POP POP JUMP JUMPDEST PUSH1 0x1F DUP3 GT ISZERO PUSH3 0x531 JUMPI PUSH3 0x4FB DUP2 PUSH3 0x3A5 JUMP JUMPDEST PUSH3 0x506 DUP5 PUSH3 0x3BA JUMP JUMPDEST DUP2 ADD PUSH1 0x20 DUP6 LT ISZERO PUSH3 0x516 JUMPI DUP2 SWAP1 POP JUMPDEST PUSH3 0x52E PUSH3 0x525 DUP6 PUSH3 0x3BA JUMP JUMPDEST DUP4 ADD DUP3 PUSH3 0x4BF JUMP JUMPDEST POP POP JUMPDEST POP POP POP JUMP JUMPDEST PUSH1 0x0 DUP3 DUP3 SHR SWAP1 POP SWAP3 SWAP2 POP POP JUMP JUMPDEST PUSH1 0x0 PUSH3 0x556 PUSH1 0x0 NOT DUP5 PUSH1 0x8 MUL PUSH3 0x536 JUMP JUMPDEST NOT DUP1 DUP4 AND SWAP2 POP POP SWAP3 SWAP2 POP POP JUMP JUMPDEST PUSH1 0x0 PUSH3 0x571 DUP4 DUP4 PUSH3 0x543 JUMP JUMPDEST SWAP2 POP DUP3 PUSH1 0x2 MUL DUP3 OR SWAP1 POP SWAP3 SWAP2 POP POP JUMP JUMPDEST PUSH3 0x58C DUP3 PUSH3 0x307 JUMP JUMPDEST PUSH8 0xFFFFFFFFFFFFFFFF DUP2 GT ISZERO PUSH3 0x5A8 JUMPI PUSH3 0x5A7 PUSH3 0x312 JUMP JUMPDEST JUMPDEST PUSH3 0x5B4 DUP3 SLOAD PUSH3 0x370 JUMP JUMPDEST PUSH3 0x5C1 DUP3 DUP3 DUP6 PUSH3 0x4E6 JUMP JUMPDEST PUSH1 0x0 PUSH1 0x20 SWAP1 POP PUSH1 0x1F DUP4 GT PUSH1 0x1 DUP2 EQ PUSH3 0x5F9 JUMPI PUSH1 0x0 DUP5 ISZERO PUSH3 0x5E4 JUMPI DUP3 DUP8 ADD MLOAD SWAP1 POP JUMPDEST PUSH3 0x5F0 DUP6 DUP3 PUSH3 0x563 JUMP JUMPDEST DUP7 SSTORE POP PUSH3 0x660 JUMP JUMPDEST PUSH1 0x1F NOT DUP5 AND PUSH3 0x609 DUP7 PUSH3 0x3A5 JUMP JUMPDEST PUSH1 0x0 JUMPDEST DUP3 DUP2 LT ISZERO PUSH3 0x633 JUMPI DUP5 DUP10 ADD MLOAD DUP3 SSTORE PUSH1 0x1 DUP3 ADD SWAP2 POP PUSH1 0x20 DUP6 ADD SWAP5 POP PUSH1 0x20 DUP2 ADD SWAP1 POP PUSH3 0x60C JUMP JUMPDEST DUP7 DUP4 LT ISZERO PUSH3 0x653 JUMPI DUP5 DUP10 ADD MLOAD PUSH3 0x64F PUSH1 0x1F DUP10 AND DUP3 PUSH3 0x543 JUMP JUMPDEST DUP4 SSTORE POP JUMPDEST PUSH1 0x1 PUSH1 0x2 DUP9 MUL ADD DUP9 SSTORE POP POP POP JUMPDEST POP POP POP POP POP POP JUMP JUMPDEST PUSH2 0x443D DUP1 PUSH3 0x678 PUSH1 0x0 CODECOPY PUSH1 0x0 RETURN INVALID PUSH1 0x80 PUSH1 0x40 MSTORE PUSH1 0x4 CALLDATASIZE LT PUSH2 0x11E JUMPI PUSH1 0x0 CALLDATALOAD PUSH1 0xE0 SHR DUP1 PUSH4 0x99B956A0 GT PUSH2 0xA0 JUMPI DUP1 PUSH4 0xE985E9C5 GT PUSH2 0x64 JUMPI DUP1 PUSH4 0xE985E9C5 EQ PUSH2 0x3ED JUMPI DUP1 PUSH4 0xF242432A EQ PUSH2 0x42A JUMPI DUP1 PUSH4 0xF2FDE38B EQ PUSH2 0x453 JUMPI DUP1 PUSH4 0xF5298ACA EQ PUSH2 0x47C JUMPI DUP1 PUSH4 0xFFC9896B EQ PUSH2 0x4A5 JUMPI PUSH2 0x11E JUMP JUMPDEST DUP1 PUSH4 0x99B956A0 EQ PUSH2 0x2FD JUMPI DUP1 PUSH4 0xA22CB465 EQ PUSH2 0x342 JUMPI DUP1 PUSH4 0xD44F9084 EQ PUSH2 0x36B JUMPI DUP1 PUSH4 0xD4555A6C EQ PUSH2 0x394 JUMPI DUP1 PUSH4 0xE231A224 EQ PUSH2 0x3B0 JUMPI PUSH2 0x11E JUMP JUMPDEST DUP1 PUSH4 0x4E1273F4 GT PUSH2 0xE7 JUMPI DUP1 PUSH4 0x4E1273F4 EQ PUSH2 0x22C JUMPI DUP1 PUSH4 0x6B20C454 EQ PUSH2 0x269 JUMPI DUP1 PUSH4 0x715018A6 EQ PUSH2 0x292 JUMPI DUP1 PUSH4 0x862440E2 EQ PUSH2 0x2A9 JUMPI DUP1 PUSH4 0x8DA5CB5B EQ PUSH2 0x2D2 JUMPI PUSH2 0x11E JUMP JUMPDEST DUP1 PUSH3 0xFDD58E EQ PUSH2 0x123 JUMPI DUP1 PUSH4 0x1FFC9A7 EQ PUSH2 0x160 JUMPI DUP1 PUSH4 0xE89341C EQ PUSH2 0x19D JUMPI DUP1 PUSH4 0x1F7FDFFA EQ PUSH2 0x1DA JUMPI DUP1 PUSH4 0x2EB2C2D6 EQ PUSH2 0x203 JUMPI JUMPDEST PUSH1 0x0 DUP1 REVERT JUMPDEST CALLVALUE DUP1 ISZERO PUSH2 0x12F JUMPI PUSH1 0x0 DUP1 REVERT JUMPDEST POP PUSH2 0x14A PUSH1 0x4 DUP1 CALLDATASIZE SUB DUP2 ADD SWAP1 PUSH2 0x145 SWAP2 SWAP1 PUSH2 0x2C8D JUMP JUMPDEST PUSH2 0x4E2 JUMP JUMPDEST PUSH1 0x40 MLOAD PUSH2 0x157 SWAP2 SWAP1 PUSH2 0x2CDC JUMP JUMPDEST PUSH1 0x40 MLOAD DUP1 SWAP2 SUB SWAP1 RETURN JUMPDEST CALLVALUE DUP1 ISZERO PUSH2 0x16C JUMPI PUSH1 0x0 DUP1 REVERT JUMPDEST POP PUSH2 0x187 PUSH1 0x4 DUP1 CALLDATASIZE SUB DUP2 ADD SWAP1 PUSH2 0x182 SWAP2 SWAP1 PUSH2 0x2D4F JUMP JUMPDEST PUSH2 0x53C JUMP JUMPDEST PUSH1 0x40 MLOAD PUSH2 0x194 SWAP2 SWAP1 PUSH2 0x2D97 JUMP JUMPDEST PUSH1 0x40 MLOAD DUP1 SWAP2 SUB SWAP1 RETURN JUMPDEST CALLVALUE DUP1 ISZERO PUSH2 0x1A9 JUMPI PUSH1 0x0 DUP1 REVERT JUMPDEST POP PUSH2 0x1C4 PUSH1 0x4 DUP1 CALLDATASIZE SUB DUP2 ADD SWAP1 PUSH2 0x1BF SWAP2 SWAP1 PUSH2 0x2DB2 JUMP JUMPDEST PUSH2 0x61E JUMP JUMPDEST PUSH1 0x40 MLOAD PUSH2 0x1D1 SWAP2 SWAP1 PUSH2 0x2E6F JUMP JUMPDEST PUSH1 0x40 MLOAD DUP1 SWAP2 SUB SWAP1 RETURN JUMPDEST CALLVALUE DUP1 ISZERO PUSH2 0x1E6 JUMPI PUSH1 0x0 DUP1 REVERT JUMPDEST POP PUSH2 0x201 PUSH1 0x4 DUP1 CALLDATASIZE SUB DUP2 ADD SWAP1 PUSH2 0x1FC SWAP2 SWAP1 PUSH2 0x308E JUMP JUMPDEST PUSH2 0x70E JUMP JUMPDEST STOP JUMPDEST CALLVALUE DUP1 ISZERO PUSH2 0x20F JUMPI PUSH1 0x0 DUP1 REVERT JUMPDEST POP PUSH2 0x22A PUSH1 0x4 DUP1 CALLDATASIZE SUB DUP2 ADD SWAP1 PUSH2 0x225 SWAP2 SWAP1 PUSH2 0x3149 JUMP JUMPDEST PUSH2 0x728 JUMP JUMPDEST STOP JUMPDEST CALLVALUE DUP1 ISZERO PUSH2 0x238 JUMPI PUSH1 0x0 DUP1 REVERT JUMPDEST POP PUSH2 0x253 PUSH1 0x4 DUP1 CALLDATASIZE SUB DUP2 ADD SWAP1 PUSH2 0x24E SWAP2 SWAP1 PUSH2 0x32DB JUMP JUMPDEST PUSH2 0x7D0 JUMP JUMPDEST PUSH1 0x40 MLOAD PUSH2 0x260 SWAP2 SWAP1 PUSH2 0x3411 JUMP JUMPDEST PUSH1 0x40 MLOAD DUP1 SWAP2 SUB SWAP1 RETURN JUMPDEST CALLVALUE DUP1 ISZERO PUSH2 0x275 JUMPI PUSH1 0x0 DUP1 REVERT JUMPDEST POP PUSH2 0x290 PUSH1 0x4 DUP1 CALLDATASIZE SUB DUP2 ADD SWAP1 PUSH2 0x28B SWAP2 SWAP1 PUSH2 0x3433 JUMP JUMPDEST PUSH2 0x8D9 JUMP JUMPDEST STOP JUMPDEST CALLVALUE DUP1 ISZERO PUSH2 0x29E JUMPI PUSH1 0x0 DUP1 REVERT JUMPDEST POP PUSH2 0x2A7 PUSH2 0x985 JUMP JUMPDEST STOP JUMPDEST CALLVALUE DUP1 ISZERO PUSH2 0x2B5 JUMPI PUSH1 0x0 DUP1 REVERT JUMPDEST POP PUSH2 0x2D0 PUSH1 0x4 DUP1 CALLDATASIZE SUB DUP2 ADD SWAP1 PUSH2 0x2CB SWAP2 SWAP1 PUSH2 0x355F JUMP JUMPDEST PUSH2 0x999 JUMP JUMPDEST STOP JUMPDEST CALLVALUE DUP1 ISZERO PUSH2 0x2DE JUMPI PUSH1 0x0 DUP1 REVERT JUMPDEST POP PUSH2 0x2E7 PUSH2 0x9C6 JUMP JUMPDEST PUSH1 0x40 MLOAD PUSH2 0x2F4 SWAP2 SWAP1 PUSH2 0x35CA JUMP JUMPDEST PUSH1 0x40 MLOAD DUP1 SWAP2 SUB SWAP1 RETURN JUMPDEST CALLVALUE DUP1 ISZERO PUSH2 0x309 JUMPI PUSH1 0x0 DUP1 REVERT JUMPDEST POP PUSH2 0x324 PUSH1 0x4 DUP1 CALLDATASIZE SUB DUP2 ADD SWAP1 PUSH2 0x31F SWAP2 SWAP1 PUSH2 0x35E5 JUMP JUMPDEST PUSH2 0x9F0 JUMP JUMPDEST PUSH1 0x40 MLOAD PUSH2 0x339 SWAP10 SWAP9 SWAP8 SWAP7 SWAP6 SWAP5 SWAP4 SWAP3 SWAP2 SWAP1 PUSH2 0x3612 JUMP JUMPDEST PUSH1 0x40 MLOAD DUP1 SWAP2 SUB SWAP1 RETURN JUMPDEST CALLVALUE DUP1 ISZERO PUSH2 0x34E JUMPI PUSH1 0x0 DUP1 REVERT JUMPDEST POP PUSH2 0x369 PUSH1 0x4 DUP1 CALLDATASIZE SUB DUP2 ADD SWAP1 PUSH2 0x364 SWAP2 SWAP1 PUSH2 0x36D2 JUMP JUMPDEST PUSH2 0xAF3 JUMP JUMPDEST STOP JUMPDEST CALLVALUE DUP1 ISZERO PUSH2 0x377 JUMPI PUSH1 0x0 DUP1 REVERT JUMPDEST POP PUSH2 0x392 PUSH1 0x4 DUP1 CALLDATASIZE SUB DUP2 ADD SWAP1 PUSH2 0x38D SWAP2 SWAP1 PUSH2 0x35E5 JUMP JUMPDEST PUSH2 0xB09 JUMP JUMPDEST STOP JUMPDEST PUSH2 0x3AE PUSH1 0x4 DUP1 CALLDATASIZE SUB DUP2 ADD SWAP1 PUSH2 0x3A9 SWAP2 SWAP1 PUSH2 0x3712 JUMP JUMPDEST PUSH2 0xD9B JUMP JUMPDEST STOP JUMPDEST CALLVALUE DUP1 ISZERO PUSH2 0x3BC JUMPI PUSH1 0x0 DUP1 REVERT JUMPDEST POP PUSH2 0x3D7 PUSH1 0x4 DUP1 CALLDATASIZE SUB DUP2 ADD SWAP1 PUSH2 0x3D2 SWAP2 SWAP1 PUSH2 0x35E5 JUMP JUMPDEST PUSH2 0x11AE JUMP JUMPDEST PUSH1 0x40 MLOAD PUSH2 0x3E4 SWAP2 SWAP1 PUSH2 0x2D97 JUMP JUMPDEST PUSH1 0x40 MLOAD DUP1 SWAP2 SUB SWAP1 RETURN JUMPDEST CALLVALUE DUP1 ISZERO PUSH2 0x3F9 JUMPI PUSH1 0x0 DUP1 REVERT JUMPDEST POP PUSH2 0x414 PUSH1 0x4 DUP1 CALLDATASIZE SUB DUP2 ADD SWAP1 PUSH2 0x40F SWAP2 SWAP1 PUSH2 0x376E JUMP JUMPDEST PUSH2 0x151F JUMP JUMPDEST PUSH1 0x40 MLOAD PUSH2 0x421 SWAP2 SWAP1 PUSH2 0x2D97 JUMP JUMPDEST PUSH1 0x40 MLOAD DUP1 SWAP2 SUB SWAP1 RETURN JUMPDEST CALLVALUE DUP1 ISZERO PUSH2 0x436 JUMPI PUSH1 0x0 DUP1 REVERT JUMPDEST POP PUSH2 0x451 PUSH1 0x4 DUP1 CALLDATASIZE SUB DUP2 ADD SWAP1 PUSH2 0x44C SWAP2 SWAP1 PUSH2 0x37AE JUMP JUMPDEST PUSH2 0x15B3 JUMP JUMPDEST STOP JUMPDEST CALLVALUE DUP1 ISZERO PUSH2 0x45F JUMPI PUSH1 0x0 DUP1 REVERT JUMPDEST POP PUSH2 0x47A PUSH1 0x4 DUP1 CALLDATASIZE SUB DUP2 ADD SWAP1 PUSH2 0x475 SWAP2 SWAP1 PUSH2 0x35E5 JUMP JUMPDEST PUSH2 0x165B JUMP JUMPDEST STOP JUMPDEST CALLVALUE DUP1 ISZERO PUSH2 0x488 JUMPI PUSH1 0x0 DUP1 REVERT JUMPDEST POP PUSH2 0x4A3 PUSH1 0x4 DUP1 CALLDATASIZE SUB DUP2 ADD SWAP1 PUSH2 0x49E SWAP2 SWAP1 PUSH2 0x3845 JUMP JUMPDEST PUSH2 0x16E1 JUMP JUMPDEST STOP JUMPDEST CALLVALUE DUP1 ISZERO PUSH2 0x4B1 JUMPI PUSH1 0x0 DUP1 REVERT JUMPDEST POP PUSH2 0x4CC PUSH1 0x4 DUP1 CALLDATASIZE SUB DUP2 ADD SWAP1 PUSH2 0x4C7 SWAP2 SWAP1 PUSH2 0x35E5 JUMP JUMPDEST PUSH2 0x178D JUMP JUMPDEST PUSH1 0x40 MLOAD PUSH2 0x4D9 SWAP2 SWAP1 PUSH2 0x39C5 JUMP JUMPDEST PUSH1 0x40 MLOAD DUP1 SWAP2 SUB SWAP1 RETURN JUMPDEST PUSH1 0x0 DUP1 PUSH1 0x0 DUP4 DUP2 MSTORE PUSH1 0x20 ADD SWAP1 DUP2 MSTORE PUSH1 0x20 ADD PUSH1 0x0 KECCAK256 PUSH1 0x0 DUP5 PUSH20 0xFFFFFFFFFFFFFFFFFFFFFFFFFFFFFFFFFFFFFFFF AND PUSH20 0xFFFFFFFFFFFFFFFFFFFFFFFFFFFFFFFFFFFFFFFF AND DUP2 MSTORE PUSH1 0x20 ADD SWAP1 DUP2 MSTORE PUSH1 0x20 ADD PUSH1 0x0 KECCAK256 SLOAD SWAP1 POP SWAP3 SWAP2 POP POP JUMP JUMPDEST PUSH1 0x0 PUSH32 0xD9B67A2600000000000000000000000000000000000000000000000000000000 PUSH28 0xFFFFFFFFFFFFFFFFFFFFFFFFFFFFFFFFFFFFFFFFFFFFFFFFFFFFFFFF NOT AND DUP3 PUSH28 0xFFFFFFFFFFFFFFFFFFFFFFFFFFFFFFFFFFFFFFFFFFFFFFFFFFFFFFFF NOT AND EQ DUP1 PUSH2 0x607 JUMPI POP PUSH32 0xE89341C00000000000000000000000000000000000000000000000000000000 PUSH28 0xFFFFFFFFFFFFFFFFFFFFFFFFFFFFFFFFFFFFFFFFFFFFFFFFFFFFFFFF NOT AND DUP3 PUSH28 0xFFFFFFFFFFFFFFFFFFFFFFFFFFFFFFFFFFFFFFFFFFFFFFFFFFFFFFFF NOT AND EQ JUMPDEST DUP1 PUSH2 0x617 JUMPI POP PUSH2 0x616 DUP3 PUSH2 0x1926 JUMP JUMPDEST JUMPDEST SWAP1 POP SWAP2 SWAP1 POP JUMP JUMPDEST PUSH1 0x60 PUSH1 0x0 PUSH1 0x5 PUSH1 0x0 DUP5 DUP2 MSTORE PUSH1 0x20 ADD SWAP1 DUP2 MSTORE PUSH1 0x20 ADD PUSH1 0x0 KECCAK256 DUP1 SLOAD PUSH2 0x640 SWAP1 PUSH2 0x3A16 JUMP JUMPDEST DUP1 PUSH1 0x1F ADD PUSH1 0x20 DUP1 SWAP2 DIV MUL PUSH1 0x20 ADD PUSH1 0x40 MLOAD SWAP1 DUP2 ADD PUSH1 0x40 MSTORE DUP1 SWAP3 SWAP2 SWAP1 DUP2 DUP2 MSTORE PUSH1 0x20 ADD DUP3 DUP1 SLOAD PUSH2 0x66C SWAP1 PUSH2 0x3A16 JUMP JUMPDEST DUP1 ISZERO PUSH2 0x6B9 JUMPI DUP1 PUSH1 0x1F LT PUSH2 0x68E JUMPI PUSH2 0x100 DUP1 DUP4 SLOAD DIV MUL DUP4 MSTORE SWAP2 PUSH1 0x20 ADD SWAP2 PUSH2 0x6B9 JUMP JUMPDEST DUP3 ADD SWAP2 SWAP1 PUSH1 0x0 MSTORE PUSH1 0x20 PUSH1 0x0 KECCAK256 SWAP1 JUMPDEST DUP2 SLOAD DUP2 MSTORE SWAP1 PUSH1 0x1 ADD SWAP1 PUSH1 0x20 ADD DUP1 DUP4 GT PUSH2 0x69C JUMPI DUP3 SWAP1 SUB PUSH1 0x1F AND DUP3 ADD SWAP2 JUMPDEST POP POP POP POP POP SWAP1 POP PUSH1 0x0 DUP2 MLOAD GT ISZERO PUSH2 0x6D3 JUMPI DUP1 SWAP2 POP POP PUSH2 0x709 JUMP JUMPDEST PUSH2 0x6DC DUP4 PUSH2 0x1990 JUMP JUMPDEST PUSH2 0x6E5 DUP5 PUSH2 0x1A24 JUMP JUMPDEST PUSH1 0x40 MLOAD PUSH1 0x20 ADD PUSH2 0x6F6 SWAP3 SWAP2 SWAP1 PUSH2 0x3ACF JUMP JUMPDEST PUSH1 0x40 MLOAD PUSH1 0x20 DUP2 DUP4 SUB SUB DUP2 MSTORE SWAP1 PUSH1 0x40 MSTORE SWAP2 POP POP JUMPDEST SWAP2 SWAP1 POP JUMP JUMPDEST PUSH2 0x716 PUSH2 0x1AF2 JUMP JUMPDEST PUSH2 0x722 DUP5 DUP5 DUP5 DUP5 PUSH2 0x1B79 JUMP JUMPDEST POP POP POP POP JUMP JUMPDEST PUSH1 0x0 PUSH2 0x732 PUSH2 0x1BFF JUMP JUMPDEST SWAP1 POP DUP1 PUSH20 0xFFFFFFFFFFFFFFFFFFFFFFFFFFFFFFFFFFFFFFFF AND DUP7 PUSH20 0xFFFFFFFFFFFFFFFFFFFFFFFFFFFFFFFFFFFFFFFF AND EQ ISZERO DUP1 ISZERO PUSH2 0x777 JUMPI POP PUSH2 0x775 DUP7 DUP3 PUSH2 0x151F JUMP JUMPDEST ISZERO JUMPDEST ISZERO PUSH2 0x7BB JUMPI DUP1 DUP7 PUSH1 0x40 MLOAD PUSH32 0xE237D92200000000000000000000000000000000000000000000000000000000 DUP2 MSTORE PUSH1 0x4 ADD PUSH2 0x7B2 SWAP3 SWAP2 SWAP1 PUSH2 0x3AFE JUMP JUMPDEST PUSH1 0x40 MLOAD DUP1 SWAP2 SUB SWAP1 REVERT JUMPDEST PUSH2 0x7C8 DUP7 DUP7 DUP7 DUP7 DUP7 PUSH2 0x1C07 JUMP JUMPDEST POP POP POP POP POP POP JUMP JUMPDEST PUSH1 0x60 DUP2 MLOAD DUP4 MLOAD EQ PUSH2 0x81C JUMPI DUP2 MLOAD DUP4 MLOAD PUSH1 0x40 MLOAD PUSH32 0x5B05999100000000000000000000000000000000000000000000000000000000 DUP2 MSTORE PUSH1 0x4 ADD PUSH2 0x813 SWAP3 SWAP2 SWAP1 PUSH2 0x3B27 JUMP JUMPDEST PUSH1 0x40 MLOAD DUP1 SWAP2 SUB SWAP1 REVERT JUMPDEST PUSH1 0x0 DUP4 MLOAD PUSH8 0xFFFFFFFFFFFFFFFF DUP2 GT ISZERO PUSH2 0x839 JUMPI PUSH2 0x838 PUSH2 0x2E96 JUMP JUMPDEST JUMPDEST PUSH1 0x40 MLOAD SWAP1 DUP1 DUP3 MSTORE DUP1 PUSH1 0x20 MUL PUSH1 0x20 ADD DUP3 ADD PUSH1 0x40 MSTORE DUP1 ISZERO PUSH2 0x867 JUMPI DUP2 PUSH1 0x20 ADD PUSH1 0x20 DUP3 MUL DUP1 CALLDATASIZE DUP4 CALLDATACOPY DUP1 DUP3 ADD SWAP2 POP POP SWAP1 POP JUMPDEST POP SWAP1 POP PUSH1 0x0 JUMPDEST DUP5 MLOAD DUP2 LT ISZERO PUSH2 0x8CE JUMPI PUSH2 0x8A4 PUSH2 0x88C DUP3 DUP8 PUSH2 0x1CFF SWAP1 SWAP2 SWAP1 PUSH4 0xFFFFFFFF AND JUMP JUMPDEST PUSH2 0x89F DUP4 DUP8 PUSH2 0x1D13 SWAP1 SWAP2 SWAP1 PUSH4 0xFFFFFFFF AND JUMP JUMPDEST PUSH2 0x4E2 JUMP JUMPDEST DUP3 DUP3 DUP2 MLOAD DUP2 LT PUSH2 0x8B7 JUMPI PUSH2 0x8B6 PUSH2 0x3B50 JUMP JUMPDEST JUMPDEST PUSH1 0x20 MUL PUSH1 0x20 ADD ADD DUP2 DUP2 MSTORE POP POP DUP1 PUSH1 0x1 ADD SWAP1 POP PUSH2 0x86D JUMP JUMPDEST POP DUP1 SWAP2 POP POP SWAP3 SWAP2 POP POP JUMP JUMPDEST PUSH2 0x8E1 PUSH2 0x1BFF JUMP JUMPDEST PUSH20 0xFFFFFFFFFFFFFFFFFFFFFFFFFFFFFFFFFFFFFFFF AND DUP4 PUSH20 0xFFFFFFFFFFFFFFFFFFFFFFFFFFFFFFFFFFFFFFFF AND EQ ISZERO DUP1 ISZERO PUSH2 0x92A JUMPI POP PUSH2 0x928 DUP4 PUSH2 0x923 PUSH2 0x1BFF JUMP JUMPDEST PUSH2 0x151F JUMP JUMPDEST ISZERO JUMPDEST ISZERO PUSH2 0x975 JUMPI PUSH2 0x937 PUSH2 0x1BFF JUMP JUMPDEST DUP4 PUSH1 0x40 MLOAD PUSH32 0xE237D92200000000000000000000000000000000000000000000000000000000 DUP2 MSTORE PUSH1 0x4 ADD PUSH2 0x96C SWAP3 SWAP2 SWAP1 PUSH2 0x3AFE JUMP JUMPDEST PUSH1 0x40 MLOAD DUP1 SWAP2 SUB SWAP1 REVERT JUMPDEST PUSH2 0x980 DUP4 DUP4 DUP4 PUSH2 0x1D27 JUMP JUMPDEST POP POP POP JUMP JUMPDEST PUSH2 0x98D PUSH2 0x1AF2 JUMP JUMPDEST PUSH2 0x997 PUSH1 0x0 PUSH2 0x1DBB JUMP JUMPDEST JUMP JUMPDEST PUSH2 0x9A1 PUSH2 0x1AF2 JUMP JUMPDEST DUP1 PUSH1 0x5 PUSH1 0x0 DUP5 DUP2 MSTORE PUSH1 0x20 ADD SWAP1 DUP2 MSTORE PUSH1 0x20 ADD PUSH1 0x0 KECCAK256 SWAP1 DUP2 PUSH2 0x9C1 SWAP2 SWAP1 PUSH2 0x3D2B JUMP JUMPDEST POP POP POP JUMP JUMPDEST PUSH1 0x0 PUSH1 0x3 PUSH1 0x0 SWAP1 SLOAD SWAP1 PUSH2 0x100 EXP SWAP1 DIV PUSH20 0xFFFFFFFFFFFFFFFFFFFFFFFFFFFFFFFFFFFFFFFF AND SWAP1 POP SWAP1 JUMP JUMPDEST PUSH1 0x4 PUSH1 0x20 MSTORE DUP1 PUSH1 0x0 MSTORE PUSH1 0x40 PUSH1 0x0 KECCAK256 PUSH1 0x0 SWAP2 POP SWAP1 POP DUP1 PUSH1 0x0 ADD PUSH1 0x0 SWAP1 SLOAD SWAP1 PUSH2 0x100 EXP SWAP1 DIV PUSH20 0xFFFFFFFFFFFFFFFFFFFFFFFFFFFFFFFFFFFFFFFF AND SWAP1 DUP1 PUSH1 0x1 ADD DUP1 SLOAD PUSH2 0xA39 SWAP1 PUSH2 0x3A16 JUMP JUMPDEST DUP1 PUSH1 0x1F ADD PUSH1 0x20 DUP1 SWAP2 DIV MUL PUSH1 0x20 ADD PUSH1 0x40 MLOAD SWAP1 DUP2 ADD PUSH1 0x40 MSTORE DUP1 SWAP3 SWAP2 SWAP1 DUP2 DUP2 MSTORE PUSH1 0x20 ADD DUP3 DUP1 SLOAD PUSH2 0xA65 SWAP1 PUSH2 0x3A16 JUMP JUMPDEST DUP1 ISZERO PUSH2 0xAB2 JUMPI DUP1 PUSH1 0x1F LT PUSH2 0xA87 JUMPI PUSH2 0x100 DUP1 DUP4 SLOAD DIV MUL DUP4 MSTORE SWAP2 PUSH1 0x20 ADD SWAP2 PUSH2 0xAB2 JUMP JUMPDEST DUP3 ADD SWAP2 SWAP1 PUSH1 0x0 MSTORE PUSH1 0x20 PUSH1 0x0 KECCAK256 SWAP1 JUMPDEST DUP2 SLOAD DUP2 MSTORE SWAP1 PUSH1 0x1 ADD SWAP1 PUSH1 0x20 ADD DUP1 DUP4 GT PUSH2 0xA95 JUMPI DUP3 SWAP1 SUB PUSH1 0x1F AND DUP3 ADD SWAP2 JUMPDEST POP POP POP POP POP SWAP1 DUP1 PUSH1 0x2 ADD PUSH1 0x0 SWAP1 SLOAD SWAP1 PUSH2 0x100 EXP SWAP1 DIV PUSH1 0xFF AND SWAP1 DUP1 PUSH1 0x3 ADD SLOAD SWAP1 DUP1 PUSH1 0x4 ADD SLOAD SWAP1 DUP1 PUSH1 0x5 ADD SLOAD SWAP1 DUP1 PUSH1 0x6 ADD SLOAD SWAP1 DUP1 PUSH1 0x7 ADD SLOAD SWAP1 DUP1 PUSH1 0x8 ADD SLOAD SWAP1 POP DUP10 JUMP JUMPDEST PUSH2 0xB05 PUSH2 0xAFE PUSH2 0x1BFF JUMP JUMPDEST DUP4 DUP4 PUSH2 0x1E81 JUMP JUMPDEST POP POP JUMP JUMPDEST PUSH2 0xB11 PUSH2 0x1AF2 JUMP JUMPDEST PUSH1 0x0 PUSH20 0xFFFFFFFFFFFFFFFFFFFFFFFFFFFFFFFFFFFFFFFF AND PUSH1 0x4 PUSH1 0x0 DUP4 PUSH20 0xFFFFFFFFFFFFFFFFFFFFFFFFFFFFFFFFFFFFFFFF AND PUSH20 0xFFFFFFFFFFFFFFFFFFFFFFFFFFFFFFFFFFFFFFFF AND DUP2 MSTORE PUSH1 0x20 ADD SWAP1 DUP2 MSTORE PUSH1 0x20 ADD PUSH1 0x0 KECCAK256 PUSH1 0x0 ADD PUSH1 0x0 SWAP1 SLOAD SWAP1 PUSH2 0x100 EXP SWAP1 DIV PUSH20 0xFFFFFFFFFFFFFFFFFFFFFFFFFFFFFFFFFFFFFFFF AND PUSH20 0xFFFFFFFFFFFFFFFFFFFFFFFFFFFFFFFFFFFFFFFF AND SUB PUSH2 0xBE2 JUMPI PUSH1 0x40 MLOAD PUSH32 0x8C379A000000000000000000000000000000000000000000000000000000000 DUP2 MSTORE PUSH1 0x4 ADD PUSH2 0xBD9 SWAP1 PUSH2 0x3E49 JUMP JUMPDEST PUSH1 0x40 MLOAD DUP1 SWAP2 SUB SWAP1 REVERT JUMPDEST PUSH1 0x0 PUSH2 0xBED DUP3 PUSH2 0x11AE JUMP JUMPDEST SWAP1 POP DUP1 PUSH2 0xC2F JUMPI PUSH1 0x40 MLOAD PUSH32 0x8C379A000000000000000000000000000000000000000000000000000000000 DUP2 MSTORE PUSH1 0x4 ADD PUSH2 0xC26 SWAP1 PUSH2 0x3EDB JUMP JUMPDEST PUSH1 0x40 MLOAD DUP1 SWAP2 SUB SWAP1 REVERT JUMPDEST PUSH1 0x64 PUSH1 0x4 PUSH1 0x0 DUP5 PUSH20 0xFFFFFFFFFFFFFFFFFFFFFFFFFFFFFFFFFFFFFFFF AND PUSH20 0xFFFFFFFFFFFFFFFFFFFFFFFFFFFFFFFFFFFFFFFF AND DUP2 MSTORE PUSH1 0x20 ADD SWAP1 DUP2 MSTORE PUSH1 0x20 ADD PUSH1 0x0 KECCAK256 PUSH1 0x3 ADD PUSH1 0x0 DUP3 DUP3 SLOAD PUSH2 0xC82 SWAP2 SWAP1 PUSH2 0x3F2A JUMP JUMPDEST SWAP3 POP POP DUP2 SWAP1 SSTORE POP PUSH1 0x1 PUSH1 0x4 PUSH1 0x0 DUP5 PUSH20 0xFFFFFFFFFFFFFFFFFFFFFFFFFFFFFFFFFFFFFFFF AND PUSH20 0xFFFFFFFFFFFFFFFFFFFFFFFFFFFFFFFFFFFFFFFF AND DUP2 MSTORE PUSH1 0x20 ADD SWAP1 DUP2 MSTORE PUSH1 0x20 ADD PUSH1 0x0 KECCAK256 PUSH1 0x4 ADD PUSH1 0x0 DUP3 DUP3 SLOAD PUSH2 0xCDC SWAP2 SWAP1 PUSH2 0x3F2A JUMP JUMPDEST SWAP3 POP POP DUP2 SWAP1 SSTORE POP PUSH1 0x1 PUSH1 0x4 PUSH1 0x0 DUP5 PUSH20 0xFFFFFFFFFFFFFFFFFFFFFFFFFFFFFFFFFFFFFFFF AND PUSH20 0xFFFFFFFFFFFFFFFFFFFFFFFFFFFFFFFFFFFFFFFF AND DUP2 MSTORE PUSH1 0x20 ADD SWAP1 DUP2 MSTORE PUSH1 0x20 ADD PUSH1 0x0 KECCAK256 PUSH1 0x5 ADD PUSH1 0x0 DUP3 DUP3 SLOAD PUSH2 0xD36 SWAP2 SWAP1 PUSH2 0x3F2A JUMP JUMPDEST SWAP3 POP POP DUP2 SWAP1 SSTORE POP PUSH1 0x1 PUSH1 0x4 PUSH1 0x0 DUP5 PUSH20 0xFFFFFFFFFFFFFFFFFFFFFFFFFFFFFFFFFFFFFFFF AND PUSH20 0xFFFFFFFFFFFFFFFFFFFFFFFFFFFFFFFFFFFFFFFF AND DUP2 MSTORE PUSH1 0x20 ADD SWAP1 DUP2 MSTORE PUSH1 0x20 ADD PUSH1 0x0 KECCAK256 PUSH1 0x6 ADD PUSH1 0x0 DUP3 DUP3 SLOAD PUSH2 0xD90 SWAP2 SWAP1 PUSH2 0x3F2A JUMP JUMPDEST SWAP3 POP POP DUP2 SWAP1 SSTORE POP POP POP JUMP JUMPDEST PUSH1 0x0 DUP1 PUSH1 0x40 MLOAD PUSH1 0x20 ADD PUSH2 0xDAD SWAP1 PUSH2 0x3FAA JUMP JUMPDEST PUSH1 0x40 MLOAD PUSH1 0x20 DUP2 DUP4 SUB SUB DUP2 MSTORE SWAP1 PUSH1 0x40 MSTORE DUP1 MLOAD SWAP1 PUSH1 0x20 ADD KECCAK256 DUP4 PUSH1 0x40 MLOAD PUSH1 0x20 ADD PUSH2 0xDD4 SWAP2 SWAP1 PUSH2 0x3FBF JUMP JUMPDEST PUSH1 0x40 MLOAD PUSH1 0x20 DUP2 DUP4 SUB SUB DUP2 MSTORE SWAP1 PUSH1 0x40 MSTORE DUP1 MLOAD SWAP1 PUSH1 0x20 ADD KECCAK256 SUB PUSH2 0xE03 JUMPI PUSH8 0xDE0B6B3A7640000 SWAP2 POP PUSH1 0x1 SWAP1 POP PUSH2 0xEA4 JUMP JUMPDEST PUSH1 0x40 MLOAD PUSH1 0x20 ADD PUSH2 0xE12 SWAP1 PUSH2 0x4022 JUMP JUMPDEST PUSH1 0x40 MLOAD PUSH1 0x20 DUP2 DUP4 SUB SUB DUP2 MSTORE SWAP1 PUSH1 0x40 MSTORE DUP1 MLOAD SWAP1 PUSH1 0x20 ADD KECCAK256 DUP4 PUSH1 0x40 MLOAD PUSH1 0x20 ADD PUSH2 0xE39 SWAP2 SWAP1 PUSH2 0x3FBF JUMP JUMPDEST PUSH1 0x40 MLOAD PUSH1 0x20 DUP2 DUP4 SUB SUB DUP2 MSTORE SWAP1 PUSH1 0x40 MSTORE DUP1 MLOAD SWAP1 PUSH1 0x20 ADD KECCAK256 SUB PUSH2 0xE68 JUMPI PUSH8 0x8AC7230489E80000 SWAP2 POP PUSH1 0x2 SWAP1 POP PUSH2 0xEA3 JUMP JUMPDEST PUSH1 0x40 MLOAD PUSH32 0x8C379A000000000000000000000000000000000000000000000000000000000 DUP2 MSTORE PUSH1 0x4 ADD PUSH2 0xE9A SWAP1 PUSH2 0x4083 JUMP JUMPDEST PUSH1 0x40 MLOAD DUP1 SWAP2 SUB SWAP1 REVERT JUMPDEST JUMPDEST DUP2 CALLVALUE LT ISZERO PUSH2 0xEE7 JUMPI PUSH1 0x40 MLOAD PUSH32 0x8C379A000000000000000000000000000000000000000000000000000000000 DUP2 MSTORE PUSH1 0x4 ADD PUSH2 0xEDE SWAP1 PUSH2 0x4115 JUMP JUMPDEST PUSH1 0x40 MLOAD DUP1 SWAP2 SUB SWAP1 REVERT JUMPDEST DUP4 PUSH1 0x4 PUSH1 0x0 DUP7 PUSH20 0xFFFFFFFFFFFFFFFFFFFFFFFFFFFFFFFFFFFFFFFF AND PUSH20 0xFFFFFFFFFFFFFFFFFFFFFFFFFFFFFFFFFFFFFFFF AND DUP2 MSTORE PUSH1 0x20 ADD SWAP1 DUP2 MSTORE PUSH1 0x20 ADD PUSH1 0x0 KECCAK256 PUSH1 0x0 ADD PUSH1 0x0 PUSH2 0x100 EXP DUP2 SLOAD DUP2 PUSH20 0xFFFFFFFFFFFFFFFFFFFFFFFFFFFFFFFFFFFFFFFF MUL NOT AND SWAP1 DUP4 PUSH20 0xFFFFFFFFFFFFFFFFFFFFFFFFFFFFFFFFFFFFFFFF AND MUL OR SWAP1 SSTORE POP DUP3 PUSH1 0x4 PUSH1 0x0 DUP7 PUSH20 0xFFFFFFFFFFFFFFFFFFFFFFFFFFFFFFFFFFFFFFFF AND PUSH20 0xFFFFFFFFFFFFFFFFFFFFFFFFFFFFFFFFFFFFFFFF AND DUP2 MSTORE PUSH1 0x20 ADD SWAP1 DUP2 MSTORE PUSH1 0x20 ADD PUSH1 0x0 KECCAK256 PUSH1 0x1 ADD SWAP1 DUP2 PUSH2 0xFB7 SWAP2 SWAP1 PUSH2 0x3D2B JUMP JUMPDEST POP PUSH1 0x1 PUSH1 0x4 PUSH1 0x0 DUP7 PUSH20 0xFFFFFFFFFFFFFFFFFFFFFFFFFFFFFFFFFFFFFFFF AND PUSH20 0xFFFFFFFFFFFFFFFFFFFFFFFFFFFFFFFFFFFFFFFF AND DUP2 MSTORE PUSH1 0x20 ADD SWAP1 DUP2 MSTORE PUSH1 0x20 ADD PUSH1 0x0 KECCAK256 PUSH1 0x2 ADD PUSH1 0x0 PUSH2 0x100 EXP DUP2 SLOAD DUP2 PUSH1 0xFF MUL NOT AND SWAP1 DUP4 ISZERO ISZERO MUL OR SWAP1 SSTORE POP PUSH1 0xA PUSH1 0x4 PUSH1 0x0 DUP7 PUSH20 0xFFFFFFFFFFFFFFFFFFFFFFFFFFFFFFFFFFFFFFFF AND PUSH20 0xFFFFFFFFFFFFFFFFFFFFFFFFFFFFFFFFFFFFFFFF AND DUP2 MSTORE PUSH1 0x20 ADD SWAP1 DUP2 MSTORE PUSH1 0x20 ADD PUSH1 0x0 KECCAK256 PUSH1 0x3 ADD DUP2 SWAP1 SSTORE POP PUSH1 0x1 PUSH1 0x4 PUSH1 0x0 DUP7 PUSH20 0xFFFFFFFFFFFFFFFFFFFFFFFFFFFFFFFFFFFFFFFF AND PUSH20 0xFFFFFFFFFFFFFFFFFFFFFFFFFFFFFFFFFFFFFFFF AND DUP2 MSTORE PUSH1 0x20 ADD SWAP1 DUP2 MSTORE PUSH1 0x20 ADD PUSH1 0x0 KECCAK256 PUSH1 0x4 ADD DUP2 SWAP1 SSTORE POP TIMESTAMP PUSH1 0x4 PUSH1 0x0 DUP7 PUSH20 0xFFFFFFFFFFFFFFFFFFFFFFFFFFFFFFFFFFFFFFFF AND PUSH20 0xFFFFFFFFFFFFFFFFFFFFFFFFFFFFFFFFFFFFFFFF AND DUP2 MSTORE PUSH1 0x20 ADD SWAP1 DUP2 MSTORE PUSH1 0x20 ADD PUSH1 0x0 KECCAK256 PUSH1 0x7 ADD DUP2 SWAP1 SSTORE POP DUP2 PUSH1 0x4 PUSH1 0x0 DUP7 PUSH20 0xFFFFFFFFFFFFFFFFFFFFFFFFFFFFFFFFFFFFFFFF AND PUSH20 0xFFFFFFFFFFFFFFFFFFFFFFFFFFFFFFFFFFFFFFFF AND DUP2 MSTORE PUSH1 0x20 ADD SWAP1 DUP2 MSTORE PUSH1 0x20 ADD PUSH1 0x0 KECCAK256 PUSH1 0x8 ADD DUP2 SWAP1 SSTORE POP PUSH2 0x114D DUP5 DUP3 PUSH1 0x1 PUSH1 0x40 MLOAD DUP1 PUSH1 0x20 ADD PUSH1 0x40 MSTORE DUP1 PUSH1 0x0 DUP2 MSTORE POP PUSH2 0x1FF1 JUMP JUMPDEST DUP2 CALLVALUE GT ISZERO PUSH2 0x11A8 JUMPI CALLER PUSH20 0xFFFFFFFFFFFFFFFFFFFFFFFFFFFFFFFFFFFFFFFF AND PUSH2 0x8FC DUP4 CALLVALUE PUSH2 0x117B SWAP2 SWAP1 PUSH2 0x4135 JUMP JUMPDEST SWAP1 DUP2 ISZERO MUL SWAP1 PUSH1 0x40 MLOAD PUSH1 0x0 PUSH1 0x40 MLOAD DUP1 DUP4 SUB DUP2 DUP6 DUP9 DUP9 CALL SWAP4 POP POP POP POP ISZERO DUP1 ISZERO PUSH2 0x11A6 JUMPI RETURNDATASIZE PUSH1 0x0 DUP1 RETURNDATACOPY RETURNDATASIZE PUSH1 0x0 REVERT JUMPDEST POP JUMPDEST POP POP POP POP JUMP JUMPDEST PUSH1 0x0 DUP1 PUSH20 0xFFFFFFFFFFFFFFFFFFFFFFFFFFFFFFFFFFFFFFFF AND PUSH1 0x4 PUSH1 0x0 DUP5 PUSH20 0xFFFFFFFFFFFFFFFFFFFFFFFFFFFFFFFFFFFFFFFF AND PUSH20 0xFFFFFFFFFFFFFFFFFFFFFFFFFFFFFFFFFFFFFFFF AND DUP2 MSTORE PUSH1 0x20 ADD SWAP1 DUP2 MSTORE PUSH1 0x20 ADD PUSH1 0x0 KECCAK256 PUSH1 0x0 ADD PUSH1 0x0 SWAP1 SLOAD SWAP1 PUSH2 0x100 EXP SWAP1 DIV PUSH20 0xFFFFFFFFFFFFFFFFFFFFFFFFFFFFFFFFFFFFFFFF AND PUSH20 0xFFFFFFFFFFFFFFFFFFFFFFFFFFFFFFFFFFFFFFFF AND EQ DUP1 PUSH2 0x1299 JUMPI POP PUSH1 0x4 PUSH1 0x0 DUP4 PUSH20 0xFFFFFFFFFFFFFFFFFFFFFFFFFFFFFFFFFFFFFFFF AND PUSH20 0xFFFFFFFFFFFFFFFFFFFFFFFFFFFFFFFFFFFFFFFF AND DUP2 MSTORE PUSH1 0x20 ADD SWAP1 DUP2 MSTORE PUSH1 0x20 ADD PUSH1 0x0 KECCAK256 PUSH1 0x2 ADD PUSH1 0x0 SWAP1 SLOAD SWAP1 PUSH2 0x100 EXP SWAP1 DIV PUSH1 0xFF AND ISZERO JUMPDEST ISZERO PUSH2 0x12A7 JUMPI PUSH1 0x0 SWAP1 POP PUSH2 0x151A JUMP JUMPDEST PUSH1 0x0 DUP1 PUSH1 0x40 MLOAD PUSH1 0x20 ADD PUSH2 0x12B9 SWAP1 PUSH2 0x3FAA JUMP JUMPDEST PUSH1 0x40 MLOAD PUSH1 0x20 DUP2 DUP4 SUB SUB DUP2 MSTORE SWAP1 PUSH1 0x40 MSTORE DUP1 MLOAD SWAP1 PUSH1 0x20 ADD KECCAK256 PUSH1 0x4 PUSH1 0x0 DUP7 PUSH20 0xFFFFFFFFFFFFFFFFFFFFFFFFFFFFFFFFFFFFFFFF AND PUSH20 0xFFFFFFFFFFFFFFFFFFFFFFFFFFFFFFFFFFFFFFFF AND DUP2 MSTORE PUSH1 0x20 ADD SWAP1 DUP2 MSTORE PUSH1 0x20 ADD PUSH1 0x0 KECCAK256 PUSH1 0x1 ADD PUSH1 0x40 MLOAD PUSH1 0x20 ADD PUSH2 0x1321 SWAP2 SWAP1 PUSH2 0x41EC JUMP JUMPDEST PUSH1 0x40 MLOAD PUSH1 0x20 DUP2 DUP4 SUB SUB DUP2 MSTORE SWAP1 PUSH1 0x40 MSTORE DUP1 MLOAD SWAP1 PUSH1 0x20 ADD KECCAK256 SUB PUSH2 0x139A JUMPI PUSH3 0x278D00 PUSH1 0x4 PUSH1 0x0 DUP7 PUSH20 0xFFFFFFFFFFFFFFFFFFFFFFFFFFFFFFFFFFFFFFFF AND PUSH20 0xFFFFFFFFFFFFFFFFFFFFFFFFFFFFFFFFFFFFFFFF AND DUP2 MSTORE PUSH1 0x20 ADD SWAP1 DUP2 MSTORE PUSH1 0x20 ADD PUSH1 0x0 KECCAK256 PUSH1 0x7 ADD SLOAD PUSH2 0x138D SWAP2 SWAP1 PUSH2 0x3F2A JUMP JUMPDEST TIMESTAMP GT SWAP2 POP PUSH1 0x1 SWAP1 POP PUSH2 0x1488 JUMP JUMPDEST PUSH1 0x40 MLOAD PUSH1 0x20 ADD PUSH2 0x13A9 SWAP1 PUSH2 0x4022 JUMP JUMPDEST PUSH1 0x40 MLOAD PUSH1 0x20 DUP2 DUP4 SUB SUB DUP2 MSTORE SWAP1 PUSH1 0x40 MSTORE DUP1 MLOAD SWAP1 PUSH1 0x20 ADD KECCAK256 PUSH1 0x4 PUSH1 0x0 DUP7 PUSH20 0xFFFFFFFFFFFFFFFFFFFFFFFFFFFFFFFFFFFFFFFF AND PUSH20 0xFFFFFFFFFFFFFFFFFFFFFFFFFFFFFFFFFFFFFFFF AND DUP2 MSTORE PUSH1 0x20 ADD SWAP1 DUP2 MSTORE PUSH1 0x20 ADD PUSH1 0x0 KECCAK256 PUSH1 0x1 ADD PUSH1 0x40 MLOAD PUSH1 0x20 ADD PUSH2 0x1411 SWAP2 SWAP1 PUSH2 0x41EC JUMP JUMPDEST PUSH1 0x40 MLOAD PUSH1 0x20 DUP2 DUP4 SUB SUB DUP2 MSTORE SWAP1 PUSH1 0x40 MSTORE DUP1 MLOAD SWAP1 PUSH1 0x20 ADD KECCAK256 SUB PUSH2 0x1487 JUMPI PUSH4 0x1E13380 PUSH1 0x4 PUSH1 0x0 DUP7 PUSH20 0xFFFFFFFFFFFFFFFFFFFFFFFFFFFFFFFFFFFFFFFF AND PUSH20 0xFFFFFFFFFFFFFFFFFFFFFFFFFFFFFFFFFFFFFFFF AND DUP2 MSTORE PUSH1 0x20 ADD SWAP1 DUP2 MSTORE PUSH1 0x20 ADD PUSH1 0x0 KECCAK256 PUSH1 0x7 ADD SLOAD PUSH2 0x147E SWAP2 SWAP1 PUSH2 0x3F2A JUMP JUMPDEST TIMESTAMP GT SWAP2 POP PUSH1 0x2 SWAP1 POP JUMPDEST JUMPDEST DUP2 ISZERO PUSH2 0x1513 JUMPI PUSH1 0x0 PUSH1 0x4 PUSH1 0x0 DUP7 PUSH20 0xFFFFFFFFFFFFFFFFFFFFFFFFFFFFFFFFFFFFFFFF AND PUSH20 0xFFFFFFFFFFFFFFFFFFFFFFFFFFFFFFFFFFFFFFFF AND DUP2 MSTORE PUSH1 0x20 ADD SWAP1 DUP2 MSTORE PUSH1 0x20 ADD PUSH1 0x0 KECCAK256 PUSH1 0x2 ADD PUSH1 0x0 PUSH2 0x100 EXP DUP2 SLOAD DUP2 PUSH1 0xFF MUL NOT AND SWAP1 DUP4 ISZERO ISZERO MUL OR SWAP1 SSTORE POP PUSH1 0x0 PUSH2 0x14F5 DUP6 DUP4 PUSH2 0x4E2 JUMP JUMPDEST GT ISZERO PUSH2 0x1508 JUMPI PUSH2 0x1507 DUP5 DUP3 PUSH1 0x1 PUSH2 0x208A JUMP JUMPDEST JUMPDEST PUSH1 0x0 SWAP3 POP POP POP PUSH2 0x151A JUMP JUMPDEST PUSH1 0x1 SWAP3 POP POP POP JUMPDEST SWAP2 SWAP1 POP JUMP JUMPDEST PUSH1 0x0 PUSH1 0x1 PUSH1 0x0 DUP5 PUSH20 0xFFFFFFFFFFFFFFFFFFFFFFFFFFFFFFFFFFFFFFFF AND PUSH20 0xFFFFFFFFFFFFFFFFFFFFFFFFFFFFFFFFFFFFFFFF AND DUP2 MSTORE PUSH1 0x20 ADD SWAP1 DUP2 MSTORE PUSH1 0x20 ADD PUSH1 0x0 KECCAK256 PUSH1 0x0 DUP4 PUSH20 0xFFFFFFFFFFFFFFFFFFFFFFFFFFFFFFFFFFFFFFFF AND PUSH20 0xFFFFFFFFFFFFFFFFFFFFFFFFFFFFFFFFFFFFFFFF AND DUP2 MSTORE PUSH1 0x20 ADD SWAP1 DUP2 MSTORE PUSH1 0x20 ADD PUSH1 0x0 KECCAK256 PUSH1 0x0 SWAP1 SLOAD SWAP1 PUSH2 0x100 EXP SWAP1 DIV PUSH1 0xFF AND SWAP1 POP SWAP3 SWAP2 POP POP JUMP JUMPDEST PUSH1 0x0 PUSH2 0x15BD PUSH2 0x1BFF JUMP JUMPDEST SWAP1 POP DUP1 PUSH20 0xFFFFFFFFFFFFFFFFFFFFFFFFFFFFFFFFFFFFFFFF AND DUP7 PUSH20 0xFFFFFFFFFFFFFFFFFFFFFFFFFFFFFFFFFFFFFFFF AND EQ ISZERO DUP1 ISZERO PUSH2 0x1602 JUMPI POP PUSH2 0x1600 DUP7 DUP3 PUSH2 0x151F JUMP JUMPDEST ISZERO JUMPDEST ISZERO PUSH2 0x1646 JUMPI DUP1 DUP7 PUSH1 0x40 MLOAD PUSH32 0xE237D92200000000000000000000000000000000000000000000000000000000 DUP2 MSTORE PUSH1 0x4 ADD PUSH2 0x163D SWAP3 SWAP2 SWAP1 PUSH2 0x3AFE JUMP JUMPDEST PUSH1 0x40 MLOAD DUP1 SWAP2 SUB SWAP1 REVERT JUMPDEST PUSH2 0x1653 DUP7 DUP7 DUP7 DUP7 DUP7 PUSH2 0x2131 JUMP JUMPDEST POP POP POP POP POP POP JUMP JUMPDEST PUSH2 0x1663 PUSH2 0x1AF2 JUMP JUMPDEST PUSH1 0x0 PUSH20 0xFFFFFFFFFFFFFFFFFFFFFFFFFFFFFFFFFFFFFFFF AND DUP2 PUSH20 0xFFFFFFFFFFFFFFFFFFFFFFFFFFFFFFFFFFFFFFFF AND SUB PUSH2 0x16D5 JUMPI PUSH1 0x0 PUSH1 0x40 MLOAD PUSH32 0x1E4FBDF700000000000000000000000000000000000000000000000000000000 DUP2 MSTORE PUSH1 0x4 ADD PUSH2 0x16CC SWAP2 SWAP1 PUSH2 0x35CA JUMP JUMPDEST PUSH1 0x40 MLOAD DUP1 SWAP2 SUB SWAP1 REVERT JUMPDEST PUSH2 0x16DE DUP2 PUSH2 0x1DBB JUMP JUMPDEST POP JUMP JUMPDEST PUSH2 0x16E9 PUSH2 0x1BFF JUMP JUMPDEST PUSH20 0xFFFFFFFFFFFFFFFFFFFFFFFFFFFFFFFFFFFFFFFF AND DUP4 PUSH20 0xFFFFFFFFFFFFFFFFFFFFFFFFFFFFFFFFFFFFFFFF AND EQ ISZERO DUP1 ISZERO PUSH2 0x1732 JUMPI POP PUSH2 0x1730 DUP4 PUSH2 0x172B PUSH2 0x1BFF JUMP JUMPDEST PUSH2 0x151F JUMP JUMPDEST ISZERO JUMPDEST ISZERO PUSH2 0x177D JUMPI PUSH2 0x173F PUSH2 0x1BFF JUMP JUMPDEST DUP4 PUSH1 0x40 MLOAD PUSH32 0xE237D92200000000000000000000000000000000000000000000000000000000 DUP2 MSTORE PUSH1 0x4 ADD PUSH2 0x1774 SWAP3 SWAP2 SWAP1 PUSH2 0x3AFE JUMP JUMPDEST PUSH1 0x40 MLOAD DUP1 SWAP2 SUB SWAP1 REVERT JUMPDEST PUSH2 0x1788 DUP4 DUP4 DUP4 PUSH2 0x208A JUMP JUMPDEST POP POP POP JUMP JUMPDEST PUSH2 0x1795 PUSH2 0x2B81 JUMP JUMPDEST PUSH1 0x4 PUSH1 0x0 DUP4 PUSH20 0xFFFFFFFFFFFFFFFFFFFFFFFFFFFFFFFFFFFFFFFF AND PUSH20 0xFFFFFFFFFFFFFFFFFFFFFFFFFFFFFFFFFFFFFFFF AND DUP2 MSTORE PUSH1 0x20 ADD SWAP1 DUP2 MSTORE PUSH1 0x20 ADD PUSH1 0x0 KECCAK256 PUSH1 0x40 MLOAD DUP1 PUSH2 0x120 ADD PUSH1 0x40 MSTORE SWAP1 DUP2 PUSH1 0x0 DUP3 ADD PUSH1 0x0 SWAP1 SLOAD SWAP1 PUSH2 0x100 EXP SWAP1 DIV PUSH20 0xFFFFFFFFFFFFFFFFFFFFFFFFFFFFFFFFFFFFFFFF AND PUSH20 0xFFFFFFFFFFFFFFFFFFFFFFFFFFFFFFFFFFFFFFFF AND PUSH20 0xFFFFFFFFFFFFFFFFFFFFFFFFFFFFFFFFFFFFFFFF AND DUP2 MSTORE PUSH1 0x20 ADD PUSH1 0x1 DUP3 ADD DUP1 SLOAD PUSH2 0x1846 SWAP1 PUSH2 0x3A16 JUMP JUMPDEST DUP1 PUSH1 0x1F ADD PUSH1 0x20 DUP1 SWAP2 DIV MUL PUSH1 0x20 ADD PUSH1 0x40 MLOAD SWAP1 DUP2 ADD PUSH1 0x40 MSTORE DUP1 SWAP3 SWAP2 SWAP1 DUP2 DUP2 MSTORE PUSH1 0x20 ADD DUP3 DUP1 SLOAD PUSH2 0x1872 SWAP1 PUSH2 0x3A16 JUMP JUMPDEST DUP1 ISZERO PUSH2 0x18BF JUMPI DUP1 PUSH1 0x1F LT PUSH2 0x1894 JUMPI PUSH2 0x100 DUP1 DUP4 SLOAD DIV MUL DUP4 MSTORE SWAP2 PUSH1 0x20 ADD SWAP2 PUSH2 0x18BF JUMP JUMPDEST DUP3 ADD SWAP2 SWAP1 PUSH1 0x0 MSTORE PUSH1 0x20 PUSH1 0x0 KECCAK256 SWAP1 JUMPDEST DUP2 SLOAD DUP2 MSTORE SWAP1 PUSH1 0x1 ADD SWAP1 PUSH1 0x20 ADD DUP1 DUP4 GT PUSH2 0x18A2 JUMPI DUP3 SWAP1 SUB PUSH1 0x1F AND DUP3 ADD SWAP2 JUMPDEST POP POP POP POP POP DUP2 MSTORE PUSH1 0x20 ADD PUSH1 0x2 DUP3 ADD PUSH1 0x0 SWAP1 SLOAD SWAP1 PUSH2 0x100 EXP SWAP1 DIV PUSH1 0xFF AND ISZERO ISZERO ISZERO ISZERO DUP2 MSTORE PUSH1 0x20 ADD PUSH1 0x3 DUP3 ADD SLOAD DUP2 MSTORE PUSH1 0x20 ADD PUSH1 0x4 DUP3 ADD SLOAD DUP2 MSTORE PUSH1 0x20 ADD PUSH1 0x5 DUP3 ADD SLOAD DUP2 MSTORE PUSH1 0x20 ADD PUSH1 0x6 DUP3 ADD SLOAD DUP2 MSTORE PUSH1 0x20 ADD PUSH1 0x7 DUP3 ADD SLOAD DUP2 MSTORE PUSH1 0x20 ADD PUSH1 0x8 DUP3 ADD SLOAD DUP2 MSTORE POP POP SWAP1 POP SWAP2 SWAP1 POP JUMP JUMPDEST PUSH1 0x0 PUSH32 0x1FFC9A700000000000000000000000000000000000000000000000000000000 PUSH28 0xFFFFFFFFFFFFFFFFFFFFFFFFFFFFFFFFFFFFFFFFFFFFFFFFFFFFFFFF NOT AND DUP3 PUSH28 0xFFFFFFFFFFFFFFFFFFFFFFFFFFFFFFFFFFFFFFFFFFFFFFFFFFFFFFFF NOT AND EQ SWAP1 POP SWAP2 SWAP1 POP JUMP JUMPDEST PUSH1 0x60 PUSH1 0x2 DUP1 SLOAD PUSH2 0x199F SWAP1 PUSH2 0x3A16 JUMP JUMPDEST DUP1 PUSH1 0x1F ADD PUSH1 0x20 DUP1 SWAP2 DIV MUL PUSH1 0x20 ADD PUSH1 0x40 MLOAD SWAP1 DUP2 ADD PUSH1 0x40 MSTORE DUP1 SWAP3 SWAP2 SWAP1 DUP2 DUP2 MSTORE PUSH1 0x20 ADD DUP3 DUP1 SLOAD PUSH2 0x19CB SWAP1 PUSH2 0x3A16 JUMP JUMPDEST DUP1 ISZERO PUSH2 0x1A18 JUMPI DUP1 PUSH1 0x1F LT PUSH2 0x19ED JUMPI PUSH2 0x100 DUP1 DUP4 SLOAD DIV MUL DUP4 MSTORE SWAP2 PUSH1 0x20 ADD SWAP2 PUSH2 0x1A18 JUMP JUMPDEST DUP3 ADD SWAP2 SWAP1 PUSH1 0x0 MSTORE PUSH1 0x20 PUSH1 0x0 KECCAK256 SWAP1 JUMPDEST DUP2 SLOAD DUP2 MSTORE SWAP1 PUSH1 0x1 ADD SWAP1 PUSH1 0x20 ADD DUP1 DUP4 GT PUSH2 0x19FB JUMPI DUP3 SWAP1 SUB PUSH1 0x1F AND DUP3 ADD SWAP2 JUMPDEST POP POP POP POP POP SWAP1 POP SWAP2 SWAP1 POP JUMP JUMPDEST PUSH1 0x60 PUSH1 0x0 PUSH1 0x1 PUSH2 0x1A33 DUP5 PUSH2 0x223C JUMP JUMPDEST ADD SWAP1 POP PUSH1 0x0 DUP2 PUSH8 0xFFFFFFFFFFFFFFFF DUP2 GT ISZERO PUSH2 0x1A52 JUMPI PUSH2 0x1A51 PUSH2 0x2E96 JUMP JUMPDEST JUMPDEST PUSH1 0x40 MLOAD SWAP1 DUP1 DUP3 MSTORE DUP1 PUSH1 0x1F ADD PUSH1 0x1F NOT AND PUSH1 0x20 ADD DUP3 ADD PUSH1 0x40 MSTORE DUP1 ISZERO PUSH2 0x1A84 JUMPI DUP2 PUSH1 0x20 ADD PUSH1 0x1 DUP3 MUL DUP1 CALLDATASIZE DUP4 CALLDATACOPY DUP1 DUP3 ADD SWAP2 POP POP SWAP1 POP JUMPDEST POP SWAP1 POP PUSH1 0x0 DUP3 PUSH1 0x20 ADD DUP3 ADD SWAP1 POP JUMPDEST PUSH1 0x1 ISZERO PUSH2 0x1AE7 JUMPI DUP1 DUP1 PUSH1 0x1 SWAP1 SUB SWAP2 POP POP PUSH32 0x3031323334353637383961626364656600000000000000000000000000000000 PUSH1 0xA DUP7 MOD BYTE DUP2 MSTORE8 PUSH1 0xA DUP6 DUP2 PUSH2 0x1ADB JUMPI PUSH2 0x1ADA PUSH2 0x4203 JUMP JUMPDEST JUMPDEST DIV SWAP5 POP PUSH1 0x0 DUP6 SUB PUSH2 0x1A92 JUMPI JUMPDEST DUP2 SWAP4 POP POP POP POP SWAP2 SWAP1 POP JUMP JUMPDEST PUSH2 0x1AFA PUSH2 0x1BFF JUMP JUMPDEST PUSH20 0xFFFFFFFFFFFFFFFFFFFFFFFFFFFFFFFFFFFFFFFF AND PUSH2 0x1B18 PUSH2 0x9C6 JUMP JUMPDEST PUSH20 0xFFFFFFFFFFFFFFFFFFFFFFFFFFFFFFFFFFFFFFFF AND EQ PUSH2 0x1B77 JUMPI PUSH2 0x1B3B PUSH2 0x1BFF JUMP JUMPDEST PUSH1 0x40 MLOAD PUSH32 0x118CDAA700000000000000000000000000000000000000000000000000000000 DUP2 MSTORE PUSH1 0x4 ADD PUSH2 0x1B6E SWAP2 SWAP1 PUSH2 0x35CA JUMP JUMPDEST PUSH1 0x40 MLOAD DUP1 SWAP2 SUB SWAP1 REVERT JUMPDEST JUMP JUMPDEST PUSH1 0x0 PUSH20 0xFFFFFFFFFFFFFFFFFFFFFFFFFFFFFFFFFFFFFFFF AND DUP5 PUSH20 0xFFFFFFFFFFFFFFFFFFFFFFFFFFFFFFFFFFFFFFFF AND SUB PUSH2 0x1BEB JUMPI PUSH1 0x0 PUSH1 0x40 MLOAD PUSH32 0x57F447CE00000000000000000000000000000000000000000000000000000000 DUP2 MSTORE PUSH1 0x4 ADD PUSH2 0x1BE2 SWAP2 SWAP1 PUSH2 0x35CA JUMP JUMPDEST PUSH1 0x40 MLOAD DUP1 SWAP2 SUB SWAP1 REVERT JUMPDEST PUSH2 0x1BF9 PUSH1 0x0 DUP6 DUP6 DUP6 DUP6 PUSH2 0x238F JUMP JUMPDEST POP POP POP POP JUMP JUMPDEST PUSH1 0x0 CALLER SWAP1 POP SWAP1 JUMP JUMPDEST PUSH1 0x0 PUSH20 0xFFFFFFFFFFFFFFFFFFFFFFFFFFFFFFFFFFFFFFFF AND DUP5 PUSH20 0xFFFFFFFFFFFFFFFFFFFFFFFFFFFFFFFFFFFFFFFF AND SUB PUSH2 0x1C79 JUMPI PUSH1 0x0 PUSH1 0x40 MLOAD PUSH32 0x57F447CE00000000000000000000000000000000000000000000000000000000 DUP2 MSTORE PUSH1 0x4 ADD PUSH2 0x1C70 SWAP2 SWAP1 PUSH2 0x35CA JUMP JUMPDEST PUSH1 0x40 MLOAD DUP1 SWAP2 SUB SWAP1 REVERT JUMPDEST PUSH1 0x0 PUSH20 0xFFFFFFFFFFFFFFFFFFFFFFFFFFFFFFFFFFFFFFFF AND DUP6 PUSH20 0xFFFFFFFFFFFFFFFFFFFFFFFFFFFFFFFFFFFFFFFF AND SUB PUSH2 0x1CEB JUMPI PUSH1 0x0 PUSH1 0x40 MLOAD PUSH32 0x1A8351400000000000000000000000000000000000000000000000000000000 DUP2 MSTORE PUSH1 0x4 ADD PUSH2 0x1CE2 SWAP2 SWAP1 PUSH2 0x35CA JUMP JUMPDEST PUSH1 0x40 MLOAD DUP1 SWAP2 SUB SWAP1 REVERT JUMPDEST PUSH2 0x1CF8 DUP6 DUP6 DUP6 DUP6 DUP6 PUSH2 0x238F JUMP JUMPDEST POP POP POP POP POP JUMP JUMPDEST PUSH1 0x0 PUSH1 0x20 DUP3 MUL PUSH1 0x20 DUP5 ADD ADD MLOAD SWAP1 POP SWAP3 SWAP2 POP POP JUMP JUMPDEST PUSH1 0x0 PUSH1 0x20 DUP3 MUL PUSH1 0x20 DUP5 ADD ADD MLOAD SWAP1 POP SWAP3 SWAP2 POP POP JUMP JUMPDEST PUSH1 0x0 PUSH20 0xFFFFFFFFFFFFFFFFFFFFFFFFFFFFFFFFFFFFFFFF AND DUP4 PUSH20 0xFFFFFFFFFFFFFFFFFFFFFFFFFFFFFFFFFFFFFFFF AND SUB PUSH2 0x1D99 JUMPI PUSH1 0x0 PUSH1 0x40 MLOAD PUSH32 0x1A8351400000000000000000000000000000000000000000000000000000000 DUP2 MSTORE PUSH1 0x4 ADD PUSH2 0x1D90 SWAP2 SWAP1 PUSH2 0x35CA JUMP JUMPDEST PUSH1 0x40 MLOAD DUP1 SWAP2 SUB SWAP1 REVERT JUMPDEST PUSH2 0x1DB6 DUP4 PUSH1 0x0 DUP5 DUP5 PUSH1 0x40 MLOAD DUP1 PUSH1 0x20 ADD PUSH1 0x40 MSTORE DUP1 PUSH1 0x0 DUP2 MSTORE POP PUSH2 0x238F JUMP JUMPDEST POP POP POP JUMP JUMPDEST PUSH1 0x0 PUSH1 0x3 PUSH1 0x0 SWAP1 SLOAD SWAP1 PUSH2 0x100 EXP SWAP1 DIV PUSH20 0xFFFFFFFFFFFFFFFFFFFFFFFFFFFFFFFFFFFFFFFF AND SWAP1 POP DUP2 PUSH1 0x3 PUSH1 0x0 PUSH2 0x100 EXP DUP2 SLOAD DUP2 PUSH20 0xFFFFFFFFFFFFFFFFFFFFFFFFFFFFFFFFFFFFFFFF MUL NOT AND SWAP1 DUP4 PUSH20 0xFFFFFFFFFFFFFFFFFFFFFFFFFFFFFFFFFFFFFFFF AND MUL OR SWAP1 SSTORE POP DUP2 PUSH20 0xFFFFFFFFFFFFFFFFFFFFFFFFFFFFFFFFFFFFFFFF AND DUP2 PUSH20 0xFFFFFFFFFFFFFFFFFFFFFFFFFFFFFFFFFFFFFFFF AND PUSH32 0x8BE0079C531659141344CD1FD0A4F28419497F9722A3DAAFE3B4186F6B6457E0 PUSH1 0x40 MLOAD PUSH1 0x40 MLOAD DUP1 SWAP2 SUB SWAP1 LOG3 POP POP JUMP JUMPDEST PUSH1 0x0 PUSH20 0xFFFFFFFFFFFFFFFFFFFFFFFFFFFFFFFFFFFFFFFF AND DUP3 PUSH20 0xFFFFFFFFFFFFFFFFFFFFFFFFFFFFFFFFFFFFFFFF AND SUB PUSH2 0x1EF3 JUMPI PUSH1 0x0 PUSH1 0x40 MLOAD PUSH32 0xCED3E10000000000000000000000000000000000000000000000000000000000 DUP2 MSTORE PUSH1 0x4 ADD PUSH2 0x1EEA SWAP2 SWAP1 PUSH2 0x35CA JUMP JUMPDEST PUSH1 0x40 MLOAD DUP1 SWAP2 SUB SWAP1 REVERT JUMPDEST DUP1 PUSH1 0x1 PUSH1 0x0 DUP6 PUSH20 0xFFFFFFFFFFFFFFFFFFFFFFFFFFFFFFFFFFFFFFFF AND PUSH20 0xFFFFFFFFFFFFFFFFFFFFFFFFFFFFFFFFFFFFFFFF AND DUP2 MSTORE PUSH1 0x20 ADD SWAP1 DUP2 MSTORE PUSH1 0x20 ADD PUSH1 0x0 KECCAK256 PUSH1 0x0 DUP5 PUSH20 0xFFFFFFFFFFFFFFFFFFFFFFFFFFFFFFFFFFFFFFFF AND PUSH20 0xFFFFFFFFFFFFFFFFFFFFFFFFFFFFFFFFFFFFFFFF AND DUP2 MSTORE PUSH1 0x20 ADD SWAP1 DUP2 MSTORE PUSH1 0x20 ADD PUSH1 0x0 KECCAK256 PUSH1 0x0 PUSH2 0x100 EXP DUP2 SLOAD DUP2 PUSH1 0xFF MUL NOT AND SWAP1 DUP4 ISZERO ISZERO MUL OR SWAP1 SSTORE POP DUP2 PUSH20 0xFFFFFFFFFFFFFFFFFFFFFFFFFFFFFFFFFFFFFFFF AND DUP4 PUSH20 0xFFFFFFFFFFFFFFFFFFFFFFFFFFFFFFFFFFFFFFFF AND PUSH32 0x17307EAB39AB6107E8899845AD3D59BD9653F200F220920489CA2B5937696C31 DUP4 PUSH1 0x40 MLOAD PUSH2 0x1FE4 SWAP2 SWAP1 PUSH2 0x2D97 JUMP JUMPDEST PUSH1 0x40 MLOAD DUP1 SWAP2 SUB SWAP1 LOG3 POP POP POP JUMP JUMPDEST PUSH1 0x0 PUSH20 0xFFFFFFFFFFFFFFFFFFFFFFFFFFFFFFFFFFFFFFFF AND DUP5 PUSH20 0xFFFFFFFFFFFFFFFFFFFFFFFFFFFFFFFFFFFFFFFF AND SUB PUSH2 0x2063 JUMPI PUSH1 0x0 PUSH1 0x40 MLOAD PUSH32 0x57F447CE00000000000000000000000000000000000000000000000000000000 DUP2 MSTORE PUSH1 0x4 ADD PUSH2 0x205A SWAP2 SWAP1 PUSH2 0x35CA JUMP JUMPDEST PUSH1 0x40 MLOAD DUP1 SWAP2 SUB SWAP1 REVERT JUMPDEST PUSH1 0x0 DUP1 PUSH2 0x2070 DUP6 DUP6 PUSH2 0x2441 JUMP JUMPDEST SWAP2 POP SWAP2 POP PUSH2 0x2082 PUSH1 0x0 DUP8 DUP5 DUP5 DUP8 PUSH2 0x238F JUMP JUMPDEST POP POP POP POP POP POP JUMP JUMPDEST PUSH1 0x0 PUSH20 0xFFFFFFFFFFFFFFFFFFFFFFFFFFFFFFFFFFFFFFFF AND DUP4 PUSH20 0xFFFFFFFFFFFFFFFFFFFFFFFFFFFFFFFFFFFFFFFF AND SUB PUSH2 0x20FC JUMPI PUSH1 0x0 PUSH1 0x40 MLOAD PUSH32 0x1A8351400000000000000000000000000000000000000000000000000000000 DUP2 MSTORE PUSH1 0x4 ADD PUSH2 0x20F3 SWAP2 SWAP1 PUSH2 0x35CA JUMP JUMPDEST PUSH1 0x40 MLOAD DUP1 SWAP2 SUB SWAP1 REVERT JUMPDEST PUSH1 0x0 DUP1 PUSH2 0x2109 DUP5 DUP5 PUSH2 0x2441 JUMP JUMPDEST SWAP2 POP SWAP2 POP PUSH2 0x212A DUP6 PUSH1 0x0 DUP5 DUP5 PUSH1 0x40 MLOAD DUP1 PUSH1 0x20 ADD PUSH1 0x40 MSTORE DUP1 PUSH1 0x0 DUP2 MSTORE POP PUSH2 0x238F JUMP JUMPDEST POP POP POP POP POP JUMP JUMPDEST PUSH1 0x0 PUSH20 0xFFFFFFFFFFFFFFFFFFFFFFFFFFFFFFFFFFFFFFFF AND DUP5 PUSH20 0xFFFFFFFFFFFFFFFFFFFFFFFFFFFFFFFFFFFFFFFF AND SUB PUSH2 0x21A3 JUMPI PUSH1 0x0 PUSH1 0x40 MLOAD PUSH32 0x57F447CE00000000000000000000000000000000000000000000000000000000 DUP2 MSTORE PUSH1 0x4 ADD PUSH2 0x219A SWAP2 SWAP1 PUSH2 0x35CA JUMP JUMPDEST PUSH1 0x40 MLOAD DUP1 SWAP2 SUB SWAP1 REVERT JUMPDEST PUSH1 0x0 PUSH20 0xFFFFFFFFFFFFFFFFFFFFFFFFFFFFFFFFFFFFFFFF AND DUP6 PUSH20 0xFFFFFFFFFFFFFFFFFFFFFFFFFFFFFFFFFFFFFFFF AND SUB PUSH2 0x2215 JUMPI PUSH1 0x0 PUSH1 0x40 MLOAD PUSH32 0x1A8351400000000000000000000000000000000000000000000000000000000 DUP2 MSTORE PUSH1 0x4 ADD PUSH2 0x220C SWAP2 SWAP1 PUSH2 0x35CA JUMP JUMPDEST PUSH1 0x40 MLOAD DUP1 SWAP2 SUB SWAP1 REVERT JUMPDEST PUSH1 0x0 DUP1 PUSH2 0x2222 DUP6 DUP6 PUSH2 0x2441 JUMP JUMPDEST SWAP2 POP SWAP2 POP PUSH2 0x2233 DUP8 DUP8 DUP5 DUP5 DUP8 PUSH2 0x238F JUMP JUMPDEST POP POP POP POP POP POP POP JUMP JUMPDEST PUSH1 0x0 DUP1 PUSH1 0x0 SWAP1 POP PUSH27 0x184F03E93FF9F4DAA797ED6E38ED64BF6A1F010000000000000000 DUP4 LT PUSH2 0x229A JUMPI PUSH27 0x184F03E93FF9F4DAA797ED6E38ED64BF6A1F010000000000000000 DUP4 DUP2 PUSH2 0x2290 JUMPI PUSH2 0x228F PUSH2 0x4203 JUMP JUMPDEST JUMPDEST DIV SWAP3 POP PUSH1 0x40 DUP2 ADD SWAP1 POP JUMPDEST PUSH14 0x4EE2D6D415B85ACEF8100000000 DUP4 LT PUSH2 0x22D7 JUMPI PUSH14 0x4EE2D6D415B85ACEF8100000000 DUP4 DUP2 PUSH2 0x22CD JUMPI PUSH2 0x22CC PUSH2 0x4203 JUMP JUMPDEST JUMPDEST DIV SWAP3 POP PUSH1 0x20 DUP2 ADD SWAP1 POP JUMPDEST PUSH7 0x2386F26FC10000 DUP4 LT PUSH2 0x2306 JUMPI PUSH7 0x2386F26FC10000 DUP4 DUP2 PUSH2 0x22FC JUMPI PUSH2 0x22FB PUSH2 0x4203 JUMP JUMPDEST JUMPDEST DIV SWAP3 POP PUSH1 0x10 DUP2 ADD SWAP1 POP JUMPDEST PUSH4 0x5F5E100 DUP4 LT PUSH2 0x232F JUMPI PUSH4 0x5F5E100 DUP4 DUP2 PUSH2 0x2325 JUMPI PUSH2 0x2324 PUSH2 0x4203 JUMP JUMPDEST JUMPDEST DIV SWAP3 POP PUSH1 0x8 DUP2 ADD SWAP1 POP JUMPDEST PUSH2 0x2710 DUP4 LT PUSH2 0x2354 JUMPI PUSH2 0x2710 DUP4 DUP2 PUSH2 0x234A JUMPI PUSH2 0x2349 PUSH2 0x4203 JUMP JUMPDEST JUMPDEST DIV SWAP3 POP PUSH1 0x4 DUP2 ADD SWAP1 POP JUMPDEST PUSH1 0x64 DUP4 LT PUSH2 0x2377 JUMPI PUSH1 0x64 DUP4 DUP2 PUSH2 0x236D JUMPI PUSH2 0x236C PUSH2 0x4203 JUMP JUMPDEST JUMPDEST DIV SWAP3 POP PUSH1 0x2 DUP2 ADD SWAP1 POP JUMPDEST PUSH1 0xA DUP4 LT PUSH2 0x2386 JUMPI PUSH1 0x1 DUP2 ADD SWAP1 POP JUMPDEST DUP1 SWAP2 POP POP SWAP2 SWAP1 POP JUMP JUMPDEST PUSH2 0x239B DUP6 DUP6 DUP6 DUP6 PUSH2 0x2471 JUMP JUMPDEST PUSH1 0x0 PUSH20 0xFFFFFFFFFFFFFFFFFFFFFFFFFFFFFFFFFFFFFFFF AND DUP5 PUSH20 0xFFFFFFFFFFFFFFFFFFFFFFFFFFFFFFFFFFFFFFFF AND EQ PUSH2 0x243A JUMPI PUSH1 0x0 PUSH2 0x23D9 PUSH2 0x1BFF JUMP JUMPDEST SWAP1 POP PUSH1 0x1 DUP5 MLOAD SUB PUSH2 0x2429 JUMPI PUSH1 0x0 PUSH2 0x23FA PUSH1 0x0 DUP7 PUSH2 0x1D13 SWAP1 SWAP2 SWAP1 PUSH4 0xFFFFFFFF AND JUMP JUMPDEST SWAP1 POP PUSH1 0x0 PUSH2 0x2412 PUSH1 0x0 DUP7 PUSH2 0x1D13 SWAP1 SWAP2 SWAP1 PUSH4 0xFFFFFFFF AND JUMP JUMPDEST SWAP1 POP PUSH2 0x2422 DUP4 DUP10 DUP10 DUP6 DUP6 DUP10 PUSH2 0x2819 JUMP JUMPDEST POP POP PUSH2 0x2438 JUMP JUMPDEST PUSH2 0x2437 DUP2 DUP8 DUP8 DUP8 DUP8 DUP8 PUSH2 0x29CD JUMP JUMPDEST JUMPDEST POP JUMPDEST POP POP POP POP POP JUMP JUMPDEST PUSH1 0x60 DUP1 PUSH1 0x40 MLOAD SWAP2 POP PUSH1 0x1 DUP3 MSTORE DUP4 PUSH1 0x20 DUP4 ADD MSTORE PUSH1 0x40 DUP3 ADD SWAP1 POP PUSH1 0x1 DUP2 MSTORE DUP3 PUSH1 0x20 DUP3 ADD MSTORE PUSH1 0x40 DUP2 ADD PUSH1 0x40 MSTORE SWAP3 POP SWAP3 SWAP1 POP JUMP JUMPDEST DUP1 MLOAD DUP3 MLOAD EQ PUSH2 0x24BB JUMPI DUP2 MLOAD DUP2 MLOAD PUSH1 0x40 MLOAD PUSH32 0x5B05999100000000000000000000000000000000000000000000000000000000 DUP2 MSTORE PUSH1 0x4 ADD PUSH2 0x24B2 SWAP3 SWAP2 SWAP1 PUSH2 0x3B27 JUMP JUMPDEST PUSH1 0x40 MLOAD DUP1 SWAP2 SUB SWAP1 REVERT JUMPDEST PUSH1 0x0 PUSH2 0x24C5 PUSH2 0x1BFF JUMP JUMPDEST SWAP1 POP PUSH1 0x0 JUMPDEST DUP4 MLOAD DUP2 LT ISZERO PUSH2 0x26D4 JUMPI PUSH1 0x0 PUSH2 0x24E8 DUP3 DUP7 PUSH2 0x1D13 SWAP1 SWAP2 SWAP1 PUSH4 0xFFFFFFFF AND JUMP JUMPDEST SWAP1 POP PUSH1 0x0 PUSH2 0x24FF DUP4 DUP7 PUSH2 0x1D13 SWAP1 SWAP2 SWAP1 PUSH4 0xFFFFFFFF AND JUMP JUMPDEST SWAP1 POP PUSH1 0x0 PUSH20 0xFFFFFFFFFFFFFFFFFFFFFFFFFFFFFFFFFFFFFFFF AND DUP9 PUSH20 0xFFFFFFFFFFFFFFFFFFFFFFFFFFFFFFFFFFFFFFFF AND EQ PUSH2 0x262C JUMPI PUSH1 0x0 DUP1 PUSH1 0x0 DUP5 DUP2 MSTORE PUSH1 0x20 ADD SWAP1 DUP2 MSTORE PUSH1 0x20 ADD PUSH1 0x0 KECCAK256 PUSH1 0x0 DUP11 PUSH20 0xFFFFFFFFFFFFFFFFFFFFFFFFFFFFFFFFFFFFFFFF AND PUSH20 0xFFFFFFFFFFFFFFFFFFFFFFFFFFFFFFFFFFFFFFFF AND DUP2 MSTORE PUSH1 0x20 ADD SWAP1 DUP2 MSTORE PUSH1 0x20 ADD PUSH1 0x0 KECCAK256 SLOAD SWAP1 POP DUP2 DUP2 LT ISZERO PUSH2 0x25D4 JUMPI DUP9 DUP2 DUP4 DUP6 PUSH1 0x40 MLOAD PUSH32 0x3DEE4C500000000000000000000000000000000000000000000000000000000 DUP2 MSTORE PUSH1 0x4 ADD PUSH2 0x25CB SWAP5 SWAP4 SWAP3 SWAP2 SWAP1 PUSH2 0x4232 JUMP JUMPDEST PUSH1 0x40 MLOAD DUP1 SWAP2 SUB SWAP1 REVERT JUMPDEST DUP2 DUP2 SUB PUSH1 0x0 DUP1 DUP6 DUP2 MSTORE PUSH1 0x20 ADD SWAP1 DUP2 MSTORE PUSH1 0x20 ADD PUSH1 0x0 KECCAK256 PUSH1 0x0 DUP12 PUSH20 0xFFFFFFFFFFFFFFFFFFFFFFFFFFFFFFFFFFFFFFFF AND PUSH20 0xFFFFFFFFFFFFFFFFFFFFFFFFFFFFFFFFFFFFFFFF AND DUP2 MSTORE PUSH1 0x20 ADD SWAP1 DUP2 MSTORE PUSH1 0x20 ADD PUSH1 0x0 KECCAK256 DUP2 SWAP1 SSTORE POP POP JUMPDEST PUSH1 0x0 PUSH20 0xFFFFFFFFFFFFFFFFFFFFFFFFFFFFFFFFFFFFFFFF AND DUP8 PUSH20 0xFFFFFFFFFFFFFFFFFFFFFFFFFFFFFFFFFFFFFFFF AND EQ PUSH2 0x26C7 JUMPI DUP1 PUSH1 0x0 DUP1 DUP5 DUP2 MSTORE PUSH1 0x20 ADD SWAP1 DUP2 MSTORE PUSH1 0x20 ADD PUSH1 0x0 KECCAK256 PUSH1 0x0 DUP10 PUSH20 0xFFFFFFFFFFFFFFFFFFFFFFFFFFFFFFFFFFFFFFFF AND PUSH20 0xFFFFFFFFFFFFFFFFFFFFFFFFFFFFFFFFFFFFFFFF AND DUP2 MSTORE PUSH1 0x20 ADD SWAP1 DUP2 MSTORE PUSH1 0x20 ADD PUSH1 0x0 KECCAK256 PUSH1 0x0 DUP3 DUP3 SLOAD PUSH2 0x26BF SWAP2 SWAP1 PUSH2 0x3F2A JUMP JUMPDEST SWAP3 POP POP DUP2 SWAP1 SSTORE POP JUMPDEST POP POP DUP1 PUSH1 0x1 ADD SWAP1 POP PUSH2 0x24CA JUMP JUMPDEST POP PUSH1 0x1 DUP4 MLOAD SUB PUSH2 0x2793 JUMPI PUSH1 0x0 PUSH2 0x26F4 PUSH1 0x0 DUP6 PUSH2 0x1D13 SWAP1 SWAP2 SWAP1 PUSH4 0xFFFFFFFF AND JUMP JUMPDEST SWAP1 POP PUSH1 0x0 PUSH2 0x270C PUSH1 0x0 DUP6 PUSH2 0x1D13 SWAP1 SWAP2 SWAP1 PUSH4 0xFFFFFFFF AND JUMP JUMPDEST SWAP1 POP DUP6 PUSH20 0xFFFFFFFFFFFFFFFFFFFFFFFFFFFFFFFFFFFFFFFF AND DUP8 PUSH20 0xFFFFFFFFFFFFFFFFFFFFFFFFFFFFFFFFFFFFFFFF AND DUP5 PUSH20 0xFFFFFFFFFFFFFFFFFFFFFFFFFFFFFFFFFFFFFFFF AND PUSH32 0xC3D58168C5AE7397731D063D5BBF3D657854427343F4C083240F7AACAA2D0F62 DUP6 DUP6 PUSH1 0x40 MLOAD PUSH2 0x2784 SWAP3 SWAP2 SWAP1 PUSH2 0x3B27 JUMP JUMPDEST PUSH1 0x40 MLOAD DUP1 SWAP2 SUB SWAP1 LOG4 POP POP PUSH2 0x2812 JUMP JUMPDEST DUP4 PUSH20 0xFFFFFFFFFFFFFFFFFFFFFFFFFFFFFFFFFFFFFFFF AND DUP6 PUSH20 0xFFFFFFFFFFFFFFFFFFFFFFFFFFFFFFFFFFFFFFFF AND DUP3 PUSH20 0xFFFFFFFFFFFFFFFFFFFFFFFFFFFFFFFFFFFFFFFF AND PUSH32 0x4A39DC06D4C0DBC64B70AF90FD698A233A518AA5D07E595D983B8C0526C8F7FB DUP7 DUP7 PUSH1 0x40 MLOAD PUSH2 0x2809 SWAP3 SWAP2 SWAP1 PUSH2 0x4277 JUMP JUMPDEST PUSH1 0x40 MLOAD DUP1 SWAP2 SUB SWAP1 LOG4 JUMPDEST POP POP POP POP POP JUMP JUMPDEST PUSH1 0x0 DUP5 PUSH20 0xFFFFFFFFFFFFFFFFFFFFFFFFFFFFFFFFFFFFFFFF AND EXTCODESIZE GT ISZERO PUSH2 0x29C5 JUMPI DUP4 PUSH20 0xFFFFFFFFFFFFFFFFFFFFFFFFFFFFFFFFFFFFFFFF AND PUSH4 0xF23A6E61 DUP8 DUP8 DUP7 DUP7 DUP7 PUSH1 0x40 MLOAD DUP7 PUSH4 0xFFFFFFFF AND PUSH1 0xE0 SHL DUP2 MSTORE PUSH1 0x4 ADD PUSH2 0x287A SWAP6 SWAP5 SWAP4 SWAP3 SWAP2 SWAP1 PUSH2 0x4303 JUMP JUMPDEST PUSH1 0x20 PUSH1 0x40 MLOAD DUP1 DUP4 SUB DUP2 PUSH1 0x0 DUP8 GAS CALL SWAP3 POP POP POP DUP1 ISZERO PUSH2 0x28B6 JUMPI POP PUSH1 0x40 MLOAD RETURNDATASIZE PUSH1 0x1F NOT PUSH1 0x1F DUP3 ADD AND DUP3 ADD DUP1 PUSH1 0x40 MSTORE POP DUP2 ADD SWAP1 PUSH2 0x28B3 SWAP2 SWAP1 PUSH2 0x4372 JUMP JUMPDEST PUSH1 0x1 JUMPDEST PUSH2 0x293A JUMPI RETURNDATASIZE DUP1 PUSH1 0x0 DUP2 EQ PUSH2 0x28E6 JUMPI PUSH1 0x40 MLOAD SWAP2 POP PUSH1 0x1F NOT PUSH1 0x3F RETURNDATASIZE ADD AND DUP3 ADD PUSH1 0x40 MSTORE RETURNDATASIZE DUP3 MSTORE RETURNDATASIZE PUSH1 0x0 PUSH1 0x20 DUP5 ADD RETURNDATACOPY PUSH2 0x28EB JUMP JUMPDEST PUSH1 0x60 SWAP2 POP JUMPDEST POP PUSH1 0x0 DUP2 MLOAD SUB PUSH2 0x2932 JUMPI DUP5 PUSH1 0x40 MLOAD PUSH32 0x57F447CE00000000000000000000000000000000000000000000000000000000 DUP2 MSTORE PUSH1 0x4 ADD PUSH2 0x2929 SWAP2 SWAP1 PUSH2 0x35CA JUMP JUMPDEST PUSH1 0x40 MLOAD DUP1 SWAP2 SUB SWAP1 REVERT JUMPDEST DUP1 MLOAD DUP2 PUSH1 0x20 ADD REVERT JUMPDEST PUSH4 0xF23A6E61 PUSH1 0xE0 SHL PUSH28 0xFFFFFFFFFFFFFFFFFFFFFFFFFFFFFFFFFFFFFFFFFFFFFFFFFFFFFFFF NOT AND DUP2 PUSH28 0xFFFFFFFFFFFFFFFFFFFFFFFFFFFFFFFFFFFFFFFFFFFFFFFFFFFFFFFF NOT AND EQ PUSH2 0x29C3 JUMPI DUP5 PUSH1 0x40 MLOAD PUSH32 0x57F447CE00000000000000000000000000000000000000000000000000000000 DUP2 MSTORE PUSH1 0x4 ADD PUSH2 0x29BA SWAP2 SWAP1 PUSH2 0x35CA JUMP JUMPDEST PUSH1 0x40 MLOAD DUP1 SWAP2 SUB SWAP1 REVERT JUMPDEST POP JUMPDEST POP POP POP POP POP POP JUMP JUMPDEST PUSH1 0x0 DUP5 PUSH20 0xFFFFFFFFFFFFFFFFFFFFFFFFFFFFFFFFFFFFFFFF AND EXTCODESIZE GT ISZERO PUSH2 0x2B79 JUMPI DUP4 PUSH20 0xFFFFFFFFFFFFFFFFFFFFFFFFFFFFFFFFFFFFFFFF AND PUSH4 0xBC197C81 DUP8 DUP8 DUP7 DUP7 DUP7 PUSH1 0x40 MLOAD DUP7 PUSH4 0xFFFFFFFF AND PUSH1 0xE0 SHL DUP2 MSTORE PUSH1 0x4 ADD PUSH2 0x2A2E SWAP6 SWAP5 SWAP4 SWAP3 SWAP2 SWAP1 PUSH2 0x439F JUMP JUMPDEST PUSH1 0x20 PUSH1 0x40 MLOAD DUP1 DUP4 SUB DUP2 PUSH1 0x0 DUP8 GAS CALL SWAP3 POP POP POP DUP1 ISZERO PUSH2 0x2A6A JUMPI POP PUSH1 0x40 MLOAD RETURNDATASIZE PUSH1 0x1F NOT PUSH1 0x1F DUP3 ADD AND DUP3 ADD DUP1 PUSH1 0x40 MSTORE POP DUP2 ADD SWAP1 PUSH2 0x2A67 SWAP2 SWAP1 PUSH2 0x4372 JUMP JUMPDEST PUSH1 0x1 JUMPDEST PUSH2 0x2AEE JUMPI RETURNDATASIZE DUP1 PUSH1 0x0 DUP2 EQ PUSH2 0x2A9A JUMPI PUSH1 0x40 MLOAD SWAP2 POP PUSH1 0x1F NOT PUSH1 0x3F RETURNDATASIZE ADD AND DUP3 ADD PUSH1 0x40 MSTORE RETURNDATASIZE DUP3 MSTORE RETURNDATASIZE PUSH1 0x0 PUSH1 0x20 DUP5 ADD RETURNDATACOPY PUSH2 0x2A9F JUMP JUMPDEST PUSH1 0x60 SWAP2 POP JUMPDEST POP PUSH1 0x0 DUP2 MLOAD SUB PUSH2 0x2AE6 JUMPI DUP5 PUSH1 0x40 MLOAD PUSH32 0x57F447CE00000000000000000000000000000000000000000000000000000000 DUP2 MSTORE PUSH1 0x4 ADD PUSH2 0x2ADD SWAP2 SWAP1 PUSH2 0x35CA JUMP JUMPDEST PUSH1 0x40 MLOAD DUP1 SWAP2 SUB SWAP1 REVERT JUMPDEST DUP1 MLOAD DUP2 PUSH1 0x20 ADD REVERT JUMPDEST PUSH4 0xBC197C81 PUSH1 0xE0 SHL PUSH28 0xFFFFFFFFFFFFFFFFFFFFFFFFFFFFFFFFFFFFFFFFFFFFFFFFFFFFFFFF NOT AND DUP2 PUSH28 0xFFFFFFFFFFFFFFFFFFFFFFFFFFFFFFFFFFFFFFFFFFFFFFFFFFFFFFFF NOT AND EQ PUSH2 0x2B77 JUMPI DUP5 PUSH1 0x40 MLOAD PUSH32 0x57F447CE00000000000000000000000000000000000000000000000000000000 DUP2 MSTORE PUSH1 0x4 ADD PUSH2 0x2B6E SWAP2 SWAP1 PUSH2 0x35CA JUMP JUMPDEST PUSH1 0x40 MLOAD DUP1 SWAP2 SUB SWAP1 REVERT JUMPDEST POP JUMPDEST POP POP POP POP POP POP JUMP JUMPDEST PUSH1 0x40 MLOAD DUP1 PUSH2 0x120 ADD PUSH1 0x40 MSTORE DUP1 PUSH1 0x0 PUSH20 0xFFFFFFFFFFFFFFFFFFFFFFFFFFFFFFFFFFFFFFFF AND DUP2 MSTORE PUSH1 0x20 ADD PUSH1 0x60 DUP2 MSTORE PUSH1 0x20 ADD PUSH1 0x0 ISZERO ISZERO DUP2 MSTORE PUSH1 0x20 ADD PUSH1 0x0 DUP2 MSTORE PUSH1 0x20 ADD PUSH1 0x0 DUP2 MSTORE PUSH1 0x20 ADD PUSH1 0x0 DUP2 MSTORE PUSH1 0x20 ADD PUSH1 0x0 DUP2 MSTORE PUSH1 0x20 ADD PUSH1 0x0 DUP2 MSTORE PUSH1 0x20 ADD PUSH1 0x0 DUP2 MSTORE POP SWAP1 JUMP JUMPDEST PUSH1 0x0 PUSH1 0x40 MLOAD SWAP1 POP SWAP1 JUMP JUMPDEST PUSH1 0x0 DUP1 REVERT JUMPDEST PUSH1 0x0 DUP1 REVERT JUMPDEST PUSH1 0x0 PUSH20 0xFFFFFFFFFFFFFFFFFFFFFFFFFFFFFFFFFFFFFFFF DUP3 AND SWAP1 POP SWAP2 SWAP1 POP JUMP JUMPDEST PUSH1 0x0 PUSH2 0x2C24 DUP3 PUSH2 0x2BF9 JUMP JUMPDEST SWAP1 POP SWAP2 SWAP1 POP JUMP JUMPDEST PUSH2 0x2C34 DUP2 PUSH2 0x2C19 JUMP JUMPDEST DUP2 EQ PUSH2 0x2C3F JUMPI PUSH1 0x0 DUP1 REVERT JUMPDEST POP JUMP JUMPDEST PUSH1 0x0 DUP2 CALLDATALOAD SWAP1 POP PUSH2 0x2C51 DUP2 PUSH2 0x2C2B JUMP JUMPDEST SWAP3 SWAP2 POP POP JUMP JUMPDEST PUSH1 0x0 DUP2 SWAP1 POP SWAP2 SWAP1 POP JUMP JUMPDEST PUSH2 0x2C6A DUP2 PUSH2 0x2C57 JUMP JUMPDEST DUP2 EQ PUSH2 0x2C75 JUMPI PUSH1 0x0 DUP1 REVERT JUMPDEST POP JUMP JUMPDEST PUSH1 0x0 DUP2 CALLDATALOAD SWAP1 POP PUSH2 0x2C87 DUP2 PUSH2 0x2C61 JUMP JUMPDEST SWAP3 SWAP2 POP POP JUMP JUMPDEST PUSH1 0x0 DUP1 PUSH1 0x40 DUP4 DUP6 SUB SLT ISZERO PUSH2 0x2CA4 JUMPI PUSH2 0x2CA3 PUSH2 0x2BEF JUMP JUMPDEST JUMPDEST PUSH1 0x0 PUSH2 0x2CB2 DUP6 DUP3 DUP7 ADD PUSH2 0x2C42 JUMP JUMPDEST SWAP3 POP POP PUSH1 0x20 PUSH2 0x2CC3 DUP6 DUP3 DUP7 ADD PUSH2 0x2C78 JUMP JUMPDEST SWAP2 POP POP SWAP3 POP SWAP3 SWAP1 POP JUMP JUMPDEST PUSH2 0x2CD6 DUP2 PUSH2 0x2C57 JUMP JUMPDEST DUP3 MSTORE POP POP JUMP JUMPDEST PUSH1 0x0 PUSH1 0x20 DUP3 ADD SWAP1 POP PUSH2 0x2CF1 PUSH1 0x0 DUP4 ADD DUP5 PUSH2 0x2CCD JUMP JUMPDEST SWAP3 SWAP2 POP POP JUMP JUMPDEST PUSH1 0x0 PUSH32 0xFFFFFFFF00000000000000000000000000000000000000000000000000000000 DUP3 AND SWAP1 POP SWAP2 SWAP1 POP JUMP JUMPDEST PUSH2 0x2D2C DUP2 PUSH2 0x2CF7 JUMP JUMPDEST DUP2 EQ PUSH2 0x2D37 JUMPI PUSH1 0x0 DUP1 REVERT JUMPDEST POP JUMP JUMPDEST PUSH1 0x0 DUP2 CALLDATALOAD SWAP1 POP PUSH2 0x2D49 DUP2 PUSH2 0x2D23 JUMP JUMPDEST SWAP3 SWAP2 POP POP JUMP JUMPDEST PUSH1 0x0 PUSH1 0x20 DUP3 DUP5 SUB SLT ISZERO PUSH2 0x2D65 JUMPI PUSH2 0x2D64 PUSH2 0x2BEF JUMP JUMPDEST JUMPDEST PUSH1 0x0 PUSH2 0x2D73 DUP5 DUP3 DUP6 ADD PUSH2 0x2D3A JUMP JUMPDEST SWAP2 POP POP SWAP3 SWAP2 POP POP JUMP JUMPDEST PUSH1 0x0 DUP2 ISZERO ISZERO SWAP1 POP SWAP2 SWAP1 POP JUMP JUMPDEST PUSH2 0x2D91 DUP2 PUSH2 0x2D7C JUMP JUMPDEST DUP3 MSTORE POP POP JUMP JUMPDEST PUSH1 0x0 PUSH1 0x20 DUP3 ADD SWAP1 POP PUSH2 0x2DAC PUSH1 0x0 DUP4 ADD DUP5 PUSH2 0x2D88 JUMP JUMPDEST SWAP3 SWAP2 POP POP JUMP JUMPDEST PUSH1 0x0 PUSH1 0x20 DUP3 DUP5 SUB SLT ISZERO PUSH2 0x2DC8 JUMPI PUSH2 0x2DC7 PUSH2 0x2BEF JUMP JUMPDEST JUMPDEST PUSH1 0x0 PUSH2 0x2DD6 DUP5 DUP3 DUP6 ADD PUSH2 0x2C78 JUMP JUMPDEST SWAP2 POP POP SWAP3 SWAP2 POP POP JUMP JUMPDEST PUSH1 0x0 DUP2 MLOAD SWAP1 POP SWAP2 SWAP1 POP JUMP JUMPDEST PUSH1 0x0 DUP3 DUP3 MSTORE PUSH1 0x20 DUP3 ADD SWAP1 POP SWAP3 SWAP2 POP POP JUMP JUMPDEST PUSH1 0x0 JUMPDEST DUP4 DUP2 LT ISZERO PUSH2 0x2E19 JUMPI DUP1 DUP3 ADD MLOAD DUP2 DUP5 ADD MSTORE PUSH1 0x20 DUP2 ADD SWAP1 POP PUSH2 0x2DFE JUMP JUMPDEST PUSH1 0x0 DUP5 DUP5 ADD MSTORE POP POP POP POP JUMP JUMPDEST PUSH1 0x0 PUSH1 0x1F NOT PUSH1 0x1F DUP4 ADD AND SWAP1 POP SWAP2 SWAP1 POP JUMP JUMPDEST PUSH1 0x0 PUSH2 0x2E41 DUP3 PUSH2 0x2DDF JUMP JUMPDEST PUSH2 0x2E4B DUP2 DUP6 PUSH2 0x2DEA JUMP JUMPDEST SWAP4 POP PUSH2 0x2E5B DUP2 DUP6 PUSH1 0x20 DUP7 ADD PUSH2 0x2DFB JUMP JUMPDEST PUSH2 0x2E64 DUP2 PUSH2 0x2E25 JUMP JUMPDEST DUP5 ADD SWAP2 POP POP SWAP3 SWAP2 POP POP JUMP JUMPDEST PUSH1 0x0 PUSH1 0x20 DUP3 ADD SWAP1 POP DUP2 DUP2 SUB PUSH1 0x0 DUP4 ADD MSTORE PUSH2 0x2E89 DUP2 DUP5 PUSH2 0x2E36 JUMP JUMPDEST SWAP1 POP SWAP3 SWAP2 POP POP JUMP JUMPDEST PUSH1 0x0 DUP1 REVERT JUMPDEST PUSH32 0x4E487B7100000000000000000000000000000000000000000000000000000000 PUSH1 0x0 MSTORE PUSH1 0x41 PUSH1 0x4 MSTORE PUSH1 0x24 PUSH1 0x0 REVERT JUMPDEST PUSH2 0x2ECE DUP3 PUSH2 0x2E25 JUMP JUMPDEST DUP2 ADD DUP2 DUP2 LT PUSH8 0xFFFFFFFFFFFFFFFF DUP3 GT OR ISZERO PUSH2 0x2EED JUMPI PUSH2 0x2EEC PUSH2 0x2E96 JUMP JUMPDEST JUMPDEST DUP1 PUSH1 0x40 MSTORE POP POP POP JUMP JUMPDEST PUSH1 0x0 PUSH2 0x2F00 PUSH2 0x2BE5 JUMP JUMPDEST SWAP1 POP PUSH2 0x2F0C DUP3 DUP3 PUSH2 0x2EC5 JUMP JUMPDEST SWAP2 SWAP1 POP JUMP JUMPDEST PUSH1 0x0 PUSH8 0xFFFFFFFFFFFFFFFF DUP3 GT ISZERO PUSH2 0x2F2C JUMPI PUSH2 0x2F2B PUSH2 0x2E96 JUMP JUMPDEST JUMPDEST PUSH1 0x20 DUP3 MUL SWAP1 POP PUSH1 0x20 DUP2 ADD SWAP1 POP SWAP2 SWAP1 POP JUMP JUMPDEST PUSH1 0x0 DUP1 REVERT JUMPDEST PUSH1 0x0 PUSH2 0x2F55 PUSH2 0x2F50 DUP5 PUSH2 0x2F11 JUMP JUMPDEST PUSH2 0x2EF6 JUMP JUMPDEST SWAP1 POP DUP1 DUP4 DUP3 MSTORE PUSH1 0x20 DUP3 ADD SWAP1 POP PUSH1 0x20 DUP5 MUL DUP4 ADD DUP6 DUP2 GT ISZERO PUSH2 0x2F78 JUMPI PUSH2 0x2F77 PUSH2 0x2F3D JUMP JUMPDEST JUMPDEST DUP4 JUMPDEST DUP2 DUP2 LT ISZERO PUSH2 0x2FA1 JUMPI DUP1 PUSH2 0x2F8D DUP9 DUP3 PUSH2 0x2C78 JUMP JUMPDEST DUP5 MSTORE PUSH1 0x20 DUP5 ADD SWAP4 POP POP PUSH1 0x20 DUP2 ADD SWAP1 POP PUSH2 0x2F7A JUMP JUMPDEST POP POP POP SWAP4 SWAP3 POP POP POP JUMP JUMPDEST PUSH1 0x0 DUP3 PUSH1 0x1F DUP4 ADD SLT PUSH2 0x2FC0 JUMPI PUSH2 0x2FBF PUSH2 0x2E91 JUMP JUMPDEST JUMPDEST DUP2 CALLDATALOAD PUSH2 0x2FD0 DUP5 DUP3 PUSH1 0x20 DUP7 ADD PUSH2 0x2F42 JUMP JUMPDEST SWAP2 POP POP SWAP3 SWAP2 POP POP JUMP JUMPDEST PUSH1 0x0 DUP1 REVERT JUMPDEST PUSH1 0x0 PUSH8 0xFFFFFFFFFFFFFFFF DUP3 GT ISZERO PUSH2 0x2FF9 JUMPI PUSH2 0x2FF8 PUSH2 0x2E96 JUMP JUMPDEST JUMPDEST PUSH2 0x3002 DUP3 PUSH2 0x2E25 JUMP JUMPDEST SWAP1 POP PUSH1 0x20 DUP2 ADD SWAP1 POP SWAP2 SWAP1 POP JUMP JUMPDEST DUP3 DUP2 DUP4 CALLDATACOPY PUSH1 0x0 DUP4 DUP4 ADD MSTORE POP POP POP JUMP JUMPDEST PUSH1 0x0 PUSH2 0x3031 PUSH2 0x302C DUP5 PUSH2 0x2FDE JUMP JUMPDEST PUSH2 0x2EF6 JUMP JUMPDEST SWAP1 POP DUP3 DUP2 MSTORE PUSH1 0x20 DUP2 ADD DUP5 DUP5 DUP5 ADD GT ISZERO PUSH2 0x304D JUMPI PUSH2 0x304C PUSH2 0x2FD9 JUMP JUMPDEST JUMPDEST PUSH2 0x3058 DUP5 DUP3 DUP6 PUSH2 0x300F JUMP JUMPDEST POP SWAP4 SWAP3 POP POP POP JUMP JUMPDEST PUSH1 0x0 DUP3 PUSH1 0x1F DUP4 ADD SLT PUSH2 0x3075 JUMPI PUSH2 0x3074 PUSH2 0x2E91 JUMP JUMPDEST JUMPDEST DUP2 CALLDATALOAD PUSH2 0x3085 DUP5 DUP3 PUSH1 0x20 DUP7 ADD PUSH2 0x301E JUMP JUMPDEST SWAP2 POP POP SWAP3 SWAP2 POP POP JUMP JUMPDEST PUSH1 0x0 DUP1 PUSH1 0x0 DUP1 PUSH1 0x80 DUP6 DUP8 SUB SLT ISZERO PUSH2 0x30A8 JUMPI PUSH2 0x30A7 PUSH2 0x2BEF JUMP JUMPDEST JUMPDEST PUSH1 0x0 PUSH2 0x30B6 DUP8 DUP3 DUP9 ADD PUSH2 0x2C42 JUMP JUMPDEST SWAP5 POP POP PUSH1 0x20 DUP6 ADD CALLDATALOAD PUSH8 0xFFFFFFFFFFFFFFFF DUP2 GT ISZERO PUSH2 0x30D7 JUMPI PUSH2 0x30D6 PUSH2 0x2BF4 JUMP JUMPDEST JUMPDEST PUSH2 0x30E3 DUP8 DUP3 DUP9 ADD PUSH2 0x2FAB JUMP JUMPDEST SWAP4 POP POP PUSH1 0x40 DUP6 ADD CALLDATALOAD PUSH8 0xFFFFFFFFFFFFFFFF DUP2 GT ISZERO PUSH2 0x3104 JUMPI PUSH2 0x3103 PUSH2 0x2BF4 JUMP JUMPDEST JUMPDEST PUSH2 0x3110 DUP8 DUP3 DUP9 ADD PUSH2 0x2FAB JUMP JUMPDEST SWAP3 POP POP PUSH1 0x60 DUP6 ADD CALLDATALOAD PUSH8 0xFFFFFFFFFFFFFFFF DUP2 GT ISZERO PUSH2 0x3131 JUMPI PUSH2 0x3130 PUSH2 0x2BF4 JUMP JUMPDEST JUMPDEST PUSH2 0x313D DUP8 DUP3 DUP9 ADD PUSH2 0x3060 JUMP JUMPDEST SWAP2 POP POP SWAP3 SWAP6 SWAP2 SWAP5 POP SWAP3 POP JUMP JUMPDEST PUSH1 0x0 DUP1 PUSH1 0x0 DUP1 PUSH1 0x0 PUSH1 0xA0 DUP7 DUP9 SUB SLT ISZERO PUSH2 0x3165 JUMPI PUSH2 0x3164 PUSH2 0x2BEF JUMP JUMPDEST JUMPDEST PUSH1 0x0 PUSH2 0x3173 DUP9 DUP3 DUP10 ADD PUSH2 0x2C42 JUMP JUMPDEST SWAP6 POP POP PUSH1 0x20 PUSH2 0x3184 DUP9 DUP3 DUP10 ADD PUSH2 0x2C42 JUMP JUMPDEST SWAP5 POP POP PUSH1 0x40 DUP7 ADD CALLDATALOAD PUSH8 0xFFFFFFFFFFFFFFFF DUP2 GT ISZERO PUSH2 0x31A5 JUMPI PUSH2 0x31A4 PUSH2 0x2BF4 JUMP JUMPDEST JUMPDEST PUSH2 0x31B1 DUP9 DUP3 DUP10 ADD PUSH2 0x2FAB JUMP JUMPDEST SWAP4 POP POP PUSH1 0x60 DUP7 ADD CALLDATALOAD PUSH8 0xFFFFFFFFFFFFFFFF DUP2 GT ISZERO PUSH2 0x31D2 JUMPI PUSH2 0x31D1 PUSH2 0x2BF4 JUMP JUMPDEST JUMPDEST PUSH2 0x31DE DUP9 DUP3 DUP10 ADD PUSH2 0x2FAB JUMP JUMPDEST SWAP3 POP POP PUSH1 0x80 DUP7 ADD CALLDATALOAD PUSH8 0xFFFFFFFFFFFFFFFF DUP2 GT ISZERO PUSH2 0x31FF JUMPI PUSH2 0x31FE PUSH2 0x2BF4 JUMP JUMPDEST JUMPDEST PUSH2 0x320B DUP9 DUP3 DUP10 ADD PUSH2 0x3060 JUMP JUMPDEST SWAP2 POP POP SWAP3 SWAP6 POP SWAP3 SWAP6 SWAP1 SWAP4 POP JUMP JUMPDEST PUSH1 0x0 PUSH8 0xFFFFFFFFFFFFFFFF DUP3 GT ISZERO PUSH2 0x3233 JUMPI PUSH2 0x3232 PUSH2 0x2E96 JUMP JUMPDEST JUMPDEST PUSH1 0x20 DUP3 MUL SWAP1 POP PUSH1 0x20 DUP2 ADD SWAP1 POP SWAP2 SWAP1 POP JUMP JUMPDEST PUSH1 0x0 PUSH2 0x3257 PUSH2 0x3252 DUP5 PUSH2 0x3218 JUMP JUMPDEST PUSH2 0x2EF6 JUMP JUMPDEST SWAP1 POP DUP1 DUP4 DUP3 MSTORE PUSH1 0x20 DUP3 ADD SWAP1 POP PUSH1 0x20 DUP5 MUL DUP4 ADD DUP6 DUP2 GT ISZERO PUSH2 0x327A JUMPI PUSH2 0x3279 PUSH2 0x2F3D JUMP JUMPDEST JUMPDEST DUP4 JUMPDEST DUP2 DUP2 LT ISZERO PUSH2 0x32A3 JUMPI DUP1 PUSH2 0x328F DUP9 DUP3 PUSH2 0x2C42 JUMP JUMPDEST DUP5 MSTORE PUSH1 0x20 DUP5 ADD SWAP4 POP POP PUSH1 0x20 DUP2 ADD SWAP1 POP PUSH2 0x327C JUMP JUMPDEST POP POP POP SWAP4 SWAP3 POP POP POP JUMP JUMPDEST PUSH1 0x0 DUP3 PUSH1 0x1F DUP4 ADD SLT PUSH2 0x32C2 JUMPI PUSH2 0x32C1 PUSH2 0x2E91 JUMP JUMPDEST JUMPDEST DUP2 CALLDATALOAD PUSH2 0x32D2 DUP5 DUP3 PUSH1 0x20 DUP7 ADD PUSH2 0x3244 JUMP JUMPDEST SWAP2 POP POP SWAP3 SWAP2 POP POP JUMP JUMPDEST PUSH1 0x0 DUP1 PUSH1 0x40 DUP4 DUP6 SUB SLT ISZERO PUSH2 0x32F2 JUMPI PUSH2 0x32F1 PUSH2 0x2BEF JUMP JUMPDEST JUMPDEST PUSH1 0x0 DUP4 ADD CALLDATALOAD PUSH8 0xFFFFFFFFFFFFFFFF DUP2 GT ISZERO PUSH2 0x3310 JUMPI PUSH2 0x330F PUSH2 0x2BF4 JUMP JUMPDEST JUMPDEST PUSH2 0x331C DUP6 DUP3 DUP7 ADD PUSH2 0x32AD JUMP JUMPDEST SWAP3 POP POP PUSH1 0x20 DUP4 ADD CALLDATALOAD PUSH8 0xFFFFFFFFFFFFFFFF DUP2 GT ISZERO PUSH2 0x333D JUMPI PUSH2 0x333C PUSH2 0x2BF4 JUMP JUMPDEST JUMPDEST PUSH2 0x3349 DUP6 DUP3 DUP7 ADD PUSH2 0x2FAB JUMP JUMPDEST SWAP2 POP POP SWAP3 POP SWAP3 SWAP1 POP JUMP JUMPDEST PUSH1 0x0 DUP2 MLOAD SWAP1 POP SWAP2 SWAP1 POP JUMP JUMPDEST PUSH1 0x0 DUP3 DUP3 MSTORE PUSH1 0x20 DUP3 ADD SWAP1 POP SWAP3 SWAP2 POP POP JUMP JUMPDEST PUSH1 0x0 DUP2 SWAP1 POP PUSH1 0x20 DUP3 ADD SWAP1 POP SWAP2 SWAP1 POP JUMP JUMPDEST PUSH2 0x3388 DUP2 PUSH2 0x2C57 JUMP JUMPDEST DUP3 MSTORE POP POP JUMP JUMPDEST PUSH1 0x0 PUSH2 0x339A DUP4 DUP4 PUSH2 0x337F JUMP JUMPDEST PUSH1 0x20 DUP4 ADD SWAP1 POP SWAP3 SWAP2 POP POP JUMP JUMPDEST PUSH1 0x0 PUSH1 0x20 DUP3 ADD SWAP1 POP SWAP2 SWAP1 POP JUMP JUMPDEST PUSH1 0x0 PUSH2 0x33BE DUP3 PUSH2 0x3353 JUMP JUMPDEST PUSH2 0x33C8 DUP2 DUP6 PUSH2 0x335E JUMP JUMPDEST SWAP4 POP PUSH2 0x33D3 DUP4 PUSH2 0x336F JUMP JUMPDEST DUP1 PUSH1 0x0 JUMPDEST DUP4 DUP2 LT ISZERO PUSH2 0x3404 JUMPI DUP2 MLOAD PUSH2 0x33EB DUP9 DUP3 PUSH2 0x338E JUMP JUMPDEST SWAP8 POP PUSH2 0x33F6 DUP4 PUSH2 0x33A6 JUMP JUMPDEST SWAP3 POP POP PUSH1 0x1 DUP2 ADD SWAP1 POP PUSH2 0x33D7 JUMP JUMPDEST POP DUP6 SWAP4 POP POP POP POP SWAP3 SWAP2 POP POP JUMP JUMPDEST PUSH1 0x0 PUSH1 0x20 DUP3 ADD SWAP1 POP DUP2 DUP2 SUB PUSH1 0x0 DUP4 ADD MSTORE PUSH2 0x342B DUP2 DUP5 PUSH2 0x33B3 JUMP JUMPDEST SWAP1 POP SWAP3 SWAP2 POP POP JUMP JUMPDEST PUSH1 0x0 DUP1 PUSH1 0x0 PUSH1 0x60 DUP5 DUP7 SUB SLT ISZERO PUSH2 0x344C JUMPI PUSH2 0x344B PUSH2 0x2BEF JUMP JUMPDEST JUMPDEST PUSH1 0x0 PUSH2 0x345A DUP7 DUP3 DUP8 ADD PUSH2 0x2C42 JUMP JUMPDEST SWAP4 POP POP PUSH1 0x20 DUP5 ADD CALLDATALOAD PUSH8 0xFFFFFFFFFFFFFFFF DUP2 GT ISZERO PUSH2 0x347B JUMPI PUSH2 0x347A PUSH2 0x2BF4 JUMP JUMPDEST JUMPDEST PUSH2 0x3487 DUP7 DUP3 DUP8 ADD PUSH2 0x2FAB JUMP JUMPDEST SWAP3 POP POP PUSH1 0x40 DUP5 ADD CALLDATALOAD PUSH8 0xFFFFFFFFFFFFFFFF DUP2 GT ISZERO PUSH2 0x34A8 JUMPI PUSH2 0x34A7 PUSH2 0x2BF4 JUMP JUMPDEST JUMPDEST PUSH2 0x34B4 DUP7 DUP3 DUP8 ADD PUSH2 0x2FAB JUMP JUMPDEST SWAP2 POP POP SWAP3 POP SWAP3 POP SWAP3 JUMP JUMPDEST PUSH1 0x0 PUSH8 0xFFFFFFFFFFFFFFFF DUP3 GT ISZERO PUSH2 0x34D9 JUMPI PUSH2 0x34D8 PUSH2 0x2E96 JUMP JUMPDEST JUMPDEST PUSH2 0x34E2 DUP3 PUSH2 0x2E25 JUMP JUMPDEST SWAP1 POP PUSH1 0x20 DUP2 ADD SWAP1 POP SWAP2 SWAP1 POP JUMP JUMPDEST PUSH1 0x0 PUSH2 0x3502 PUSH2 0x34FD DUP5 PUSH2 0x34BE JUMP JUMPDEST PUSH2 0x2EF6 JUMP JUMPDEST SWAP1 POP DUP3 DUP2 MSTORE PUSH1 0x20 DUP2 ADD DUP5 DUP5 DUP5 ADD GT ISZERO PUSH2 0x351E JUMPI PUSH2 0x351D PUSH2 0x2FD9 JUMP JUMPDEST JUMPDEST PUSH2 0x3529 DUP5 DUP3 DUP6 PUSH2 0x300F JUMP JUMPDEST POP SWAP4 SWAP3 POP POP POP JUMP JUMPDEST PUSH1 0x0 DUP3 PUSH1 0x1F DUP4 ADD SLT PUSH2 0x3546 JUMPI PUSH2 0x3545 PUSH2 0x2E91 JUMP JUMPDEST JUMPDEST DUP2 CALLDATALOAD PUSH2 0x3556 DUP5 DUP3 PUSH1 0x20 DUP7 ADD PUSH2 0x34EF JUMP JUMPDEST SWAP2 POP POP SWAP3 SWAP2 POP POP JUMP JUMPDEST PUSH1 0x0 DUP1 PUSH1 0x40 DUP4 DUP6 SUB SLT ISZERO PUSH2 0x3576 JUMPI PUSH2 0x3575 PUSH2 0x2BEF JUMP JUMPDEST JUMPDEST PUSH1 0x0 PUSH2 0x3584 DUP6 DUP3 DUP7 ADD PUSH2 0x2C78 JUMP JUMPDEST SWAP3 POP POP PUSH1 0x20 DUP4 ADD CALLDATALOAD PUSH8 0xFFFFFFFFFFFFFFFF DUP2 GT ISZERO PUSH2 0x35A5 JUMPI PUSH2 0x35A4 PUSH2 0x2BF4 JUMP JUMPDEST JUMPDEST PUSH2 0x35B1 DUP6 DUP3 DUP7 ADD PUSH2 0x3531 JUMP JUMPDEST SWAP2 POP POP SWAP3 POP SWAP3 SWAP1 POP JUMP JUMPDEST PUSH2 0x35C4 DUP2 PUSH2 0x2C19 JUMP JUMPDEST DUP3 MSTORE POP POP JUMP JUMPDEST PUSH1 0x0 PUSH1 0x20 DUP3 ADD SWAP1 POP PUSH2 0x35DF PUSH1 0x0 DUP4 ADD DUP5 PUSH2 0x35BB JUMP JUMPDEST SWAP3 SWAP2 POP POP JUMP JUMPDEST PUSH1 0x0 PUSH1 0x20 DUP3 DUP5 SUB SLT ISZERO PUSH2 0x35FB JUMPI PUSH2 0x35FA PUSH2 0x2BEF JUMP JUMPDEST JUMPDEST PUSH1 0x0 PUSH2 0x3609 DUP5 DUP3 DUP6 ADD PUSH2 0x2C42 JUMP JUMPDEST SWAP2 POP POP SWAP3 SWAP2 POP POP JUMP JUMPDEST PUSH1 0x0 PUSH2 0x120 DUP3 ADD SWAP1 POP PUSH2 0x3628 PUSH1 0x0 DUP4 ADD DUP13 PUSH2 0x35BB JUMP JUMPDEST DUP2 DUP2 SUB PUSH1 0x20 DUP4 ADD MSTORE PUSH2 0x363A DUP2 DUP12 PUSH2 0x2E36 JUMP JUMPDEST SWAP1 POP PUSH2 0x3649 PUSH1 0x40 DUP4 ADD DUP11 PUSH2 0x2D88 JUMP JUMPDEST PUSH2 0x3656 PUSH1 0x60 DUP4 ADD DUP10 PUSH2 0x2CCD JUMP JUMPDEST PUSH2 0x3663 PUSH1 0x80 DUP4 ADD DUP9 PUSH2 0x2CCD JUMP JUMPDEST PUSH2 0x3670 PUSH1 0xA0 DUP4 ADD DUP8 PUSH2 0x2CCD JUMP JUMPDEST PUSH2 0x367D PUSH1 0xC0 DUP4 ADD DUP7 PUSH2 0x2CCD JUMP JUMPDEST PUSH2 0x368A PUSH1 0xE0 DUP4 ADD DUP6 PUSH2 0x2CCD JUMP JUMPDEST PUSH2 0x3698 PUSH2 0x100 DUP4 ADD DUP5 PUSH2 0x2CCD JUMP JUMPDEST SWAP11 SWAP10 POP POP POP POP POP POP POP POP POP POP JUMP JUMPDEST PUSH2 0x36AF DUP2 PUSH2 0x2D7C JUMP JUMPDEST DUP2 EQ PUSH2 0x36BA JUMPI PUSH1 0x0 DUP1 REVERT JUMPDEST POP JUMP JUMPDEST PUSH1 0x0 DUP2 CALLDATALOAD SWAP1 POP PUSH2 0x36CC DUP2 PUSH2 0x36A6 JUMP JUMPDEST SWAP3 SWAP2 POP POP JUMP JUMPDEST PUSH1 0x0 DUP1 PUSH1 0x40 DUP4 DUP6 SUB SLT ISZERO PUSH2 0x36E9 JUMPI PUSH2 0x36E8 PUSH2 0x2BEF JUMP JUMPDEST JUMPDEST PUSH1 0x0 PUSH2 0x36F7 DUP6 DUP3 DUP7 ADD PUSH2 0x2C42 JUMP JUMPDEST SWAP3 POP POP PUSH1 0x20 PUSH2 0x3708 DUP6 DUP3 DUP7 ADD PUSH2 0x36BD JUMP JUMPDEST SWAP2 POP POP SWAP3 POP SWAP3 SWAP1 POP JUMP JUMPDEST PUSH1 0x0 DUP1 PUSH1 0x40 DUP4 DUP6 SUB SLT ISZERO PUSH2 0x3729 JUMPI PUSH2 0x3728 PUSH2 0x2BEF JUMP JUMPDEST JUMPDEST PUSH1 0x0 PUSH2 0x3737 DUP6 DUP3 DUP7 ADD PUSH2 0x2C42 JUMP JUMPDEST SWAP3 POP POP PUSH1 0x20 DUP4 ADD CALLDATALOAD PUSH8 0xFFFFFFFFFFFFFFFF DUP2 GT ISZERO PUSH2 0x3758 JUMPI PUSH2 0x3757 PUSH2 0x2BF4 JUMP JUMPDEST JUMPDEST PUSH2 0x3764 DUP6 DUP3 DUP7 ADD PUSH2 0x3531 JUMP JUMPDEST SWAP2 POP POP SWAP3 POP SWAP3 SWAP1 POP JUMP JUMPDEST PUSH1 0x0 DUP1 PUSH1 0x40 DUP4 DUP6 SUB SLT ISZERO PUSH2 0x3785 JUMPI PUSH2 0x3784 PUSH2 0x2BEF JUMP JUMPDEST JUMPDEST PUSH1 0x0 PUSH2 0x3793 DUP6 DUP3 DUP7 ADD PUSH2 0x2C42 JUMP JUMPDEST SWAP3 POP POP PUSH1 0x20 PUSH2 0x37A4 DUP6 DUP3 DUP7 ADD PUSH2 0x2C42 JUMP JUMPDEST SWAP2 POP POP SWAP3 POP SWAP3 SWAP1 POP JUMP JUMPDEST PUSH1 0x0 DUP1 PUSH1 0x0 DUP1 PUSH1 0x0 PUSH1 0xA0 DUP7 DUP9 SUB SLT ISZERO PUSH2 0x37CA JUMPI PUSH2 0x37C9 PUSH2 0x2BEF JUMP JUMPDEST JUMPDEST PUSH1 0x0 PUSH2 0x37D8 DUP9 DUP3 DUP10 ADD PUSH2 0x2C42 JUMP JUMPDEST SWAP6 POP POP PUSH1 0x20 PUSH2 0x37E9 DUP9 DUP3 DUP10 ADD PUSH2 0x2C42 JUMP JUMPDEST SWAP5 POP POP PUSH1 0x40 PUSH2 0x37FA DUP9 DUP3 DUP10 ADD PUSH2 0x2C78 JUMP JUMPDEST SWAP4 POP POP PUSH1 0x60 PUSH2 0x380B DUP9 DUP3 DUP10 ADD PUSH2 0x2C78 JUMP JUMPDEST SWAP3 POP POP PUSH1 0x80 DUP7 ADD CALLDATALOAD PUSH8 0xFFFFFFFFFFFFFFFF DUP2 GT ISZERO PUSH2 0x382C JUMPI PUSH2 0x382B PUSH2 0x2BF4 JUMP JUMPDEST JUMPDEST PUSH2 0x3838 DUP9 DUP3 DUP10 ADD PUSH2 0x3060 JUMP JUMPDEST SWAP2 POP POP SWAP3 SWAP6 POP SWAP3 SWAP6 SWAP1 SWAP4 POP JUMP JUMPDEST PUSH1 0x0 DUP1 PUSH1 0x0 PUSH1 0x60 DUP5 DUP7 SUB SLT ISZERO PUSH2 0x385E JUMPI PUSH2 0x385D PUSH2 0x2BEF JUMP JUMPDEST JUMPDEST PUSH1 0x0 PUSH2 0x386C DUP7 DUP3 DUP8 ADD PUSH2 0x2C42 JUMP JUMPDEST SWAP4 POP POP PUSH1 0x20 PUSH2 0x387D DUP7 DUP3 DUP8 ADD PUSH2 0x2C78 JUMP JUMPDEST SWAP3 POP POP PUSH1 0x40 PUSH2 0x388E DUP7 DUP3 DUP8 ADD PUSH2 0x2C78 JUMP JUMPDEST SWAP2 POP POP SWAP3 POP SWAP3 POP SWAP3 JUMP JUMPDEST PUSH2 0x38A1 DUP2 PUSH2 0x2C19 JUMP JUMPDEST DUP3 MSTORE POP POP JUMP JUMPDEST PUSH1 0x0 DUP3 DUP3 MSTORE PUSH1 0x20 DUP3 ADD SWAP1 POP SWAP3 SWAP2 POP POP JUMP JUMPDEST PUSH1 0x0 PUSH2 0x38C3 DUP3 PUSH2 0x2DDF JUMP JUMPDEST PUSH2 0x38CD DUP2 DUP6 PUSH2 0x38A7 JUMP JUMPDEST SWAP4 POP PUSH2 0x38DD DUP2 DUP6 PUSH1 0x20 DUP7 ADD PUSH2 0x2DFB JUMP JUMPDEST PUSH2 0x38E6 DUP2 PUSH2 0x2E25 JUMP JUMPDEST DUP5 ADD SWAP2 POP POP SWAP3 SWAP2 POP POP JUMP JUMPDEST PUSH2 0x38FA DUP2 PUSH2 0x2D7C JUMP JUMPDEST DUP3 MSTORE POP POP JUMP JUMPDEST PUSH1 0x0 PUSH2 0x120 DUP4 ADD PUSH1 0x0 DUP4 ADD MLOAD PUSH2 0x3919 PUSH1 0x0 DUP7 ADD DUP3 PUSH2 0x3898 JUMP JUMPDEST POP PUSH1 0x20 DUP4 ADD MLOAD DUP5 DUP3 SUB PUSH1 0x20 DUP7 ADD MSTORE PUSH2 0x3931 DUP3 DUP3 PUSH2 0x38B8 JUMP JUMPDEST SWAP2 POP POP PUSH1 0x40 DUP4 ADD MLOAD PUSH2 0x3946 PUSH1 0x40 DUP7 ADD DUP3 PUSH2 0x38F1 JUMP JUMPDEST POP PUSH1 0x60 DUP4 ADD MLOAD PUSH2 0x3959 PUSH1 0x60 DUP7 ADD DUP3 PUSH2 0x337F JUMP JUMPDEST POP PUSH1 0x80 DUP4 ADD MLOAD PUSH2 0x396C PUSH1 0x80 DUP7 ADD DUP3 PUSH2 0x337F JUMP JUMPDEST POP PUSH1 0xA0 DUP4 ADD MLOAD PUSH2 0x397F PUSH1 0xA0 DUP7 ADD DUP3 PUSH2 0x337F JUMP JUMPDEST POP PUSH1 0xC0 DUP4 ADD MLOAD PUSH2 0x3992 PUSH1 0xC0 DUP7 ADD DUP3 PUSH2 0x337F JUMP JUMPDEST POP PUSH1 0xE0 DUP4 ADD MLOAD PUSH2 0x39A5 PUSH1 0xE0 DUP7 ADD DUP3 PUSH2 0x337F JUMP JUMPDEST POP PUSH2 0x100 DUP4 ADD MLOAD PUSH2 0x39BA PUSH2 0x100 DUP7 ADD DUP3 PUSH2 0x337F JUMP JUMPDEST POP DUP1 SWAP2 POP POP SWAP3 SWAP2 POP POP JUMP JUMPDEST PUSH1 0x0 PUSH1 0x20 DUP3 ADD SWAP1 POP DUP2 DUP2 SUB PUSH1 0x0 DUP4 ADD MSTORE PUSH2 0x39DF DUP2 DUP5 PUSH2 0x3900 JUMP JUMPDEST SWAP1 POP SWAP3 SWAP2 POP POP JUMP JUMPDEST PUSH32 0x4E487B7100000000000000000000000000000000000000000000000000000000 PUSH1 0x0 MSTORE PUSH1 0x22 PUSH1 0x4 MSTORE PUSH1 0x24 PUSH1 0x0 REVERT JUMPDEST PUSH1 0x0 PUSH1 0x2 DUP3 DIV SWAP1 POP PUSH1 0x1 DUP3 AND DUP1 PUSH2 0x3A2E JUMPI PUSH1 0x7F DUP3 AND SWAP2 POP JUMPDEST PUSH1 0x20 DUP3 LT DUP2 SUB PUSH2 0x3A41 JUMPI PUSH2 0x3A40 PUSH2 0x39E7 JUMP JUMPDEST JUMPDEST POP SWAP2 SWAP1 POP JUMP JUMPDEST PUSH1 0x0 DUP2 SWAP1 POP SWAP3 SWAP2 POP POP JUMP JUMPDEST PUSH1 0x0 PUSH2 0x3A5D DUP3 PUSH2 0x2DDF JUMP JUMPDEST PUSH2 0x3A67 DUP2 DUP6 PUSH2 0x3A47 JUMP JUMPDEST SWAP4 POP PUSH2 0x3A77 DUP2 DUP6 PUSH1 0x20 DUP7 ADD PUSH2 0x2DFB JUMP JUMPDEST DUP1 DUP5 ADD SWAP2 POP POP SWAP3 SWAP2 POP POP JUMP JUMPDEST PUSH32 0x2E6A736F6E000000000000000000000000000000000000000000000000000000 PUSH1 0x0 DUP3 ADD MSTORE POP JUMP JUMPDEST PUSH1 0x0 PUSH2 0x3AB9 PUSH1 0x5 DUP4 PUSH2 0x3A47 JUMP JUMPDEST SWAP2 POP PUSH2 0x3AC4 DUP3 PUSH2 0x3A83 JUMP JUMPDEST PUSH1 0x5 DUP3 ADD SWAP1 POP SWAP2 SWAP1 POP JUMP JUMPDEST PUSH1 0x0 PUSH2 0x3ADB DUP3 DUP6 PUSH2 0x3A52 JUMP JUMPDEST SWAP2 POP PUSH2 0x3AE7 DUP3 DUP5 PUSH2 0x3A52 JUMP JUMPDEST SWAP2 POP PUSH2 0x3AF2 DUP3 PUSH2 0x3AAC JUMP JUMPDEST SWAP2 POP DUP2 SWAP1 POP SWAP4 SWAP3 POP POP POP JUMP JUMPDEST PUSH1 0x0 PUSH1 0x40 DUP3 ADD SWAP1 POP PUSH2 0x3B13 PUSH1 0x0 DUP4 ADD DUP6 PUSH2 0x35BB JUMP JUMPDEST PUSH2 0x3B20 PUSH1 0x20 DUP4 ADD DUP5 PUSH2 0x35BB JUMP JUMPDEST SWAP4 SWAP3 POP POP POP JUMP JUMPDEST PUSH1 0x0 PUSH1 0x40 DUP3 ADD SWAP1 POP PUSH2 0x3B3C PUSH1 0x0 DUP4 ADD DUP6 PUSH2 0x2CCD JUMP JUMPDEST PUSH2 0x3B49 PUSH1 0x20 DUP4 ADD DUP5 PUSH2 0x2CCD JUMP JUMPDEST SWAP4 SWAP3 POP POP POP JUMP JUMPDEST PUSH32 0x4E487B7100000000000000000000000000000000000000000000000000000000 PUSH1 0x0 MSTORE PUSH1 0x32 PUSH1 0x4 MSTORE PUSH1 0x24 PUSH1 0x0 REVERT JUMPDEST PUSH1 0x0 DUP2 SWAP1 POP DUP2 PUSH1 0x0 MSTORE PUSH1 0x20 PUSH1 0x0 KECCAK256 SWAP1 POP SWAP2 SWAP1 POP JUMP JUMPDEST PUSH1 0x0 PUSH1 0x20 PUSH1 0x1F DUP4 ADD DIV SWAP1 POP SWAP2 SWAP1 POP JUMP JUMPDEST PUSH1 0x0 DUP3 DUP3 SHL SWAP1 POP SWAP3 SWAP2 POP POP JUMP JUMPDEST PUSH1 0x0 PUSH1 0x8 DUP4 MUL PUSH2 0x3BE1 PUSH32 0xFFFFFFFFFFFFFFFFFFFFFFFFFFFFFFFFFFFFFFFFFFFFFFFFFFFFFFFFFFFFFFFF DUP3 PUSH2 0x3BA4 JUMP JUMPDEST PUSH2 0x3BEB DUP7 DUP4 PUSH2 0x3BA4 JUMP JUMPDEST SWAP6 POP DUP1 NOT DUP5 AND SWAP4 POP DUP1 DUP7 AND DUP5 OR SWAP3 POP POP POP SWAP4 SWAP3 POP POP POP JUMP JUMPDEST PUSH1 0x0 DUP2 SWAP1 POP SWAP2 SWAP1 POP JUMP JUMPDEST PUSH1 0x0 PUSH2 0x3C28 PUSH2 0x3C23 PUSH2 0x3C1E DUP5 PUSH2 0x2C57 JUMP JUMPDEST PUSH2 0x3C03 JUMP JUMPDEST PUSH2 0x2C57 JUMP JUMPDEST SWAP1 POP SWAP2 SWAP1 POP JUMP JUMPDEST PUSH1 0x0 DUP2 SWAP1 POP SWAP2 SWAP1 POP JUMP JUMPDEST PUSH2 0x3C42 DUP4 PUSH2 0x3C0D JUMP JUMPDEST PUSH2 0x3C56 PUSH2 0x3C4E DUP3 PUSH2 0x3C2F JUMP JUMPDEST DUP5 DUP5 SLOAD PUSH2 0x3BB1 JUMP JUMPDEST DUP3 SSTORE POP POP POP POP JUMP JUMPDEST PUSH1 0x0 SWAP1 JUMP JUMPDEST PUSH2 0x3C6B PUSH2 0x3C5E JUMP JUMPDEST PUSH2 0x3C76 DUP2 DUP5 DUP5 PUSH2 0x3C39 JUMP JUMPDEST POP POP POP JUMP JUMPDEST JUMPDEST DUP2 DUP2 LT ISZERO PUSH2 0x3C9A JUMPI PUSH2 0x3C8F PUSH1 0x0 DUP3 PUSH2 0x3C63 JUMP JUMPDEST PUSH1 0x1 DUP2 ADD SWAP1 POP PUSH2 0x3C7C JUMP JUMPDEST POP POP JUMP JUMPDEST PUSH1 0x1F DUP3 GT ISZERO PUSH2 0x3CDF JUMPI PUSH2 0x3CB0 DUP2 PUSH2 0x3B7F JUMP JUMPDEST PUSH2 0x3CB9 DUP5 PUSH2 0x3B94 JUMP JUMPDEST DUP2 ADD PUSH1 0x20 DUP6 LT ISZERO PUSH2 0x3CC8 JUMPI DUP2 SWAP1 POP JUMPDEST PUSH2 0x3CDC PUSH2 0x3CD4 DUP6 PUSH2 0x3B94 JUMP JUMPDEST DUP4 ADD DUP3 PUSH2 0x3C7B JUMP JUMPDEST POP POP JUMPDEST POP POP POP JUMP JUMPDEST PUSH1 0x0 DUP3 DUP3 SHR SWAP1 POP SWAP3 SWAP2 POP POP JUMP JUMPDEST PUSH1 0x0 PUSH2 0x3D02 PUSH1 0x0 NOT DUP5 PUSH1 0x8 MUL PUSH2 0x3CE4 JUMP JUMPDEST NOT DUP1 DUP4 AND SWAP2 POP POP SWAP3 SWAP2 POP POP JUMP JUMPDEST PUSH1 0x0 PUSH2 0x3D1B DUP4 DUP4 PUSH2 0x3CF1 JUMP JUMPDEST SWAP2 POP DUP3 PUSH1 0x2 MUL DUP3 OR SWAP1 POP SWAP3 SWAP2 POP POP JUMP JUMPDEST PUSH2 0x3D34 DUP3 PUSH2 0x2DDF JUMP JUMPDEST PUSH8 0xFFFFFFFFFFFFFFFF DUP2 GT ISZERO PUSH2 0x3D4D JUMPI PUSH2 0x3D4C PUSH2 0x2E96 JUMP JUMPDEST JUMPDEST PUSH2 0x3D57 DUP3 SLOAD PUSH2 0x3A16 JUMP JUMPDEST PUSH2 0x3D62 DUP3 DUP3 DUP6 PUSH2 0x3C9E JUMP JUMPDEST PUSH1 0x0 PUSH1 0x20 SWAP1 POP PUSH1 0x1F DUP4 GT PUSH1 0x1 DUP2 EQ PUSH2 0x3D95 JUMPI PUSH1 0x0 DUP5 ISZERO PUSH2 0x3D83 JUMPI DUP3 DUP8 ADD MLOAD SWAP1 POP JUMPDEST PUSH2 0x3D8D DUP6 DUP3 PUSH2 0x3D0F JUMP JUMPDEST DUP7 SSTORE POP PUSH2 0x3DF5 JUMP JUMPDEST PUSH1 0x1F NOT DUP5 AND PUSH2 0x3DA3 DUP7 PUSH2 0x3B7F JUMP JUMPDEST PUSH1 0x0 JUMPDEST DUP3 DUP2 LT ISZERO PUSH2 0x3DCB JUMPI DUP5 DUP10 ADD MLOAD DUP3 SSTORE PUSH1 0x1 DUP3 ADD SWAP2 POP PUSH1 0x20 DUP6 ADD SWAP5 POP PUSH1 0x20 DUP2 ADD SWAP1 POP PUSH2 0x3DA6 JUMP JUMPDEST DUP7 DUP4 LT ISZERO PUSH2 0x3DE8 JUMPI DUP5 DUP10 ADD MLOAD PUSH2 0x3DE4 PUSH1 0x1F DUP10 AND DUP3 PUSH2 0x3CF1 JUMP JUMPDEST DUP4 SSTORE POP JUMPDEST PUSH1 0x1 PUSH1 0x2 DUP9 MUL ADD DUP9 SSTORE POP POP POP JUMPDEST POP POP POP POP POP POP JUMP JUMPDEST PUSH32 0x5573657220646F6573206E6F7420657869737400000000000000000000000000 PUSH1 0x0 DUP3 ADD MSTORE POP JUMP JUMPDEST PUSH1 0x0 PUSH2 0x3E33 PUSH1 0x13 DUP4 PUSH2 0x2DEA JUMP JUMPDEST SWAP2 POP PUSH2 0x3E3E DUP3 PUSH2 0x3DFD JUMP JUMPDEST PUSH1 0x20 DUP3 ADD SWAP1 POP SWAP2 SWAP1 POP JUMP JUMPDEST PUSH1 0x0 PUSH1 0x20 DUP3 ADD SWAP1 POP DUP2 DUP2 SUB PUSH1 0x0 DUP4 ADD MSTORE PUSH2 0x3E62 DUP2 PUSH2 0x3E26 JUMP JUMPDEST SWAP1 POP SWAP2 SWAP1 POP JUMP JUMPDEST PUSH32 0x537562736372697074696F6E206973206E6F7420616374697665206F72206861 PUSH1 0x0 DUP3 ADD MSTORE PUSH32 0x7320657870697265640000000000000000000000000000000000000000000000 PUSH1 0x20 DUP3 ADD MSTORE POP JUMP JUMPDEST PUSH1 0x0 PUSH2 0x3EC5 PUSH1 0x29 DUP4 PUSH2 0x2DEA JUMP JUMPDEST SWAP2 POP PUSH2 0x3ED0 DUP3 PUSH2 0x3E69 JUMP JUMPDEST PUSH1 0x40 DUP3 ADD SWAP1 POP SWAP2 SWAP1 POP JUMP JUMPDEST PUSH1 0x0 PUSH1 0x20 DUP3 ADD SWAP1 POP DUP2 DUP2 SUB PUSH1 0x0 DUP4 ADD MSTORE PUSH2 0x3EF4 DUP2 PUSH2 0x3EB8 JUMP JUMPDEST SWAP1 POP SWAP2 SWAP1 POP JUMP JUMPDEST PUSH32 0x4E487B7100000000000000000000000000000000000000000000000000000000 PUSH1 0x0 MSTORE PUSH1 0x11 PUSH1 0x4 MSTORE PUSH1 0x24 PUSH1 0x0 REVERT JUMPDEST PUSH1 0x0 PUSH2 0x3F35 DUP3 PUSH2 0x2C57 JUMP JUMPDEST SWAP2 POP PUSH2 0x3F40 DUP4 PUSH2 0x2C57 JUMP JUMPDEST SWAP3 POP DUP3 DUP3 ADD SWAP1 POP DUP1 DUP3 GT ISZERO PUSH2 0x3F58 JUMPI PUSH2 0x3F57 PUSH2 0x3EFB JUMP JUMPDEST JUMPDEST SWAP3 SWAP2 POP POP JUMP JUMPDEST PUSH32 0x6D6F6E74686C7900000000000000000000000000000000000000000000000000 PUSH1 0x0 DUP3 ADD MSTORE POP JUMP JUMPDEST PUSH1 0x0 PUSH2 0x3F94 PUSH1 0x7 DUP4 PUSH2 0x3A47 JUMP JUMPDEST SWAP2 POP PUSH2 0x3F9F DUP3 PUSH2 0x3F5E JUMP JUMPDEST PUSH1 0x7 DUP3 ADD SWAP1 POP SWAP2 SWAP1 POP JUMP JUMPDEST PUSH1 0x0 PUSH2 0x3FB5 DUP3 PUSH2 0x3F87 JUMP JUMPDEST SWAP2 POP DUP2 SWAP1 POP SWAP2 SWAP1 POP JUMP JUMPDEST PUSH1 0x0 PUSH2 0x3FCB DUP3 DUP5 PUSH2 0x3A52 JUMP JUMPDEST SWAP2 POP DUP2 SWAP1 POP SWAP3 SWAP2 POP POP JUMP JUMPDEST PUSH32 0x796561726C790000000000000000000000000000000000000000000000000000 PUSH1 0x0 DUP3 ADD MSTORE POP JUMP JUMPDEST PUSH1 0x0 PUSH2 0x400C PUSH1 0x6 DUP4 PUSH2 0x3A47 JUMP JUMPDEST SWAP2 POP PUSH2 0x4017 DUP3 PUSH2 0x3FD6 JUMP JUMPDEST PUSH1 0x6 DUP3 ADD SWAP1 POP SWAP2 SWAP1 POP JUMP JUMPDEST PUSH1 0x0 PUSH2 0x402D DUP3 PUSH2 0x3FFF JUMP JUMPDEST SWAP2 POP DUP2 SWAP1 POP SWAP2 SWAP1 POP JUMP JUMPDEST PUSH32 0x496E76616C696420737562736372697074696F6E207479706500000000000000 PUSH1 0x0 DUP3 ADD MSTORE POP JUMP JUMPDEST PUSH1 0x0 PUSH2 0x406D PUSH1 0x19 DUP4 PUSH2 0x2DEA JUMP JUMPDEST SWAP2 POP PUSH2 0x4078 DUP3 PUSH2 0x4037 JUMP JUMPDEST PUSH1 0x20 DUP3 ADD SWAP1 POP SWAP2 SWAP1 POP JUMP JUMPDEST PUSH1 0x0 PUSH1 0x20 DUP3 ADD SWAP1 POP DUP2 DUP2 SUB PUSH1 0x0 DUP4 ADD MSTORE PUSH2 0x409C DUP2 PUSH2 0x4060 JUMP JUMPDEST SWAP1 POP SWAP2 SWAP1 POP JUMP JUMPDEST PUSH32 0x496E73756666696369656E74207061796D656E7420666F722073756273637269 PUSH1 0x0 DUP3 ADD MSTORE PUSH32 0x7074696F6E000000000000000000000000000000000000000000000000000000 PUSH1 0x20 DUP3 ADD MSTORE POP JUMP JUMPDEST PUSH1 0x0 PUSH2 0x40FF PUSH1 0x25 DUP4 PUSH2 0x2DEA JUMP JUMPDEST SWAP2 POP PUSH2 0x410A DUP3 PUSH2 0x40A3 JUMP JUMPDEST PUSH1 0x40 DUP3 ADD SWAP1 POP SWAP2 SWAP1 POP JUMP JUMPDEST PUSH1 0x0 PUSH1 0x20 DUP3 ADD SWAP1 POP DUP2 DUP2 SUB PUSH1 0x0 DUP4 ADD MSTORE PUSH2 0x412E DUP2 PUSH2 0x40F2 JUMP JUMPDEST SWAP1 POP SWAP2 SWAP1 POP JUMP JUMPDEST PUSH1 0x0 PUSH2 0x4140 DUP3 PUSH2 0x2C57 JUMP JUMPDEST SWAP2 POP PUSH2 0x414B DUP4 PUSH2 0x2C57 JUMP JUMPDEST SWAP3 POP DUP3 DUP3 SUB SWAP1 POP DUP2 DUP2 GT ISZERO PUSH2 0x4163 JUMPI PUSH2 0x4162 PUSH2 0x3EFB JUMP JUMPDEST JUMPDEST SWAP3 SWAP2 POP POP JUMP JUMPDEST PUSH1 0x0 DUP2 SLOAD PUSH2 0x4176 DUP2 PUSH2 0x3A16 JUMP JUMPDEST PUSH2 0x4180 DUP2 DUP7 PUSH2 0x3A47 JUMP JUMPDEST SWAP5 POP PUSH1 0x1 DUP3 AND PUSH1 0x0 DUP2 EQ PUSH2 0x419B JUMPI PUSH1 0x1 DUP2 EQ PUSH2 0x41B0 JUMPI PUSH2 0x41E3 JUMP JUMPDEST PUSH1 0xFF NOT DUP4 AND DUP7 MSTORE DUP2 ISZERO ISZERO DUP3 MUL DUP7 ADD SWAP4 POP PUSH2 0x41E3 JUMP JUMPDEST PUSH2 0x41B9 DUP6 PUSH2 0x3B7F JUMP JUMPDEST PUSH1 0x0 JUMPDEST DUP4 DUP2 LT ISZERO PUSH2 0x41DB JUMPI DUP2 SLOAD DUP2 DUP10 ADD MSTORE PUSH1 0x1 DUP3 ADD SWAP2 POP PUSH1 0x20 DUP2 ADD SWAP1 POP PUSH2 0x41BC JUMP JUMPDEST DUP4 DUP9 ADD SWAP6 POP POP POP JUMPDEST POP POP POP SWAP3 SWAP2 POP POP JUMP JUMPDEST PUSH1 0x0 PUSH2 0x41F8 DUP3 DUP5 PUSH2 0x4169 JUMP JUMPDEST SWAP2 POP DUP2 SWAP1 POP SWAP3 SWAP2 POP POP JUMP JUMPDEST PUSH32 0x4E487B7100000000000000000000000000000000000000000000000000000000 PUSH1 0x0 MSTORE PUSH1 0x12 PUSH1 0x4 MSTORE PUSH1 0x24 PUSH1 0x0 REVERT JUMPDEST PUSH1 0x0 PUSH1 0x80 DUP3 ADD SWAP1 POP PUSH2 0x4247 PUSH1 0x0 DUP4 ADD DUP8 PUSH2 0x35BB JUMP JUMPDEST PUSH2 0x4254 PUSH1 0x20 DUP4 ADD DUP7 PUSH2 0x2CCD JUMP JUMPDEST PUSH2 0x4261 PUSH1 0x40 DUP4 ADD DUP6 PUSH2 0x2CCD JUMP JUMPDEST PUSH2 0x426E PUSH1 0x60 DUP4 ADD DUP5 PUSH2 0x2CCD JUMP JUMPDEST SWAP6 SWAP5 POP POP POP POP POP JUMP JUMPDEST PUSH1 0x0 PUSH1 0x40 DUP3 ADD SWAP1 POP DUP2 DUP2 SUB PUSH1 0x0 DUP4 ADD MSTORE PUSH2 0x4291 DUP2 DUP6 PUSH2 0x33B3 JUMP JUMPDEST SWAP1 POP DUP2 DUP2 SUB PUSH1 0x20 DUP4 ADD MSTORE PUSH2 0x42A5 DUP2 DUP5 PUSH2 0x33B3 JUMP JUMPDEST SWAP1 POP SWAP4 SWAP3 POP POP POP JUMP JUMPDEST PUSH1 0x0 DUP2 MLOAD SWAP1 POP SWAP2 SWAP1 POP JUMP JUMPDEST PUSH1 0x0 DUP3 DUP3 MSTORE PUSH1 0x20 DUP3 ADD SWAP1 POP SWAP3 SWAP2 POP POP JUMP JUMPDEST PUSH1 0x0 PUSH2 0x42D5 DUP3 PUSH2 0x42AE JUMP JUMPDEST PUSH2 0x42DF DUP2 DUP6 PUSH2 0x42B9 JUMP JUMPDEST SWAP4 POP PUSH2 0x42EF DUP2 DUP6 PUSH1 0x20 DUP7 ADD PUSH2 0x2DFB JUMP JUMPDEST PUSH2 0x42F8 DUP2 PUSH2 0x2E25 JUMP JUMPDEST DUP5 ADD SWAP2 POP POP SWAP3 SWAP2 POP POP JUMP JUMPDEST PUSH1 0x0 PUSH1 0xA0 DUP3 ADD SWAP1 POP PUSH2 0x4318 PUSH1 0x0 DUP4 ADD DUP9 PUSH2 0x35BB JUMP JUMPDEST PUSH2 0x4325 PUSH1 0x20 DUP4 ADD DUP8 PUSH2 0x35BB JUMP JUMPDEST PUSH2 0x4332 PUSH1 0x40 DUP4 ADD DUP7 PUSH2 0x2CCD JUMP JUMPDEST PUSH2 0x433F PUSH1 0x60 DUP4 ADD DUP6 PUSH2 0x2CCD JUMP JUMPDEST DUP2 DUP2 SUB PUSH1 0x80 DUP4 ADD MSTORE PUSH2 0x4351 DUP2 DUP5 PUSH2 0x42CA JUMP JUMPDEST SWAP1 POP SWAP7 SWAP6 POP POP POP POP POP POP JUMP JUMPDEST PUSH1 0x0 DUP2 MLOAD SWAP1 POP PUSH2 0x436C DUP2 PUSH2 0x2D23 JUMP JUMPDEST SWAP3 SWAP2 POP POP JUMP JUMPDEST PUSH1 0x0 PUSH1 0x20 DUP3 DUP5 SUB SLT ISZERO PUSH2 0x4388 JUMPI PUSH2 0x4387 PUSH2 0x2BEF JUMP JUMPDEST JUMPDEST PUSH1 0x0 PUSH2 0x4396 DUP5 DUP3 DUP6 ADD PUSH2 0x435D JUMP JUMPDEST SWAP2 POP POP SWAP3 SWAP2 POP POP JUMP JUMPDEST PUSH1 0x0 PUSH1 0xA0 DUP3 ADD SWAP1 POP PUSH2 0x43B4 PUSH1 0x0 DUP4 ADD DUP9 PUSH2 0x35BB JUMP JUMPDEST PUSH2 0x43C1 PUSH1 0x20 DUP4 ADD DUP8 PUSH2 0x35BB JUMP JUMPDEST DUP2 DUP2 SUB PUSH1 0x40 DUP4 ADD MSTORE PUSH2 0x43D3 DUP2 DUP7 PUSH2 0x33B3 JUMP JUMPDEST SWAP1 POP DUP2 DUP2 SUB PUSH1 0x60 DUP4 ADD MSTORE PUSH2 0x43E7 DUP2 DUP6 PUSH2 0x33B3 JUMP JUMPDEST SWAP1 POP DUP2 DUP2 SUB PUSH1 0x80 DUP4 ADD MSTORE PUSH2 0x43FB DUP2 DUP5 PUSH2 0x42CA JUMP JUMPDEST SWAP1 POP SWAP7 SWAP6 POP POP POP POP POP POP JUMP INVALID LOG2 PUSH5 0x6970667358 0x22 SLT KECCAK256 0x1E 0x29 EXTCODEHASH 0x2D 0xED 0xE7 0xB2 0x5D CALLVALUE MULMOD 0xC1 0xAB PUSH28 0xE14BDF08B67D2CE7F32E3D19E536B9FCA976F864736F6C6343000816 STOP CALLER PUSH10 0x7066733A2F2F6261666B PUSH19 0x65696866747371766F34776736626766376E35 PUSH4 0x73333636 CALLVALUE PUSH24 0x6235626D3672337772737135333768367866347574346E78 PUSH18 0x646F69697066733A2F2F6261666B72656961 PUSH23 0x6F617275376477356B6F70377965746F7A637032787073 PUSH25 0x7A65367061716862776F63716872356C6F76366F6875646861 PUSH6 0x0 "},"methodIdentifiers":{"Users(address)":"99b956a0","balanceOf(address,uint256)":"00fdd58e","balanceOfBatch(address[],uint256[])":"4e1273f4","burn(address,uint256,uint256)":"f5298aca","burnBatch(address,uint256[],uint256[])":"6b20c454","checkAndUpdateSubscriptionStatus(address)":"e231a224","getUserData(address)":"ffc9896b","isApprovedForAll(address,address)":"e985e9c5","mintBatch(address,uint256[],uint256[],bytes)":"1f7fdffa","owner()":"8da5cb5b","purchasedSubscription(address,string)":"d4555a6c","renounceOwnership()":"715018a6","safeBatchTransferFrom(address,address,uint256[],uint256[],bytes)":"2eb2c2d6","safeTransferFrom(address,address,uint256,uint256,bytes)":"f242432a","setApprovalForAll(address,bool)":"a22cb465","setURI(uint256,string)":"862440e2","supportsInterface(bytes4)":"01ffc9a7","transferOwnership(address)":"f2fde38b","updateUsersStatus(address)":"d44f9084","uri(uint256)":"0e89341c"}}}}}